:020000040800F2
:10000000B005002001010008F1220008191F0008B6
:10001000ED220008CF010008012B000800000000BD
:10002000000000000000000000000000352400086F
:10003000D301000800000000FB2200086925000829
:100040001B010008F32200081B0100081B01000827
:1000500051020008DD2300081B0100081B010008F5
:100060001B0100081B0100081B0100081B01000800
:100070001B0100081B0100081B0100081B010008F0
:100080001B0100081B0100086D0100081B0100088E
:100090001B0100081B0100081B0100081B010008D0
:1000A0001B0100081B0100081B0100081B010008C0
:1000B0004D2600081B0100085D2600081B010008F2
:1000C0001B0100081B0100081B0100081B010008A0
:1000D0001B0100081B0100081B0100081B01000890
:1000E0001B0100081B0100081B010008DFF80CD0F1
:1000F00000F02AF800480047A12B0008B0050020B6
:100100000648804706480047FEE7FEE7FEE7FEE7B1
:10011000FEE7FEE7FEE7FEE7FEE7FEE7F52500085F
:10012000ED000008D2B201E000F8012B491EFBD21D
:1001300070470022F6E710B513460A4604461946F2
:10014000FFF7F0FF204610BD064C074D06E0E068C3
:1001500040F0010394E8070098471034AC42F6D30E
:10016000FFF7C8FF4C2C00086C2C000810B50248A3
:1001700000F0B7F910BD00006000002070B5044623
:1001800000252068806800F00100F0B120688068D8
:1001900020F001002168886000F078FD05460EE03F
:1001A00000F074FD401B022809D9A06A40F010003D
:1001B000A062E06A40F00100E062012070BD2068AA
:1001C000806800F001000028EAD10020F6E700BFB7
:1001D000FEE770470B48007838B90B4840680B4978
:1001E00008600120074908700BE00748406807498C
:1001F0000968884205D10020034948600882014906
:1002000008707047300000201001002034000020EA
:100210007047000010B50C4800680C490968C863B5
:1002200008210A4801F0A8FD012007490871084685
:1002300080680649096808640C21044801F09CFDA7
:1002400001210148017310BD5401002090000020DD
:1002500010B500F0BBFA10BD0021074AD161074973
:10026000096941F00201054A1161114648610969B5
:1002700041F04001116170479001002000200240D0
:100280000022054BDA61054A126942F00102034B74
:100290001A61018070470000900100200020024098
:1002A00000201E49C96801F0100139B11C49C96913
:1002B00041F002011A4AD16140F010001749C968A3
:1002C00001F0040139B11649C96941F00101144A2C
:1002D000D16140F004001149C96901F0010169B11F
:1002E0000F49C96941F004010D4AD16100BF0B49B2
:1002F000C96921F00101094AD16100BF00BF40F284
:100300000111884206D10549C96921F00101034A5A
:10031000D16101E00149C86000BF70470020024080
:100320009001002010B50421124801F0DBFD1249B4
:1003300088610846C078487308460078012811D1C2
:1003400002F09EF80B480068406A84B204F227501D
:1003500084B20848006804640C21064801F00CFDD2
:1003600001F0FAFF04484068022802D30120024944
:10037000887010BD90000020100100207047000020
:1003800038B5024600230020009000BF92F82400F8
:10039000012801D1022038BD012082F8240000BFCD
:1003A0004868072812D21068406B0C79641E04EB71
:1003B00084051F24AC40A0430D796D1E05EB850517
:1003C0000C68AC4020431468606327E048680D283F
:1003D00012D21068006B0C79E41F04EB84051F2413
:1003E000AC40A0430D79ED1F05EB85050C68AC40D2
:1003F00020431468206311E01068C06A0C790D3C3A
:1004000004EB84051F24AC40A0430D790D3D05EBA2
:1004100085050C68AC4020431468E06208680A282F
:1004200012D31068C0680C780A3C04EB440507241A
:10043000AC40A0430D780A3D05EB45058C68AC4007
:1004400020431468E0600FE0106800690C7804EB4A
:1004500044050724AC40A0430D7805EB45058C68A6
:10046000AC402043146820610868102802D0086856
:10047000112827D1174C1068A0421ED1106880683F
:1004800000F40000F0B91068806840F400001468BF
:10049000A0600868102815D10F4800680F4CB0FB09
:1004A000F4F000EB80004000009002E00098401E55
:1004B000009000980028F9D104E0906A40F02000F4
:1004C0009062012300BF002082F8240000BF18467C
:1004D00061E70000002401405C00002040420F0062
:1004E000704710B504462068406800F020002028BE
:1004F0002FD12068006800F00200022829D1A06AEC
:1005000000F0100018B9A06A40F40070A0622068E2
:10051000806800F46020B0F5602F13D1207B88B98B
:100520002068406820F0200021684860A06A20F41C
:100530008070A062A06A00F4805018B9A06A40F0F0
:100540000100A0622046FFF7CBFF6FF01200216888
:1005500008602068406800F0800080283BD1206857
:10056000006800F00400042835D1A06A00F01000F3
:1005700018B9A06A40F40050A0622068806800F4B6
:10058000E040B0F5E04F0DD02068406800F4806096
:10059000D0B92068806800F46020B0F5602F13D1D6
:1005A000207B88B92068406820F08000216848607E
:1005B000A06A20F48050A062A06A00F4807018B98C
:1005C000A06A40F00100A0622046FFF7D7FE6FF05E
:1005D0000C00216808602068406800F04000402856
:1005E0000FD12068006800F0010050B1A06A40F40B
:1005F0008030A062204600F0A7F86FF0010021686B
:10060000086010BD2DE9F0410446002700250026B2
:10061000A84614B90120BDE8F081A06810B1207D82
:1006200000B100BFA06A30B90020E06284F8240065
:10063000204600F08BF82046FFF7A0FD0746A06A91
:1006400000F01000002873D1002F71D1A06A20F4AF
:10065000885040F00200A062E16960680843217B95
:1006600040EA41000643A068B0F5807F02D0A06850
:10067000012802D14FF4807000E000200543207D66
:10068000012811D1207B38B9A069401E4FF40061C8
:1006900041EA4030054307E0A06A40F02000A06234
:1006A000E06A40F00100E0622068406820F46940A0
:1006B0002843216848602068806821490840304309
:1006C00021688860A068B0F5807F02D0A06801280A
:1006D00002D14FF4807000E00020B0F5807F03D19C
:1006E000208A401E4FEA00582068C06A20F470003B
:1006F00040EA08002168C862206880681149084003
:10070000B04208D10020E062A06A20F0020040F070
:100710000100A06211E0A06A20F0020040F0100089
:10072000A062E06A40F00100E062012705E0FFE717
:10073000A06A40F01000A062012738466BE7000075
:10074000FDF7E1FFFE0E1FFF7047000010B586B0F9
:1007500004460020029003900490059017492068F9
:10076000884229D100BF1648806940F400701449BE
:1007700088610846806900F40070019000BF00BFE6
:1007800000BF0846806940F004008861084680691F
:1007900000F00400019000BF00BF0320029003900E
:1007A00002A9084800F0D4F800221146122000F0F7
:1007B0000FFB122000F0FCFA06B010BD002401402F
:1007C00000100240000801407047000010B50024EE
:1007D0005C48C06800F0100020B95A48C06800F0BA
:1007E000040068B1584884684FF0FF30564988606B
:1007F000FFF756FD204600F0A9F800205249087086
:100800005048C06800F02000002828D000BF2020F9
:100810004C49C86000BF4C48007800287ED04A4848
:100820000078012827D148484068401E4649486062
:1008300008464068A0B1084684682046FFF7C4FF18
:100840004148806800F580643F4884603D48006905
:1008500020F002003B4908612046FFF7FDFC5DE007
:100860004FF0FF3004463849886000200870204669
:10087000FFF7AAFF52E03448007802280CD1314833
:10088000006920F004002F4908610020FFF79CFF59
:1008900000202D49087041E02B484068401E2A493D
:1008A000486008464068D8B108468068801C886067
:1008B0000846846808694969000C40EA0140090C4F
:1008C000214A106151611F48006920F001001D4953
:1008D00008611069526981B22046FFF7D1FC1DE022
:1008E00019480078032804D117498868FFF76CFF7E
:1008F0000EE015480078042805D113498968881E40
:10090000FFF762FF04E010498968881FFFF75CFF6A
:100910004FF0FF300C498860002008700A480078CA
:1009200078B90848006920F00700064908610846C0
:10093000006920F4A050086100BF00200249087639
:1009400000BF10BD00200240900100207047000051
:100950002DE9F8470346002294466EE14FF0010866
:1009600008FA02F4D1F8008008EA0400A0427DD120
:10097000DFF8DCA2D1F80480A8EB0A09D0453AD010
:1009800014DCB8F1030F50D009DCB8F1000F31D0FE
:10099000B8F1010F1CD0B8F1020F49D120E0B8F135
:1009A000110F18D0B8F1120F42D11EE0B9F5881F0F
:1009B00025D006DCB9F5803F20D0B9F5801F37D1AE
:1009C0001AE0B9F5001F18D0B9F5041F30D117E0AF
:1009D000D1F80CC02DE0D1F80C8008F1040C28E00F
:1009E000D1F80C8008F1080C23E0D1F80C8008F154
:1009F0000C0C1EE000BF00BF00BF00BF00BF00BF67
:100A0000D1F80880B8F1000F02D14FF0040C0BE0D0
:100A1000D1F80880B8F1010F03D14FF0080C1C6128
:100A200002E04FF0080C5C6103E04FF0000C00E0C6
:100A300000BF00BFFF2801D8984601E003F1040879
:100A40004646FF2802D84FEA820803E0A2F10808D0
:100A50004FEA88084746D6F800804FF00F0909FA98
:100A600007F928EA09080CFA07F900E088E048EAE3
:100A70000908C6F80080D1F8048008F08058B8F161
:100A8000805F7DD100BFDFF8CC81D8F8188048F0B6
:100A90000108DFF8C091C9F81880C846D8F8188056
:100AA00008F00108CDF8008000BF00BF4FEAB93858
:100AB0004FEA920958F829504FEA82784FEA18799C
:100AC0004FF00F0808FA09F825EA0805DFF88881D1
:100AD000434502D14FF0000816E0DFF8808143451E
:100AE00002D14FF001080FE0DFF87481434502D1D5
:100AF0004FF0020808E0DFF86C81434502D14FF067
:100B0000030801E04FF004084FEA82794FEA1979AF
:100B100008FA09F848EA0505DFF84C814FEA92091E
:100B200048F82950D1F8048008F48038B8F5803F9F
:100B30000AD1DFF83881D8F8008048EA0008DFF8E9
:100B40002C91C9F8008009E0DFF82081D8F80080F6
:100B500028EA0008DFF81491C9F80080D1F8048071
:100B600008F40038B8F5003F10D1DFF8008108F133
:100B70000408D8F8008048EA0008DFF8F09000E0A8
:100B80005AE009F10409C9F800800DE0DFF8DC80C3
:100B900008F10408D8F8008028EA0008DFF8CC90B3
:100BA00009F10409C9F80080D1F8048008F480181C
:100BB000B8F5801F0ED1DFF8B48008F10808D8F826
:100BC000008048EA0008DFF8A49009F10809C9F894
:100BD00000800DE0DFF8948008F10808D8F8008064
:100BE00028EA0008DFF8849009F10809C9F80080B4
:100BF000D1F8048008F40018B8F5001F0ED1DFF812
:100C00006C8008F10C08D8F8008048EA0008DFF88A
:100C10005C9009F10C09C9F800800DE0DFF84C8008
:100C200008F10C08D8F8008028EA0008DFF83C90AA
:100C300009F10C09C9F80080521CD1F8008028FA8B
:100C400002F8B8F1000F7FF489AEBDE8F887000024
:100C5000000011100010024000080140000C01408B
:100C60000010014000140140080001400004014050
:100C7000C2680A400AB1416100E0016170470AB1EF
:100C8000016101E00B040361704700000148006846
:100C900070470000500000200348006803490978AD
:100CA00008440149086070475000002058000020A7
:100CB00010B50848006840F010000649086003209D
:100CC00000F0C4F8022000F007F800F02BF8002034
:100CD00010BD00000020024070B504460E480078A8
:100CE0004FF47A71B1FBF0F00C490968B1FBF0F5F3
:100CF000284600F0ABFC08B1012070BD102C07D2D3
:100D000000222146501E00F063F80548046001E00F
:100D10000120F2E70020F0E7580000205C000020EE
:100D20005400002008B500BF1F48806940F0010052
:100D30001D4988610846806900F00100009000BFED
:100D400000BF00BF0846C06940F08050C861084637
:100D5000C06900F08050009000BF00BF042000F088
:100D600075F800221146012000F032F8012000F051
:100D70001FF800221146042000F02AF8042000F099
:100D800017F800221146052000F022F8052000F097
:100D90000FF800BF0549486820F0E06040F000709F
:100DA000486000BF08BD0000001002400000014084
:100DB00001460846002809DB00F01F0301229A4083
:100DC00043099B0003F1E023C3F8002100BF7047F3
:100DD0002DE9F05F80460D461646002701F092FE91
:100DE000074639462A46334601F00700C0F1070A94
:100DF000BAF1040F02D94FF0040A01E0C0F1070A6A
:100E0000D14600F1040ABAF1070F02D24FF0000AEE
:100E100001E0A0F1030AD4464FF0010A0AFA09FAE8
:100E2000AAF1010A0AEA020A0AFA0CFA4FF0010BC7
:100E30000BFA0CFBABF1010B0BEA030B4AEA0B04B8
:100E40002146404601F066FEBDE8F09F00BF00F07D
:100E50000702064B19684FF6FF031940044B0B437A
:100E600043EA0221014B196000BF70470CED00E01E
:100E70000000FA057047000010B50648006800F44D
:100E8000803028B1FFF7F6FF4FF480300149086049
:100E900010BD000014040140F8B5044600260025EA
:100EA000207800F0010000286BD000274348C0697B
:100EB00000F0805070B900BF4048C06940F08050D9
:100EC0003E49C8610846C06900F08050009000BFEC
:100ED00000BF01273A48006800F48070B0B9384874
:100EE000006840F4807036490860FFF7CFFE064680
:100EF00006E0FFF7CBFE801B642801D90320F8BD74
:100F00002F48006800F480700028F2D02B48006A57
:100F100000F440752DB3A08800F44070A84220D0A2
:100F20002648006A20F44075012026490860002008
:100F300008602248056205F0010090B1FFF7A6FEA7
:100F4000064608E0FFF7A2FE801B41F28831884286
:100F500001D90320D3E71948006A00F002000028F5
:100F6000F0D01648006A20F44070616808431349C5
:100F70000862012F04D10846C06920F08050C86182
:100F800000BF207800F00200022807D10B4840681B
:100F900020F44040A168084308494860207800F0E8
:100FA0001000102807D10548406820F48000E1684F
:100FB0000843024948600020A1E7000000100240F9
:100FC000007000404004424270B504460D460CB922
:100FD000012070BD5A48006800F00700A8420ED2F8
:100FE0005748006820F00700284355490860084624
:100FF000006800F00700A84201D00120E9E720784E
:1010000000F0020002281DD1207800F0040004281E
:1010100005D14C48406840F4E0604A494860207877
:1010200000F00800082805D14648406840F46050A8
:10103000444948604348406820F0F000A1680843F4
:1010400040494860207800F0010078B360680128CA
:1010500006D13C48006800F4003090B90120B8E7A0
:101060006068022806D13748006800F0007040B977
:101070000120AEE73348006800F0020008B9012003
:10108000A7E73048406820F00300616808432D4915
:101090004860FFF7FBFD064609E0FFF7F7FD801B00
:1010A00041F28831884202D9032092E707E02548BF
:1010B000406800F00C006168B0EB810FEDD1204872
:1010C000006800F00700A8420ED91D48006820F013
:1010D000070028431A4908600846006800F0070026
:1010E000A84201D0012074E7207800F00400042811
:1010F00007D11448406820F4E060E16808431149D2
:101100004860207800F00800082808D10D484068A1
:1011100020F46050216940EAC1000A49486000F0AB
:1011200019F808494968C1F30311074A515CC840DE
:101130000649086006480068FFF7CEFD002048E732
:101140000020024000100240342C00085C00002007
:1011500054000020F0B585B00FF26C0C9CE8E01054
:1011600001A8A0E8E0101CA52D6800950021002230
:10117000002300240020194D696801F00C05F5B129
:10118000042D02D0082D19D101E0154819E001AD58
:10119000C1F38346AC5D01F4803555B10F4D6D68E8
:1011A000C5F340451DF805200D4D6543B5FBF2F331
:1011B00002E00C4D04FB05F3184602E000BF0848AE
:1011C00000BF00BF05B0F0BD020304050607080913
:1011D0000A0B0C0D0E0F101001020000001002404F
:1011E00000127A0000093D00F8B504460CB9012050
:1011F000F8BD207800F00100002878D0F848406859
:1012000000F00C0004280CD0F548406800F00C00F9
:10121000082811D1F248406800F48030B0F5803FD2
:101220000AD1EF48006800F4003000285FD0606801
:1012300000285CD10120DBE700BF6068B0F5803F8B
:1012400006D1E748006840F48030E549086028E0AE
:10125000606858B9E248006820F48030E0490860CE
:101260000846006820F4802008601AE06068B0F545
:10127000A02F0BD1DA48006840F48020D8490860DC
:101280000846006840F4803008600AE0D4480068EE
:1012900020F48030D24908600846006820F480209D
:1012A000086000BF606888B1FFF7F0FC054606E003
:1012B000FFF7ECFC401B642801D9032098E7C848DD
:1012C000006800F400300028F2D010E0FFF7DEFCE8
:1012D000054606E0FFF7DAFC401B642801D903202D
:1012E00086E7BF48006800F400300028F2D120787B
:1012F00000F00200022857D1B948406800F00C0005
:1013000050B1B748406800F00C00082818D1B44824
:10131000406800F4803098B9B148006800F00200DD
:1013200020B12069012801D0012061E7AC480068A4
:1013300020F0F800616940EAC100A949086033E083
:101340002069E8B10120A7490860FFF79FFC054626
:1013500006E0FFF79BFC401B022801D9032047E76A
:101360009F48006800F002000028F2D09C48006806
:1013700020F0F800616940EAC1009949086013E073
:10138000002098490860FFF781FC054606E0FFF75A
:101390007DFC401B022801D9032029E79048006802
:1013A00000F002000028F2D1207800F008000828A0
:1013B0002DD1A069B8B101208B490860FFF766FC08
:1013C000054606E0FFF762FC401B022801D9032016
:1013D0000EE78348406A00F002000028F2D00120A6
:1013E00000F0E8FF13E000207F490860FFF74EFCA3
:1013F000054606E0FFF74AFC401B022801D90320FE
:10140000F6E67748406A00F002000028F2D1207822
:1014100000F00400042873D100277148C06900F06F
:10142000805070B900BF6E48C06940F080506C4970
:10143000C8610846C06900F08050009000BF00BF3E
:1014400001276A48006800F48070B0B967480068F6
:1014500040F4807065490860FFF718FC054606E017
:10146000FFF714FC401B642801D90320C0E65F4845
:10147000006800F480700028F2D000BFE068012806
:1014800006D15748006A40F001005549086227E03C
:10149000E06858B95248006A20F0010050490862DB
:1014A0000846006A20F00400086219E0E068052898
:1014B0000BD14B48006A40F00400494908620846D5
:1014C000006A40F0010008620AE04548006A20F026
:1014D0000100434908620846006A20F004000862DF
:1014E00000BFE068A0B1FFF7D1FB054609E0FFF7B8
:1014F000CDFB401B41F28831884202D9032077E6B8
:1015000022E03748006A00F002000028EFD012E025
:10151000FFF7BCFB054608E0FFF7B8FB401B41F2B4
:101520008831884201D9032062E62D48006A00F024
:1015300002000028F0D1012F05D12948C06920F010
:1015400080502749C86100BFE069C8B3244840689B
:1015500000F00C00082860D0E069022848D1002083
:1015600020490866FFF792FB054606E0FFF78EFB71
:10157000401B022801D903203AE61948006800F010
:1015800000700028F2D1206AB0F5803F07D11448DE
:10159000406820F40030A168084311494860D4E94C
:1015A000080108430E49496821F4741108430C49A5
:1015B000486001200B490866FFF768FB054607E015
:1015C0003DE0FFF763FB401B022801D903200FE633
:1015D0000348006800F000700028F2D02FE00000FF
:1015E000001002400000424280044242007000406D
:1015F000002014490866FFF749FB054606E0FFF79F
:1016000045FB401B022801D90320F1E50E48006884
:1016100000F000700028F2D111E0E069012800D14B
:10162000E6E50948466806F48031206A814204D123
:1016300006F47011606A814201D00120D8E50020D3
:10164000D6E50000000042420010024070B504469A
:101650002546681EB0F1807F01D301200FE0681E8F
:101660004FF0E02148610F214FF0FF3001F052FAB6
:1016700000204FF0E021886107200861002070BD44
:101680007047704710B5024600BF92F83C00012831
:1016900001D1022010BD012082F83C0000BF0220D1
:1016A00082F83D00106843681068846823F0700376
:1016B0000868034324F080044868044310684360CA
:1016C00010688460012082F83D0000BF002082F88D
:1016D0003C0000BF00BFDDE710B504460CB9012097
:1016E00010BD94F83D0028B9002084F83C00204645
:1016F00000F00CF8022084F83D00211D206800F065
:10170000B5FF012084F83D000020E9E710B586B060
:101710000446002002900390049005902068B0F1E8
:10172000804F39D100BF2A48C06940F001002849E4
:10173000C8610846C06900F00100019000BF00BF09
:1017400000BF0846806940F004008861084680694F
:1017500000F00400019000BF00BF4FF40040029071
:10176000002003900120049002A91A48FFF7F0F826
:1017700000BF1949486820F4407040F0E06040F430
:101780008070486000BF002211461C20FFF720FB3C
:101790001C20FFF70DFB19E010492068884215D185
:1017A00000BF0B48C06940F004000949C861084601
:1017B000C06900F00400019000BF00BF00220121B9
:1017C0001E20FFF705FB1E20FFF7F2FA06B010BD42
:1017D00000100240000801400000014000080040E5
:1017E00001460868C06840F001000B68D8600868CE
:1017F000806800F00702062A05D00868006840F0FB
:1018000001000B681860002070472DE9F041044684
:101810000D4600BF94F83C00012802D10220BDE82B
:10182000F081012084F83C0000BF022084F83D00D4
:101830002068866826F0770626F47F462068866052
:101840002868502833D00CDC202850D004DC002835
:101850004BD0102851D149E0302849D040284CD1F4
:1018600039E060282DD0702807D0B0F5805F03D014
:10187000B0F5005F41D10DE040E0D5E902136A68A0
:10188000206800F03EFF2068866846F077062068F2
:10189000866033E0D5E902136A68206800F031FF02
:1018A0002068806840F480402168886026E0EA680B
:1018B0006968206800F0F6FF5021206800F02CFFD6
:1018C0001CE0EA686968206801F034F8602120684B
:1018D00000F022FF12E0EA686968206800F0E2FF89
:1018E0004021206800F018FF08E000BF00BF00BFE3
:1018F0002968206800F010FF00E000BF00BF012051
:1019000084F83D0000BF002084F83C0000BF00BF09
:1019100085E710B504462068B0F1804F04D1207FE0
:10192000012801D100F05CFD2068B0F1804F04D1A6
:10193000207F022801D1FEF7F5FC10BD2DE9F04112
:1019400004460D46164600BF94F83C00012802D11B
:101950000220BDE8F081012084F83C0000BF022095
:1019600084F83D0096B9EB68D5E90012206800F0D4
:10197000ADFF2068806920F00C0021688861206834
:101980008069A9680843216888613DE0042E13D16D
:10199000EB68D5E90012206800F0E0FF206880695C
:1019A00020F440602168886120688069A96840EA65
:1019B00001202168886127E0082E12D1EB68D5E963
:1019C0000012206800F0E7FF2068C06920F00C00DA
:1019D0002168C8612068C069A96808432168C86196
:1019E00012E0EB68D5E90012206800F0F0FF2068F3
:1019F000C06920F440602168C8612068C069A96896
:101A000040EA01202168C861012084F83D0000BF40
:101A1000002084F83C0000BF00BF9AE710B50446E0
:101A20000CB9012010BD94F83D0028B9002084F8BD
:101A30003C00204600F00CF8022084F83D00211DF7
:101A4000206800F013FE012084F83D000020E9E743
:101A5000704770B504460D4635B1042D0BD0082DE6
:101A600010D00C2D1CD114E02068C06840F002009A
:101A70002168C86015E02068C06840F00400216853
:101A8000C8600EE02068C06840F008002168C860A7
:101A900007E02068C06840F010002168C86000E0DE
:101AA00000BF00BF01222946206800F019FE20680F
:101AB000806800F00706062E05D02068006840F018
:101AC000010021680860002070BD10B50446206840
:101AD0000069C0F34000D8B12068C068C0F340007E
:101AE000B0B16FF002002168086101202077206802
:101AF000806900F0030018B12046FFF70AFF05E0F7
:101B0000204600F0E7F8204600F0E2F900202077B8
:101B100020680069C0F38000D8B12068C068C0F3B5
:101B20008000B0B16FF004002168086102202077C6
:101B30002068806900F4407018B12046FFF7E9FE84
:101B400005E0204600F0C6F8204600F0C1F900206C
:101B5000207720680069C0F3C000D8B12068C06851
:101B6000C0F3C000B0B16FF0080021680861042024
:101B700020772068C06900F0030018B12046FFF705
:101B8000C8FE05E0204600F0A5F8204600F0A0F9C8
:101B90000020207720680069C0F30010D8B12068C9
:101BA000C068C0F30010B0B16FF010002168086188
:101BB000082020772068C06900F4407018B12046E2
:101BC000FFF7A7FE05E0204600F084F8204600F06D
:101BD0007FF9002020772068006900F0010058B1EB
:101BE0002068C06800F0010030B16FF0010021688A
:101BF0000861204600F06DF920680069C0F3C0104C
:101C000058B12068C068C0F3C01030B16FF08000D8
:101C1000216808612046FFF733FD20680069C0F3A2
:101C2000801058B12068C068C0F3801030B16FF0E8
:101C3000400021680861204600F06DF920680069C5
:101C4000C0F3401058B12068C068C0F3401030B1F4
:101C50006FF02000216808612046FFF712FD10BDDB
:101C600070B504460E46154600BF94F83C000128A6
:101C700001D1022070BD012084F83C0000BF022089
:101C800084F83D0035B1042D09D0082D0CD00C2D61
:101C900014D10EE03146206800F048FD0FE03146D7
:101CA000206800F073FD0AE03146206800F0A2FDD4
:101CB00005E03146206800F0D1FD00E000BF00BF24
:101CC000012084F83D0000BF002084F83C0000BFE4
:101CD00000BFCFE710B504462068B0F1804F08D1AF
:101CE000207F042805D11448C07810B9022000F0E4
:101CF000AFFE2068B0F1804F08D1207F082805D1C1
:101D00000D48C07810B9032000F0A2FE0B492068EE
:101D1000884205D1207F012802D1002000F098FEE2
:101D200006492068884205D1207F022802D101207F
:101D300000F08EFE10BD00001001002000080040E1
:101D400010B504460CB9012010BD94F83D0028B927
:101D5000002084F83C00204600F00CF8022084F8B3
:101D60003D00211D206800F081FC012084F83D0029
:101D70000020E9E77047000070B504460D4635B114
:101D8000042D0BD0082D10D00C2D1CD114E0206890
:101D9000C06840F002002168C86015E02068C06893
:101DA00040F004002168C8600EE02068C06840F080
:101DB00008002168C86007E02068C06840F0100093
:101DC0002168C86000E000BF00BF012229462068EA
:101DD00000F086FC0D492068884201D1012000E016
:101DE000002028B12068406C40F40040216848641D
:101DF0002068806800F00706062E05D0206800687D
:101E000040F0010021680860002070BD002C0140F6
:101E100030B504460D4635B1042D0BD0082D10D039
:101E20000C2D1CD114E02068C06820F0020021684D
:101E3000C86015E02068C06820F004002168C86010
:101E40000EE02068C06820F008002168C86007E044
:101E50002068C06820F010002168C86000E000BF62
:101E600000BF00222946206800F03AFC174920688C
:101E7000884201D1012000E0002090B100BF20681D
:101E8000006A41F21111084050B92068006A8910B7
:101E9000084028B92068406C20F40040216848645C
:101EA00000BF00BF2068006A41F21111084050B91C
:101EB0002068006A8910084028B92068006820F06E
:101EC00001002168086000BF002030BD002C0140E7
:101ED000704700B502461068B0F1804F01D100F0A4
:101EE000AFFD00BD0246002031B1042907D008290A
:101EF00008D00C290CD108E01368586B09E013686E
:101F0000986B06E01368D86B03E01368186C00E068
:101F100000BF00BF7047704700BFFEE710B5044622
:101F2000054AA2F11801204600F00AF8034908709A
:101F30000846007810BD00001E0000203C00002074
:101F40002DE9F04107460C4616463B460B22002180
:101F5000204600F002FE0546681CA8B1305C715DA9
:101F6000401A34F81510791A4843691C34F81110D6
:101F700034F81520891A90FBF1F0715D084400F0E7
:101F8000FF084046BDE8F0812088B84201DD307886
:101F9000F8E7E08AB84201DAF07AF3E7FF20F1E7E8
:101FA0000EB500200090019002901248124908607E
:101FB000002111488160017301754FF46021C161F6
:101FC00000200D49486001210B480161FEF71AFB12
:101FD00008B1FEF71DF900200090012001900020BB
:101FE000029069460448FEF7CBF908B1FEF710F9F4
:101FF0000EBD0000002401406000002000B585B047
:102000000020019002900390049000BF484880692E
:1020100040F01000464988610846806900F01000D1
:10202000009000BF00BF00BF0846806940F020005C
:1020300088610846806900F02000009000BF00BF62
:1020400000BF0846806940F0040088610846806946
:1020500000F00400009000BF00BF00BF0846806988
:1020600040F0080088610846806900F00800009090
:1020700000BF00BF00224FF400512E48FEF7FFFDC5
:10208000002241F6FC712C48FEF7F9FD00224FF6C4
:10209000FF712A48FEF7F3FD4FF400500190012034
:1020A0000290002003900320049001A92148FEF72C
:1020B0004FFC4FF44040019000200290039001A992
:1020C0001C48FEF745FC44200190012002900020AE
:1020D00003900320049001A91748FEF739FC41F64C
:1020E000B87001900120029000200390022004901B
:1020F00001A91148FEF72CFC032001900120029059
:10210000002003900320049001A90C48FEF720FC56
:102110004FF6FC70019001200290002003900220F5
:10212000049001A90548FEF713FC05B000BD0000AE
:10213000001002400010014000080140000C014066
:1021400000B591B000200D900E900F9010900B9064
:102150000C900790089009900A901C216846FDF7A2
:10216000E8FF4FF080403449086037204860002184
:10217000314881604FF6FF71C160002101618161CA
:10218000FFF7AAFA08B1FEF743F84FF480500D901C
:102190000DA92948FFF739FB08B1FEF739F82648A1
:1021A000FFF73CFC08B1FEF733F82348FFF7C8FD02
:1021B00008B1FEF72DF800200B900C900BA91E48DB
:1021C000FFF760FA08B1FEF723F80020079001201E
:1021D00008900020099003200A90002207A91648C1
:1021E000FFF7ACFB08B1FEF713F802200790089048
:1021F00000200A90042207A90F48FFF79FFB08B1AF
:10220000FEF706F8102000900020019002200290B6
:1022100000200490082269460748FFF721FD08B115
:10222000FDF7F6FF0C2269460348FFF719FD08B1D8
:10223000FDF7EEFF11B000BD9000002000B58DB09D
:10224000002009900A900B900C90079008901C2198
:102250006846FDF76EFF2348234908603720486031
:102260000021214881604FF6FF71C16000210161AA
:102270008161FFF731FA08B1FDF7CAFF4FF48050D2
:10228000099009A91848FFF7C0FA08B1FDF7C0FF87
:102290001548FFF755FD08B1FDF7BAFF002007907C
:1022A000089007A91048FFF7EDF908B1FDF7B0FF56
:1022B0001020009000200190022002900020049045
:1022C000002269460848FFF7CBFC08B1FDF7A0FFE4
:1022D000042269460448FFF7C3FC08B1FDF798FFE4
:1022E0000DB000BD00080040D000002000BFFEE798
:1022F000704710B5FEF7C0FD10BD7047F8B5064633
:102300000F4614461D46FEF7C1FC009014F8350038
:1023100038B90098304404EBC5014860012004F846
:10232000350004EBC50040680099884203D80020BE
:1023300004F83500B847F8BD0548806805490968C4
:1023400008444008034908600846006870470000D8
:10235000100100203800002010B50E4800690E4919
:102360000968486300210C48FFF706FD0121094870
:102370000175806908490968886304210648FFF7E8
:10238000FBFC0121034801770020034909684862EA
:1023900010BD000054010020D0000020002003499F
:1023A000096848620249C870704700009000002028
:1023B0001001002008B508490968C9084FF47A726D
:1023C000B1FBF2F14143009100BF00BF00994A1EEA
:1023D00000920029F9D108BD5C0000207047000080
:1023E00010B500F029F800211048FFF77BFD1049D7
:1023F00088600846C078087308464068401C4860FA
:1024000000F05EFBFFF7CAFF0948007828B90848CA
:10241000407810B9FDF7FEFE07E008210348FFF7FA
:10242000F7FC0C210148FFF7F3FC10BD90000020E1
:10243000100100207047000010B540210148FEF750
:1024400017FC10BD0008014010B50446012C05D151
:10245000012240210448FEF712FC04E00022402142
:102460000148FEF70CFC10BD000C014010B54FF404
:1024700000510248FEF7FCFB10BD000000100140B7
:1024800010B50446012C05D1012204210448FEF7B1
:10249000F6FB04E0002204210148FEF7F0FB10BD2A
:1024A0000008014000B529488168007B01EB00402D
:1024B00026498860084680682549B1FBF0F0234929
:1024C00008820846007B00283CD10870FFF734FFE3
:1024D0001E49486108468169407B01EB00401B4969
:1024E0008861084680698009C861088AFFF716FD7F
:1024F000164981F820000846C06991F82010484329
:10250000144908600846006800F21D50124908602E
:1025100040F63A201149086041F203701049086002
:102520000C48008880B20F4908600B48008880B2D0
:1025300088600A48008880B208610948008880B233
:10254000886102E001200149087000BD10010020EF
:102550002F82AE04400000204400002048000020EC
:102560004C0000203401002010B5FEF795FB10BD93
:1025700000B593B0282109A8FDF7DBFD142104A8BC
:10258000FDF7D7FD002000900190029003900120FC
:10259000099000040A9000200B9001200D90022069
:1025A0001090C10311914FF4E011129109A8FEF7A8
:1025B0001BFE08B1FDF72CFE0F20049002200590B1
:1025C000002006904FF480600790002008900221C0
:1025D00004A8FEF7F9FC08B1FDF71AFE02200090EE
:1025E000800302906846FEF757FC08B1FDF710FE25
:1025F00013B000BD1148006840F001000F490860A9
:10260000084640680E4908400C4948600846006882
:102610000C490840094908600846006820F48020F9
:1026200008600846406820F4FE0048604FF41F0030
:102630008860C80304490860704700000010024029
:102640000000FFF8FFFFF6FE08ED00E010B50248BD
:10265000FFF73BFA10BD00009000002010B50248C3
:10266000FFF733FA10BD0000D000002010B502685B
:10267000184B984208D0B0F1804F05D0164B9842C5
:1026800002D0164B984203D122F070024B681A43D5
:10269000104B984208D0B0F1804F05D00E4B9842B5
:1026A00002D00E4B984203D122F44072CB681A43F9
:1026B00022F080034C6943EA040202608B68C36223
:1026C0000B688362034B984201D10B6903630123BA
:1026D000436110BD002C0140000400400008004090
:1026E00030B501F01F05012404FA05F3046A9C4388
:1026F0000462046A01F01F0502FA05F52C43046226
:1027000030BD30B50C46816821F47F4142EA032593
:1027100025432943816030BD0A46816821F070015C
:1027200042F00703194381607047000030B5056A25
:1027300025F001050562026A4368846924F070048B
:1027400024F003040D682C4322F002028D682A4312
:102750000D4DA84206D100BF22F00802CD682A43E1
:1027600022F00402084DA84207D123F4807323F419
:1027700000734D692B438D692B43436084614D6821
:102780004563026230BD0000002C014030B5056A8F
:1027900025F010050562026A4368846924F4E04468
:1027A00024F440740D6844EA052422F020028D6868
:1027B00042EA05120E4DA84207D100BF22F0800266
:1027C000CD6842EA051222F04002094DA84209D123
:1027D00023F4806323F400634D6943EA85038D6924
:1027E00043EA8503436084614D688563026230BDBE
:1027F000002C014030B5056A25F480750562026A37
:102800004368C46924F0700424F003040D682C4369
:1028100022F400728D6842EA05220F4DA84207D1CA
:1028200000BF22F40062CD6842EA052222F48062F1
:10283000094DA84209D123F4805323F400534D6974
:1028400043EA05138D6943EA05134360C4614D688B
:10285000C563026230BD0000002C014030B5056A3E
:1028600025F480550562036A4468C26922F4E04297
:1028700022F440720D6842EA052223F400538D6869
:1028800043EA0533064DA84204D124F480444D693F
:1028900044EA85144460C2614D680564036230BD3A
:1028A000002C014030B50B461446026A056A25F03B
:1028B00001050562816921F0F00141EA041122F06D
:1028C0000A021A438161026230BD000070B50C46F5
:1028D0001546066A26F0010606628169026A124EF2
:1028E000B04208D0B0F1804F05D0104EB04202D0B7
:1028F0000F4EB04201D1012600E000261EB121F0AA
:102900000301294301E041F0010121F0F001F0262B
:1029100006EA0316314322F00A0204F00A063243A3
:102920008161026270BD0000002C01400004004083
:102930000008004030B50B461446056A25F0100526
:1029400005628169026A21F4704141EA043122F092
:10295000A00242EA03128161026230BD70B50C46EA
:102960001546066A26F0100606628169026A21F49D
:10297000407141EA052121F470414FF4704606EAA6
:102980000336314322F0A002A02606EA04163243A1
:102990008161026270BD70B50C461546066A26F468
:1029A00080760662C169026A21F00301294321F0A1
:1029B000F001F02606EA0316314322F400724FF4C8
:1029C000007606EA04263243C161026270BD70B52A
:1029D0000C461546066A26F480560662C169026AEC
:1029E00021F4407141EA052121F470414FF4704611
:1029F00006EA0336314322F400524FF4005606EA49
:102A000004363243C161026270BD10B5FFF72EFD7E
:102A100010BD704700B5FDF7DDFB0748008A074988
:102A20000988884203DD01200349487002E0002044
:102A30000149487000BD0000100100200400002082
:102A40000248C078401C0149C8707047100100203E
:102A500010B5044634B1012C0BD0022C18D0032C35
:102A600026D11EE00120FFF7EFFC0221124801757C
:102A70001FE00020FFF7E8FC02210F48017700214A
:102A80000E48FFF7C5F904210C48FFF7C1F910E023
:102A90000120FFF7F5FC022007490871FFF75CFCF5
:102AA00007E00020FFF7ECFC02210348017300E07F
:102AB00000BF00BF10BD000054010020D000002066
:102AC0000D4800680D490860002008710A488068B8
:102AD00088600021094801730748006907490861B7
:102AE0000021064801750448806904498861002175
:102AF0000248017770470000340100205401002093
:102B000000BFFEE702480068C0F3022070470000E3
:102B10000CED00E010B5002804DB0A07130E054A8F
:102B2000135406E00A07140E034A00F00F031B1F9C
:102B3000D45410BD00E400E018ED00E002E008C845
:102B4000121F08C1002AFAD170477047002001E027
:102B500001C1121F002AFBD1704770B504460D4613
:102B600019E0501B00EBD07605EB6606F1B234F8A5
:102B70001100984206DC481C34F81000984201DB32
:102B800048B270BD34F81100984202DA481CC5B250
:102B900001E0481EC2B29542E3DD4FF0FF30F0E79E
:102BA000FEF786F8FFF7E4FCFFF728FAFFF7F8F9DD
:102BB000FFF7C6FAFFF742FB00211748FEF749FF6F
:102BC00004211548FEF745FF1348FEF709FE134898
:102BD000FEF706FE1FE012488078012807D1FFF7B4
:102BE00061FC0F48008A0E49C881002088700023CC
:102BF0000C4A0D496420FFF781FB0123094A0B4968
:102C00004FF4FA70FFF77AFB0223064A084941F2B3
:102C10008830FFF773FBDEE790000020D000002033
:102C200010010020740100200B2A0008132A00085C
:102C3000152A000800000000000000000102030443
:102C40000607080900000000010203046C2C0008BC
:102C500000000020600000003C2B0008CC2C000885
:102C600060000020500500004C2B00080000000010
:102C7000983AB004D007B80BAC0D941188137017B4
:102C8000581B401F2823E02E983A20202020202087
:102C90002020202020200000010000000000000073
:102CA0000000000000000000000000000000000024
:102CB0000000000000000000000000000000000014
:0C2CC00010000000010000000024F400DF
:04000005080000ED02
:00000001FF
