:020000040800F2
:100000004008002005010008DD3700088F32000895
:10001000D9370008C9030008BD46000800000000E9
:10002000000000000000000000000000A5390008EA
:100030009904000800000000E7370008693C000848
:100040001F010008DF3700081F0100081F0100081A
:1000500057050008F13800081F0100081F010008BB
:100060001F0100081F0100081F0100083D040008CF
:100070001F0100081F0100084D0400085D0400086E
:100080001F0100081F010008BD0100081F01000832
:100090001F0100081F0100081F0100089B04000841
:1000A0001F0100081F0100081F0100081F010008B0
:1000B000553D00081F010008653D00081F010008AC
:1000C0001F0100081F0100081F0100081F01000890
:1000D0001F010008AD4600081F0100081F010008AD
:1000E0001F0100081F0100081F010008DFF810D0E1
:1000F00000F052F800480047A54A0008AFF300801E
:10010000400800200648804706480047FEE7FEE713
:10011000FEE7FEE7FEE7FEE7FEE7FEE7FEE7FEE7B7
:10012000FD3C0008ED000008202A04DB203A21FAFB
:1001300002F00021704721FA02F3D040C2F1200200
:100140009140084319467047D2B201E000F8012BF4
:10015000491EFBD270470022F6E710B513460A4647
:1001600004461946FFF7F0FF204610BD30B50B4698
:10017000014600202022012409E021FA02F59D42D7
:1001800005D303FA02F5491B04FA02F52844151EAB
:10019000A2F10102F1DC30BD064C074D06E0E0683B
:1001A00040F0010394E8070098471034AC42F6D3BE
:1001B000FFF7A0FF585200087852000810B5024817
:1001C00000F0CDFB10BD00004002002070B50446D9
:1001D00000252068806800F0010018B3206880685E
:1001E00020F001002168886001F02EFB054613E035
:1001F00001F02AFB401B02280ED92068806800F01D
:10020000010048B1A06A40F01000A062E06A40F02E
:100210000100E062012070BD2068806800F00100EC
:100220000028E5D10020F6E770B505466C6AA06AA3
:1002300000F05000E0B9A06A40F40070A0622068AD
:10024000806800F46020B0F5602F0DD1207B58B994
:10025000A06A20F48070A062A06A00F4805018B9EF
:10026000A06A40F00100A062204600F075FB03E0A8
:10027000206A016B2846884770BD70B505466C6AD8
:10028000A06A40F04000A062E06A40F00400E06232
:10029000204600F063FB70BD70B50446656A2846D1
:1002A00000F05BFB70BD000038B50446002500205F
:1002B00000902068806800F0010078BB20688068AA
:1002C00040F0010021688860194800681949B0FBB6
:1002D000F1F0009002E00098401E00900098002885
:1002E000F9D101F0B1FA054619E001F0ADFA401B71
:1002F000022814D92068806800F0010078B9A06A4B
:1003000040F01000A062E06A40F00100E06200BF2F
:10031000002084F8240000BF012038BD05E02068DB
:10032000806800F001000028DFD00020F5E7000021
:100330008C00002040420F0010B50E4880880E4906
:1003400008800A4611885088642200F0DFF90A49C3
:1003500048800846408840F25B11484300EB80101B
:10036000C0EBC000054990FBF1F0001D0249087187
:1003700010BD0000C0010020D0010020187C3E000C
:1003800010B503F0F7FE10BD10B50D4880890D497A
:10039000C8800A46D1881089502200F0B7F909496F
:1003A00008810846C0884FF4A571484340F6FF71A4
:1003B00090FBF1F0C0F1AF000249887210BD00005F
:1003C000C0010020D001002000BFFEE7002001494D
:1003D0000871704700000020024909798143014AF1
:1003E0001171704700000020114840881149498868
:1003F000884206DD01200E4981F835000E4908705B
:1004000015E00D48007820B90020094981F8350031
:100410000DE00748418807484088A0F59670814262
:1004200005D20020024981F8350003490870704761
:10043000D4000020A80000206400002010B502486D
:1004400000F066FD10BD00007002002010B50248EB
:1004500000F05EFD10BD0000D803002010B502487A
:1004600000F056FD10BD00009403002030B590F858
:1004700040500124AC40C56B6C6004686360446804
:10048000102C04D10468A2600468E16003E00468F1
:10049000A1600468E26030BD704710B54FF4007091
:1004A00001F024F810BD000010B50A4800890A497F
:1004B00088810A469189D089642200F027F906498B
:1004C000C8818889054A064904F0AEFA02490874D1
:1004D00010BD0000C0010020D00100202C00002031
:1004E000140000201848007838B9184800691849E5
:1004F000086001201449087025E014480069144977
:10050000096888421CD100201049088048808880F2
:10051000C8800881C860086148618861C861086254
:100520004862886281F82C00086381F8340081F801
:10053000350081F83600886381F83C0081F83D0081
:10054000002001490870704778000020D400002086
:100550007C000020704710B500F08AFE10BD00003E
:100560000021074AD1610749096941F00401054AA0
:1005700011611146096941F04001116170470000A5
:1005800020040020002002400021074AD1610749D1
:10059000096941F00201054A116111464861096982
:1005A00041F040011161704720040020002002400A
:1005B0000022054BDA61054A126942F00102034B41
:1005C0001A610180704700002004002000200240D2
:1005D00000201E49C96801F0100139B11C49C969E0
:1005E00041F002011A4AD16140F010001749C96870
:1005F00001F0040139B11649C96941F00101144AF9
:10060000D16140F004001149C96901F0010169B1EB
:100610000F49C96941F004010D4AD16100BF0B497E
:10062000C96921F00101094AD16100BF00BF40F250
:100630000111884206D10549C96921F00101034A27
:10064000D16101E00149C86000BF7047002002404D
:100650002004002070B5044601F0F6F8054609E0D4
:10066000601C38B124B101F0EFF8401BA04201D961
:10067000032070BD1248C06800F001000028EFD1CF
:100680000F48C06800F0200020B100BF20200C49B6
:10069000C86000BF0A48C06800F0100048B90848A8
:1006A000C06900F0010020B90548C06800F00400EE
:1006B00018B1FFF78DFF0120DBE70020D9E700002C
:1006C0000020024010B504210D4802F047FB0D49FF
:1006D00008620846806B81F83D000B48007828B915
:1006E000084690F8350008B903F09CF80548006901
:1006F000022803D30120034981F8360010BD000011
:10070000C0020020D40000200C02002030B50346B7
:100710005C1A02FB04F0FF2590FBF5F04418A0B230
:1007200030BD09E002680A600A68521C12B9002252
:100730000A6002E0001D091DF4E700BF70470000D9
:100740002DE9F84F04468846154600262F4600F04E
:10075000B3FE204600F036F8814604EB870A504687
:1007600000F030F883460020154908600846C0F8BC
:100770000890ABEB0900012101EB90201049C86003
:1007800069460F4800F014FD18B100F06BFDBDE89C
:10079000F88F0EE058F826C062460023214602205A
:1007A00000F032FE10B9241D761C02E000F05AFD64
:1007B000EDE7BE42EEDB00F01BFE0020E7E70000A5
:1007C00030020020024600210FE0481C800200F1A8
:1007D0000060904208D9880200F10060904203D87E
:1007E000880200F100607047491C8029EDDB4FF062
:1007F000FF30F8E77047000038B5024600230020BC
:10080000009000BF92F82400012801D1022038BDD9
:10081000012082F8240000BF4868072812D210681F
:10082000406B0C79641E04EB84051F24AC40A0438C
:100830000D796D1E05EB85050C68AC4020431468EE
:10084000606327E048680D2812D21068006B0C79AD
:10085000E41F04EB84051F24AC40A0430D79ED1F79
:1008600005EB85050C68AC4020431468206311E05B
:100870001068C06A0C790D3C04EB84051F24AC4061
:10088000A0430D790D3D05EB85050C68AC40204378
:100890001468E06208680A2812D31068C0680C78EF
:1008A0000A3C04EB44050724AC40A0430D780A3D04
:1008B00005EB45058C68AC4020431468E0600FE010
:1008C000106800690C7804EB44050724AC40A04391
:1008D0000D7805EB45058C68AC4020431468206119
:1008E0000868102802D00868112827D1174C106812
:1008F000A0421ED11068806800F40000F0B91068B2
:10090000806840F400001468A0600868102815D1C1
:100910000F4800680F4CB0FBF4F000EB8000400083
:10092000009002E00098401E009000980028F9D145
:1009300004E0906A40F020009062012300BF002094
:1009400082F8240000BF184661E70000002401403F
:100950008C00002040420F0070477047704710B570
:1009600004462068406800F0200020282FD120682D
:10097000006800F00200022829D1A06A00F01000EF
:1009800018B9A06A40F40070A0622068806800F482
:100990006020B0F5602F13D1207B88B920684068B3
:1009A00020F0200021684860A06A20F48070A062D6
:1009B000A06A00F4805018B9A06A40F00100A0625B
:1009C0002046FFF7C9FF6FF0120021680860206819
:1009D000406800F0800080283BD12068006800F06B
:1009E0000400042835D1A06A00F0100018B9A06AEC
:1009F00040F40050A0622068806800F4E040B0F548
:100A0000E04F0DD02068406800F48060D0B92068C5
:100A1000806800F46020B0F5602F13D1207B88B986
:100A20002068406820F0800021684860A06A20F4B7
:100A30008050A062A06A00F4807018B9A06A40F0EB
:100A40000100A0622046FFF7D5FE6FF00C00216880
:100A500008602068406800F0400040280FD12068FE
:100A6000006800F0010050B1A06A40F48030A0623C
:100A7000204600F0A7F86FF001002168086010BD63
:100A80002DE9F0410446002700250026A84614B9A8
:100A90000120BDE8F081A06810B1207D00B100BF49
:100AA000A06A30B90020E06284F82400204600F0FB
:100AB0008BF82046FFF78AFB0746A06A00F010007B
:100AC000002873D1002F71D1A06A20F4885040F023
:100AD0000200A062E16960680843217B40EA4100AE
:100AE0000643A068B0F5807F02D0A068012802D13B
:100AF0004FF4807000E000200543207D012811D1D3
:100B0000207B38B9A069401E4FF4006141EA4030B3
:100B1000054307E0A06A40F02000A062E06A40F0D0
:100B20000100E0622068406820F4694028432168A1
:100B30004860206880682149084030432168886007
:100B4000A068B0F5807F02D0A068012802D14FF4E0
:100B5000807000E00020B0F5807F03D1208A401E25
:100B60004FEA00582068C06A20F4700040EA08008C
:100B70002168C8622068806811490840B04208D1E5
:100B80000020E062A06A20F0020040F00100A062B4
:100B900011E0A06A20F0020040F01000A062E06ABC
:100BA00040F00100E062012705E0FFE7A06A40F0A5
:100BB0001000A062012738466BE70000FDF7E1FF57
:100BC000FE0E1FFF7047000010B586B004460020DF
:100BD000029003900490059026492068884246D1EF
:100BE00000BF2548806940F40070234988610846A9
:100BF000806900F40070019000BF00BF00BF08468C
:100C0000806940F0040088610846806900F00400B3
:100C1000019000BF00BF382002900320039002A97A
:100C2000164800F071FC164816490860002048601C
:100C30000021144881608021C16089000161890020
:100C40004161202181610021C16100F02FFA08B1CA
:100C5000FFF780FC00BF0B482062446200BF002207
:100C60001146122000F0C2FE122000F0AFFE06B0C6
:100C700010BD0000002401400010024000080140A7
:100C800008000240700200202DE9F04104460D46A4
:100C90001646002757492068884203D056492068E5
:100CA000884205D15348001D006800F4702000E020
:100CB000002000287ED100BF94F82400012802D132
:100CC0000220BDE8F081012084F8240000BF204606
:100CD000FFF7EAFA0746002F6DD1A06A40F60161DE
:100CE000884340F48070A06243492068884209D15B
:100CF0004048001D006800F4702008B9012002E09F
:100D0000002000E0012078B1A06A20F48010A062E9
:100D10002068406800F4806000B3A06A20F40050AE
:100D200040F48050A06219E0A06A40F48010A062F4
:100D300030492068884203D02F492068884205D175
:100D40002C48001D006800F4806000E0002028B1FD
:100D5000A06A20F4005040F48050A062A06A00F421
:100D6000805020B1E06A20F00600E06201E000203F
:100D7000E06200BF002084F8240000BF1F48216A01
:100D800088621F48216AC8621E48216A08636FF0A2
:100D90000200216808602068806840F48070216843
:100DA0008860226802F14C0133462A46206A00F02E
:100DB000B1F901E01AE014E02068806800F46020D6
:100DC000B0F5602F06D12068806840F4A00021684B
:100DD00088600CE02068806840F48010216888609A
:100DE00005E000BF002084F8240000E00127384619
:100DF00067E70000002401400028014029020008A4
:100E0000990200087B0200080146002291F82100A7
:100E1000022808D00420886300BF002081F8200049
:100E200000BF012070470868006820F00E000B68C2
:100E300018600868006820F001000B68186091F8DD
:100E4000403001209840CB6B5860012081F8210090
:100E500000BF002081F8200000BF1046E2E700003C
:100E600070B50446002594F82100022803D0042020
:100E7000A063012548E02068006820F00E0021688A
:100E800008602068006820F00100216808601F49A0
:100E90002068884201D1012026E01C4914312068D5
:100EA000884201D110201FE018492831206888426B
:100EB00001D1801518E015493C312068884201D1E4
:100EC000801411E0114950312068884202D14FF45A
:100ED000803009E00D4964312068884202D14FF426
:100EE000801001E04FF08070084908394860012007
:100EF00084F8210000BF002084F8200000BF606B50
:100F000010B12046616B8847284670BD080002403A
:100F100070B50446E06B05682068066894F84010D8
:100F2000042088402840002846D006F0040000280D
:100F300042D02068006800F0200028B920680068CE
:100F400020F004002168086057492068884201D1D8
:100F5000042027E0544914312068884201D1402000
:100F600020E0514928312068884201D1001519E05C
:100F70004D493C312068884202D14FF4804011E055
:100F8000494950312068884202D14FF4802009E05D
:100F9000454964312068884202D14FF4800001E065
:100FA0004FF08060404908394860E06A00287AD0F4
:100FB0002046E16A884776E094F840100220884095
:100FC0002840A0B306F0020088B32068006800F053
:100FD000200040B92068006820F00A0021680860FD
:100FE000012084F8210030492068884201D1022084
:100FF00028E02D4914312068884201D1202021E0C9
:10100000294928312068884201D140151AE0264933
:101010003C312068884202D14FF4005012E022494E
:1010200050312068884203D14FF400300AE017E0C5
:101030001D4964312068884202D14FF4001001E05C
:101040004FF0007018490839486000BF002084F84C
:10105000200000BFA06A30B32046A16A884722E082
:1010600094F84010082088402840E0B106F00800BD
:10107000C8B12068006820F00E002168086094F86C
:10108000401001208840E16B48600120A06384F893
:10109000210000BF002084F8200000BF206B10B1A9
:1010A0002046216B884770BD08000240014600229F
:1010B00009B901207047164B0868C01A1423B0FB09
:1010C000F3F08000086412480838C863022081F8F1
:1010D00021000868026843F6F0708243D1E90103F9
:1010E0001843CB6818430B6918434B6918438B6945
:1010F0001843CB69184302430868026000208863E4
:10110000012081F82100002081F8200000BFD1E7F4
:10111000080002402DE9F04104460D4616461F46E0
:101120004FF0000800BF94F82000012802D10220EF
:10113000BDE8F081012084F8200000BF94F8210070
:1011400001282CD1022084F821000020A06320680F
:10115000006820F00100216808603B4632462946BD
:101160002046FFF783F9E06A30B12068006840F05C
:101170000E00216808600BE02068006820F0040081
:10118000216808602068006840F00A002168086053
:101190002068006840F001002168086006E000BF98
:1011A000002084F8200000BF4FF002084046BFE74F
:1011B0002DE9F04104460E460127002500BF2648D0
:1011C000007E012802D10220BDE8F08101202249E1
:1011D000087600BF2068022813D14CF25030FFF788
:1011E00039FA90BB0120FFF7BBF94CF25030FFF702
:1011F00031FA07461948006920F0040017490861D0
:1012000023E04CF25030FFF725FAF0B94FF0FF30F1
:101210003060A56812E02846FFF7B6F94CF250306E
:10122000FFF718FA07460D48006920F002000B4945
:1012300008610FB1356007E005F58065D4E902105B
:1012400001EB8020A842E6D800BF00BF0020024981
:10125000087600BF3846B7E720040020002002408F
:10126000704700000148C06970470000200400205A
:1012700010B500245C48C06800F0100020B95A483E
:10128000C06800F0040068B1584884684FF0FF302F
:1012900056498860FFF79CF9204600F0B3F800201B
:1012A000524908705048C06800F02000002828D03B
:1012B00000BF20204C49C86000BF4C48007800287F
:1012C0007ED04A480078012827D148484068401E0F
:1012D0004649486008464068A0B1084684682046F0
:1012E000FFF7BEFF4148806800F580643F48846096
:1012F0003D48006920F002003B4908612046FFF7A5
:1013000043F95DE04FF0FF30044638498860002023
:1013100008702046FFF7A4FF52E034480078022806
:101320000CD13148006920F004002F4908610020E9
:10133000FFF796FF00202D49087041E02B484068D8
:10134000401E2A49486008464068D8B1084680686F
:10135000801C88600846846808694969000C40EA76
:101360000140090C214A106151611F48006920F0B9
:1013700001001D4908611069526981B22046FFF7DA
:1013800017F91DE019480078032804D11749886827
:10139000FFF766FF0EE015480078042805D11349D1
:1013A0008968881EFFF75CFF04E010498968881F80
:1013B000FFF756FF4FF0FF300C498860002008709F
:1013C0000A48007878B90848006920F00700064903
:1013D00008610846006920F4A050086100BF0020A1
:1013E0000249087600BF10BD002002402004002002
:1013F0000348006940F080000149086100207047FF
:1014000000200240704700002DE9FE4F05468B4644
:1014100017469846012600240020029000BF244869
:10142000007E012802D10220BDE8FE8F0120204964
:10143000087600BF4CF25030FFF70CF9064686BB29
:10144000012D02D10120029006E0022D02D10220DE
:10145000029001E00420029000241EE02201B9461F
:10146000C24648465146FEF75FFE80B20190022018
:1014700000FB04B000900199FFF79AF84CF250304D
:10148000FFF7E8F806460B48006920F0010009491B
:10149000086106B104E0601CC4B202988442DDDB3E
:1014A00000BF00BF00200249087600BF3046BBE7FE
:1014B000200400200020024000200849096901F0B2
:1014C000800151B10649054A5160064951601146F3
:1014D000096901F0800101B101207047002002403C
:1014E00023016745AB89EFCD7047000010B5044676
:1014F00004480068204020B1024804602046FFF7FD
:10150000F3FF10BD140401402DE9F8470346002203
:1015100094466EE14FF0010808FA02F4D1F8008019
:1015200008EA0400A0427DD1DFF8DCA2D1F80480F3
:10153000A8EB0A09D0453AD014DCB8F1030F50D01B
:1015400009DCB8F1000F31D0B8F1010F1CD0B8F1AF
:10155000020F49D120E0B8F1110F18D0B8F1120FE5
:1015600042D11EE0B9F5881F25D006DCB9F5803FD1
:1015700020D0B9F5801F37D11AE0B9F5001F18D077
:10158000B9F5041F30D117E0D1F80CC02DE0D1F827
:101590000C8008F1040C28E0D1F80C8008F1080C4C
:1015A00023E0D1F80C8008F10C0C1EE000BF00BF56
:1015B00000BF00BF00BF00BFD1F80880B8F1000F26
:1015C00002D14FF0040C0BE0D1F80880B8F1010F04
:1015D00003D14FF0080C1C6102E04FF0080C5C6175
:1015E00003E04FF0000C00E000BF00BFFF2801D86F
:1015F000984601E003F104084646FF2802D84FEA66
:10160000820803E0A2F108084FEA88084746D6F8A6
:1016100000804FF00F0909FA07F928EA09080CFAC7
:1016200007F900E088E048EA0908C6F80080D1F828
:10163000048008F08058B8F1805F7DD100BFDFF8EA
:10164000CC81D8F8188048F00108DFF8C091C9F8BB
:101650001880C846D8F8188008F00108CDF8008036
:1016600000BF00BF4FEAB9384FEA920958F8295035
:101670004FEA82784FEA18794FF00F0808FA09F814
:1016800025EA0805DFF88881434502D14FF00008BC
:1016900016E0DFF88081434502D14FF001080FE0EA
:1016A000DFF87481434502D14FF0020808E0DFF80B
:1016B0006C81434502D14FF0030801E04FF004086C
:1016C0004FEA82794FEA197908FA09F848EA0505DC
:1016D000DFF84C814FEA920948F82950D1F804808C
:1016E00008F48038B8F5803F0AD1DFF83881D8F89F
:1016F000008048EA0008DFF82C91C9F8008009E072
:10170000DFF82081D8F8008028EA0008DFF814917B
:10171000C9F80080D1F8048008F40038B8F5003F1B
:1017200010D1DFF8008108F10408D8F8008048EAF9
:101730000008DFF8F09000E05AE009F10409C9F868
:1017400000800DE0DFF8DC8008F10408D8F80080A4
:1017500028EA0008DFF8CC9009F10409C9F80080F4
:10176000D1F8048008F48018B8F5801F0ED1DFF896
:10177000B48008F10808D8F8008048EA0008DFF8CB
:10178000A49009F10809C9F800800DE0DFF8948001
:1017900008F10808D8F8008028EA0008DFF88490EB
:1017A00009F10809C9F80080D1F8048008F400188C
:1017B000B8F5001F0ED1DFF86C8008F10C08D8F8DE
:1017C000008048EA0008DFF85C9009F10C09C9F8CC
:1017D00000800DE0DFF84C8008F10C08D8F800809C
:1017E00028EA0008DFF83C9009F10C09C9F80080EC
:1017F000521CD1F8008028FA02F8B8F1000F7FF4EB
:1018000089AEBDE8F887000000001110001002400A
:1018100000080140000C014000100140001401408C
:10182000080001400004014010B5C26821EA02032B
:1018300002EA010443EA0443036110BD0AB10161F5
:1018400001E00B0403617047014800687047000025
:101850008000002070B504460CB9012070BD4CF624
:10186000CC402168086045F2555021680860D4E9F1
:10187000001048602168A0688860FFF7E5FF054612
:101880000BE0FFF7E1FF401B272806D92068C0685E
:1018900000F0030008B10320E0E72068C06800F012
:1018A00003000028EDD14AF6AA2021680860002034
:1018B000D4E7000003480068034909780844014957
:1018C00008607047800000208800002010B508489C
:1018D000006840F0100006490860032000F0C4F8DA
:1018E000022000F007F800F02BF8002010BD0000E7
:1018F0000020024070B504460E4800784FF47A711B
:10190000B1FBF0F00C490968B1FBF0F5284600F096
:10191000D1FC08B1012070BD102C07D20022214655
:10192000501E00F063F80548046001E00120F2E772
:101930000020F0E7880000208C00002084000020B8
:1019400008B500BF1F48806940F001001D4988614B
:101950000846806900F00100009000BF00BF00BF92
:101960000846C06940F08050C8610846C06900F070
:101970008050009000BF00BF042000F075F80022E6
:101980001146012000F032F8012000F01FF800227B
:101990001146042000F02AF8042000F017F8002275
:1019A0001146052000F022F8052000F00FF800BFD6
:1019B0000549486820F0E06040F00070486000BFD2
:1019C00008BD00000010024000000140014608462A
:1019D000002809DB00F01F0301229A4043099B0005
:1019E00003F1E023C3F8002100BF70472DE9F05F49
:1019F00080460D461646002702F08AFE0746394605
:101A00002A46334601F00700C0F1070ABAF1040F75
:101A100002D94FF0040A01E0C0F1070AD14600F1F3
:101A2000040ABAF1070F02D24FF0000A01E0A0F158
:101A3000030AD4464FF0010A0AFA09FAAAF1010A88
:101A40000AEA020A0AFA0CFA4FF0010B0BFA0CFB35
:101A5000ABF1010B0BEA030B4AEA0B0421464046AB
:101A600002F05EFEBDE8F09F00BF00F00702064BEB
:101A700019684FF6FF031940044B0B4343EA022158
:101A8000014B196000BF70470CED00E00000FA0543
:101A90007047000010B50648006800F4803028B197
:101AA000FFF7F6FF4FF480300149086010BD0000D9
:101AB00014040140F8B5044600260025207800F003
:101AC000010000286BD000274348C06900F0805017
:101AD00070B900BF4048C06940F080503E49C861BD
:101AE0000846C06900F08050009000BF00BF012789
:101AF0003A48006800F48070B0B93848006840F493
:101B0000807036490860FFF79FFE064606E0FFF743
:101B10009BFE801B642801D90320F8BD2F48006874
:101B200000F480700028F2D02B48006A00F4407561
:101B30002DB3A08800F44070A84220D02648006A47
:101B400020F44075012026490860002008602248E2
:101B5000056205F0010090B1FFF776FE064608E049
:101B6000FFF772FE801B41F28831884201D90320C1
:101B7000D3E71948006A00F002000028F0D01648A8
:101B8000006A20F440706168084313490862012F1D
:101B900004D10846C06920F08050C86100BF207899
:101BA00000F00200022807D10B48406820F44040B2
:101BB000A168084308494860207800F01000102808
:101BC00007D10548406820F48000E16808430249D5
:101BD00048600020A1E700000010024000700040B3
:101BE0004004424270B504460D460CB9012070BD58
:101BF0005A48006800F00700A8420ED25748006813
:101C000020F007002843554908600846006800F0A6
:101C10000700A84201D00120E9E7207800F0020087
:101C200002281DD1207800F00400042805D14C487A
:101C3000406840F4E0604A494860207800F00800BD
:101C4000082805D14648406840F46050444948603F
:101C50004348406820F0F000A168084340494860CC
:101C6000207800F0010078B36068012806D13C4874
:101C7000006800F4003090B90120B8E760680228DD
:101C800006D13748006800F0007040B90120AEE787
:101C90003348006800F0020008B90120A7E7304887
:101CA000406820F00300616808432D494860FFF751
:101CB000CBFD064609E0FFF7C7FD801B41F28831E6
:101CC000884202D9032092E707E02548406800F0E7
:101CD0000C006168B0EB810FEDD12048006800F086
:101CE0000700A8420ED91D48006820F007002843CD
:101CF0001A4908600846006800F00700A84201D0B1
:101D0000012074E7207800F00400042807D114486B
:101D1000406820F4E060E168084311494860207899
:101D200000F00800082808D10D48406820F46050F1
:101D3000216940EAC1000A49486000F03FF80849BB
:101D40004968C1F30311074A515CC840064908605D
:101D500006480068FFF7CEFD002048E7002002405B
:101D600000100240FC5100088C000020840000207C
:101D700001480068704700008C00002000B5FFF7A4
:101D8000F7FF04494968C1F30221034A515CC84086
:101D900000BD0000001002400C52000800B5FFF723
:101DA000E7FF04494968C1F3C221034A515CC840B6
:101DB00000BD0000001002400C520008F0B585B0D4
:101DC0000FF26C0C9CE8E01001A8A0E8E0101CA544
:101DD0002D68009500210022002300240020194DC9
:101DE000696801F00C05F5B1042D02D0082D19D158
:101DF00001E0154819E001ADC1F38346AC5D01F483
:101E0000803555B10F4D6D68C5F340451DF805206F
:101E10000D4D6543B5FBF2F302E00C4D04FB05F3F9
:101E2000184602E000BF084800BF00BF05B0F0BD83
:101E300002030405060708090A0B0C0D0E0F10100B
:101E4000010200000010024000127A0000093D006B
:101E5000F8B504460CB90120F8BD207800F0010067
:101E6000002878D0F848406800F00C0004280CD016
:101E7000F548406800F00C00082811D1F24840688D
:101E800000F48030B0F5803F0AD1EF48006800F4DC
:101E9000003000285FD0606800285CD10120DBE7BB
:101EA00000BF6068B0F5803F06D1E748006840F4A5
:101EB0008030E549086028E0606858B9E248006869
:101EC00020F48030E04908600846006820F4802053
:101ED00008601AE06068B0F5A02F0BD1DA480068FE
:101EE00040F48020D84908600846006840F48030FB
:101EF00008600AE0D448006820F48030D2490860C5
:101F00000846006820F48020086000BF606888B13F
:101F1000FFF79AFC054606E0FFF796FC401B642895
:101F200001D9032098E7C848006800F40030002871
:101F3000F2D010E0FFF788FC054606E0FFF784FCCE
:101F4000401B642801D9032086E7BF48006800F4DD
:101F500000300028F2D1207800F00200022857D18A
:101F6000B948406800F00C0050B1B748406800F034
:101F70000C00082818D1B448406800F4803098B9A3
:101F8000B148006800F0020020B12069012801D0AA
:101F9000012061E7AC48006820F0F800616940EA80
:101FA000C100A949086033E02069E8B10120A749D0
:101FB0000860FFF749FC054606E0FFF745FC401BBB
:101FC000022801D9032047E79F48006800F002007B
:101FD0000028F2D09C48006820F0F800616940EACF
:101FE000C1009949086013E0002098490860FFF794
:101FF0002BFC054606E0FFF727FC401B022801D911
:10200000032029E79048006800F002000028F2D180
:10201000207800F0080008282DD1A069B8B101206F
:102020008B490860FFF710FC054606E0FFF70CFC43
:10203000401B022801D903200EE78348406A00F0C4
:1020400002000028F2D0012001F03EFC13E0002045
:102050007F490860FFF7F8FB054606E0FFF7F4FB51
:10206000401B022801D90320F6E67748406A00F0B9
:1020700002000028F2D1207800F00400042873D177
:1020800000277148C06900F0805070B900BF6E48E9
:10209000C06940F080506C49C8610846C06900F0D2
:1020A0008050009000BF00BF01276A48006800F41C
:1020B0008070B0B96748006840F480706549086076
:1020C000FFF7C2FB054606E0FFF7BEFB401B642896
:1020D00001D90320C0E65F48006800F48070002842
:1020E000F2D000BFE068012806D15748006A40F0EE
:1020F00001005549086227E0E06858B95248006A73
:1021000020F00100504908620846006A20F00400EF
:10211000086219E0E06805280BD14B48006A40F0DE
:102120000400494908620846006A40F0010008625C
:102130000AE04548006A20F0010043490862084669
:10214000006A20F00400086200BFE068A0B1FFF759
:102150007BFB054609E0FFF777FB401B41F2883126
:10216000884202D9032077E622E03748006A00F06F
:1021700002000028EFD012E0FFF766FB054608E0FA
:10218000FFF762FB401B41F28831884201D90320EE
:1021900062E62D48006A00F002000028F0D1012F0D
:1021A00005D12948C06920F080502749C86100BF87
:1021B000E069C8B32448406800F00C00082860D0EB
:1021C000E069022848D1002020490866FFF73CFB5F
:1021D000054606E0FFF738FB401B022801D9032023
:1021E0003AE61948006800F000700028F2D1206A31
:1021F000B0F5803F07D11448406820F40030A16852
:10220000084311494860D4E9080108430E49496868
:1022100021F4741108430C49486001200B490866F9
:10222000FFF712FB054607E03DE0FFF70DFB401B03
:10223000022801D903200FE60348006800F000706F
:102240000028F2D02FE000000010024000004242BF
:102250008004424200700040002014490866FFF7E5
:10226000F3FA054606E0FFF7EFFA401B022801D912
:102270000320F1E50E48006800F000700028F2D15C
:1022800011E0E069012800D1E6E50948466806F456
:102290008031206A814204D106F47011606A814263
:1022A00001D00120D8E50020D6E500000000424220
:1022B0000010024070B504462546681EB0F1807FCC
:1022C00001D301200FE0681E4FF0E02148610F218B
:1022D0004FF0FF3002F024FA00204FF0E021886137
:1022E00007200861002070BD7047704730B5024676
:1022F0000B4600BF92F83C00012801D1022030BDFE
:10230000012082F83C0000BF022082F83D001068E6
:1023100044681068816824F07004186804431068E9
:102320004460104D1068A8420BD01068B0F1804F87
:1023300007D00D4D1068A84203D00C4D1068A8427C
:1023400005D121F0800158680143106881600120A7
:1023500082F83D0000BF002082F83C0000BF00BFB3
:10236000CDE70000002C01400004004000080040C0
:1023700010B504460CB9012010BD94F83D0028B9F1
:10238000002084F83C00204600F026F8022084F863
:102390003D00211D206801F0EDFC012084F846007D
:1023A00000BF84F83E0001213F2001554020015527
:1023B0004120015500BF00BF012084F842004320A6
:1023C0000155442001554520015500BF012084F8E6
:1023D0003D000020D0E7000010B586B00446002084
:1023E00002900390049005902068B0F1804F38D19E
:1023F00000BF2A48C06940F001002849C86108466A
:10240000C06900F00100019000BF00BF00BF084696
:10241000806940F0040088610846806900F004008B
:10242000019000BF00BF4FF40040029000200390D5
:10243000049002A91A48FFF767F800BF19494868D5
:1024400020F4407040F0E06040F48070486000BFCD
:10245000002211461C20FFF7C9FA1C20FFF7B6FA2C
:1024600019E011492068884215D100BF0B48C069A6
:1024700040F004000949C8610846C06900F0040042
:10248000019000BF00BF002201211E20FFF7AEFA1D
:102490001E20FFF79BFA06B010BD0000001002409E
:1024A0000008014000000140000800402DE9F04113
:1024B00004460D4600BF94F83C00012802D10220DA
:1024C000BDE8F081012084F83C0000BF022084F8C0
:1024D0003D002068866826F0770626F47F4620684F
:1024E00086602868502833D00CDC202850D004DCCB
:1024F00000284BD0102851D149E0302849D040283D
:102500004CD139E060282DD0702807D0B0F5805F1D
:1025100003D0B0F5005F41D10DE040E0D5E90213F2
:102520006A68206801F071FC2068866846F07706CA
:102530002068866033E0D5E902136A68206801F0FC
:1025400064FC2068806840F480402168886026E050
:10255000EA686968206801F029FD5021206801F0CF
:102560005FFC1CE0EA686968206801F067FD602193
:10257000206801F055FC12E0EA686968206801F003
:1025800015FD4021206801F04BFC08E000BF00BFB2
:1025900000BF2968206801F043FC00E000BF00BFD5
:1025A000012084F83D0000BF002084F83C0000BFFB
:1025B00000BF85E710B504462068B0F1804F04D114
:1025C000207F012801D101F09FF92068B0F1804FF0
:1025D00004D1207F022801D1FEF774F810BD2DE947
:1025E000F04104460D46164600BF94F83C00012811
:1025F00002D10220BDE8F081012084F83C0000BF38
:1026000096B9EB68D5E90012206801F0E3FC206878
:10261000806920F00C002168886120688069A968C1
:102620000843216888613DE0042E13D1EB68D5E9A9
:102630000012206801F016FD2068806920F44060D7
:102640002168886120688069A96840EA01202168C2
:10265000886127E0082E12D1EB68D5E900122068C6
:1026600001F01DFD2068C06920F00C002168C861E0
:102670002068C069A96808432168C86112E0EB6856
:10268000D5E90012206801F026FD2068C06920F419
:1026900040602168C8612068C069A96840EA0120DB
:1026A0002168C86100BF002084F83C0000BF00BF63
:1026B000A0E710B504460CB9012010BD94F83D0008
:1026C00028B9002084F83C00204600F025F80220BC
:1026D00084F83D00211D206801F04CFB012084F8A6
:1026E000460000BF84F83E0001213F2001554020F4
:1026F00001554120015500BF00BF012084F8420070
:1027000043200155442001554520015500BF0120BB
:1027100084F83D000020D0E7704700002DE9F0412B
:1027200004460D4615B994F83E000BE0042D02D185
:102730003F20005D06E0082D02D14020005D01E051
:102740004120005D074615B994F842000BE0042DC6
:1027500002D14320005D06E0082D02D14420005D37
:1027600001E04520005D8046012F02D1B8F1010F44
:1027700002D00120BDE8F0811DB9022084F83E009E
:102780000EE0042D03D102213F20015508E0082D61
:1027900003D102214020015502E0022141200155D0
:1027A0001DB9022084F842000EE0042D03D102215D
:1027B0004320015508E0082D03D102214420015592
:1027C00002E002214520015535B1042D0BD0082D22
:1027D00010D00C2D1CD114E02068C06840F002001D
:1027E0002168C86015E02068C06840F004002168D6
:1027F000C8600EE02068C06840F008002168C8602A
:1028000007E02068C06840F010002168C86000E060
:1028100000BF00BF01222946206801F0E5FA1249F5
:10282000206888420BD02068B0F1804F07D00F4954
:102830002068884203D00E49206888420CD1206865
:10284000806800F00706062E0CD02068006840F073
:1028500001002168086005E02068006840F0010080
:1028600021680860002085E7002C0140000400403A
:102870000008004010B5044620680069C0F340001D
:10288000D8B12068C068C0F34000B0B16FF002005A
:1028900021680861012020772068806900F003002A
:1028A00018B12046FFF786FE05E0204600F0E2F86A
:1028B000204600F045FA0020207720680069C0F328
:1028C0008000D8B12068C068C0F38000B0B16FF05C
:1028D000040021680861022020772068806900F4E4
:1028E000407018B12046FFF765FE05E0204600F075
:1028F000C1F8204600F024FA002020772068006903
:10290000C0F3C000D8B12068C068C0F3C000B0B147
:102910006FF0080021680861042020772068C069F2
:1029200000F0030018B12046FFF744FE05E0204602
:1029300000F0A0F8204600F003FA0020207720687D
:102940000069C0F30010D8B12068C068C0F300105F
:10295000B0B16FF01000216808610820207720686E
:10296000C06900F4407018B12046FFF723FE05E06F
:10297000204600F07FF8204600F0E2F900202077A2
:102980002068006900F0010058B12068C06800F0BC
:10299000010030B16FF0010021680861204600F0AD
:1029A000D1F920680069C0F3C01058B12068C06830
:1029B000C0F3C01030B16FF080002168086120467C
:1029C000FFF792FC20680069C0F3801058B12068BE
:1029D000C068C0F3801030B16FF04000216808611A
:1029E000204600F0D4F920680069C0F3401058B1C7
:1029F0002068C068C0F3401030B16FF0200021683B
:102A000008612046FFF771FC10BD70B504460E4604
:102A1000154600BF94F83C00012801D1022070BD8A
:102A2000012084F83C0000BF35B1042D09D0082DE9
:102A30000CD00C2D14D10EE03146206801F0FAF9CB
:102A40000FE03146206801F025FA0AE0314620689F
:102A500001F054FA05E03146206801F083FA00E005
:102A600000BF00BF00BF002084F83C0000BF00BFD3
:102A7000D5E7000010B5044614492068884205D106
:102A8000207F012802D1002001F088FB0F49206837
:102A9000884205D1207F022802D1012001F07EFB6F
:102AA0000A492068884205D1207F042802D10220EB
:102AB00001F074FB05492068884205D1207F082871
:102AC00002D1032001F06AFB10BD000000080040A5
:102AD00010B504460CB9012010BD94F83D0028B98A
:102AE000002084F83C00204600F025F8022084F8FD
:102AF0003D00211D206801F03DF9012084F84600C9
:102B000000BF84F83E0001213F20015540200155BF
:102B10004120015500BF00BF012084F8420043203E
:102B20000155442001554520015500BF012084F87E
:102B30003D000020D0E7704770B504460D4615B93A
:102B400094F83E000BE0042D02D13F20005D06E02A
:102B5000082D02D14020005D01E04120005D0128E8
:102B600001D0012070BD1DB9022084F83E000EE0A6
:102B7000042D03D102213F20015508E0082D03D187
:102B800002214020015502E002214120015535B1CA
:102B9000042D0BD0082D10D00C2D1CD114E0206872
:102BA000C06840F002002168C86015E02068C06875
:102BB00040F004002168C8600EE02068C06840F062
:102BC00008002168C86007E02068C06840F0100075
:102BD0002168C86000E000BF00BF012229462068CC
:102BE00001F002F919492068884201D1012000E072
:102BF000002028B12068406C40F4004021684864FF
:102C00001249206888420BD02068B0F1804F07D06D
:102C10000F492068884203D00E49206888420CD1B1
:102C20002068806800F00706062E0CD02068006837
:102C300040F001002168086005E02068006840F06D
:102C400001002168086000208CE70000002C014092
:102C5000000400400008004030B504460D4635B180
:102C6000042D0BD0082D10D00C2D1CD114E02068A1
:102C7000C06820F002002168C86015E02068C068C4
:102C800020F004002168C8600EE02068C06820F0D1
:102C900008002168C86007E02068C06820F01000C4
:102CA0002168C86000E000BF00BF002229462068FC
:102CB00001F09AF821492068884201D1012000E002
:102CC000002090B100BF2068006A41F21111084055
:102CD00050B92068006A8910084028B92068406C03
:102CE00020F400402168486400BF00BF2068006AEB
:102CF00041F21111084050B92068006A891008405B
:102D000028B92068006820F001002168086000BF31
:102D10001DB9012084F83E000EE0042D03D10121ED
:102D20003F20015508E0082D03D101214020015525
:102D300002E0012141200155002030BD002C01405E
:102D4000704700000168B1F1804F04D10249896BDE
:102D5000491C014A91637047D400002002460020BC
:102D600031B1042907D0082908D00C290CD108E07A
:102D70001368586B09E01368986B06E01368D86B0A
:102D800003E01368186C00E000BF00BF7047704795
:102D90007047000010B5044604480078401C034901
:102DA0000870102000F000FE10BD00001000002090
:102DB0002DE9F84F0446206805682068C668206839
:102DC00047694FF00009CA4605F00F09B9F1000F35
:102DD0000AD105F0200038B106F0200020B12046CD
:102DE00001F0F7FABDE8F88FB9F1000F71D007F0E4
:102DF000010018B906F4907000286AD005F00100AF
:102E000030B106F4807018B1206C40F001002064ED
:102E100005F0040030B107F0010018B1206C40F05B
:102E20000200206405F0020030B107F0010018B183
:102E3000206C40F00400206405F0080048B106F062
:102E4000200010B907F0010018B1206C40F0080014
:102E50002064206C68B305F0200028B106F0200043
:102E600010B1204601F0B5FA20684069C0F3801A1D
:102E7000206C00F0080010B9BAF1000F22D02046F3
:102E800001F072FA2068406900F04000B0B120689B
:102E9000406920F0400021684861A06B50B156485D
:102EA000A16B4863A06BFDF7DBFF10B1A06B416B1A
:102EB00088470CE02046FFF76DFF08E02046FFF74B
:102EC00069FF04E02046FFF765FF0020206489E7E2
:102ED000FFE7206B012878D105F01000002874D09E
:102EE00006F01000002870D000BF0020009020687D
:102EF0000068009020684068009000BF00BF206814
:102F0000406900F04000C0B3A06B006840681FFA41
:102F100080F8B8F1000F2FD0A08D40452CDDA4F82B
:102F20002E80A06B806920281FD02068C06820F404
:102F300080702168C8602068406920F00100216825
:102F400048612068406920F04000216848612020E5
:102F500084F83E00002020632068C06820F0100044
:102F60002168C860A06BFDF74FFFA08DE28D801A2D
:102F700081B22046FFF70CFF34E7FFE7A08DE18D1B
:102F8000401A1FFA80F8E08DE8B1B8F1000F1AD0AE
:102F90002068C06820F490702168C860206840698B
:102FA00020F0010021684861202084F83E000020C4
:102FB00020632068C06820F010002168C860414686
:102FC0002046FFF7E5FE0DE7FFE705F0800030B192
:102FD00006F0800018B1204601F038FB02E705F04A
:102FE000400030B106F0400018B1204601F0D7F99A
:102FF000F8E600BFF6E600003942000810B50446C6
:103000000CB9012010BDA06900B100E000BF94F828
:103010003D0028B9002084F83C00204600F028F844
:10302000242084F83D002068C06820F40050216806
:10303000C860204601F040FA2068006920F4904002
:10304000216808612068406920F02A0021684861F1
:103050002068C06840F400502168C86000202064E7
:10306000202084F83D0084F83E000020CAE70000DC
:1030700010B586B00446002002900390049005909D
:1030800037492068884269D100BF3648806940F4DA
:103090008040344988610846806900F4804001908E
:1030A00000BF00BF00BF0846806940F0040088618F
:1030B0000846806900F00400019000BF00BF481579
:1030C0000290022003900320059002A92648FEF7F3
:1030D0001BFA4FF48060029000200390049002A934
:1030E0002148FEF711FA2148214908600020486074
:1030F00000211F4881608021C16000210161416180
:103100008161C161FDF7D2FF08B1FDF723FA00BF6D
:103110001748A063446200BF14481438154908607A
:10312000102048600021134881608021C160002187
:10313000016141618161C161FDF7B8FF08B1FDF72F
:1031400009FA00BF0B486063446200BF00221146C9
:103150002520FEF74BFC2520FEF738FC06B010BDFD
:1031600000380140001002400008014058000240B1
:1031700094030020D803002070B504460D4616467F
:1031800094F83E00202816D105B10EB9012070BD7B
:1031900000BF94F83C00012801D10220F7E701208C
:1031A00084F83C0000BF00202063324629462046B8
:1031B00001F000FAEBE70220E9E7000010B5044651
:1031C0002D2204490448FFF7D7FF00200349087067
:1031D00010BD00005D010020500300200A00002007
:1031E00070470000F7B50446154694F83D002028C6
:1031F0003DD1019800B10DB90120FEBD00BF94F88A
:103200003C00012801D10220F7E7012084F83C00AE
:1032100000BF01982062A584E5840020206421205D
:1032200084F83D001348616B88621348616BC86283
:103230001248616B08630020616B486301AE23682C
:103240001A1D31682B46606BFDF764FF6FF040007C
:103250002168086000BF002084F83C0000BF20689F
:10326000406940F08000216848610020C5E70220E5
:10327000C3E70000254300085B4300084D420008F7
:103280000121014A1170704709000020704700BFFA
:10329000FEE7000010B5002000F0CCFB002000F09D
:1032A000DBFB002000F0B4FB002000F0E7FB002077
:1032B00000F08AFB002000F099FB00224FF480719F
:1032C0000148FEF7BBFA10BD0008014010B50B48DD
:1032D00000880B4948820A46518A908A3C22FDF7B1
:1032E00015FA074988820846808A9621484340F6A5
:1032F000FF7190FBF1F00249887510BDC0010020FC
:10330000D001002010B50446054AA2F1180120465C
:1033100001F08AFB034908700846007810BD0000E0
:10332000C4000020650000200EB500200090019030
:1033300002902348234908608115224881600121B9
:103340000173002101754FF46021C16100201D4906
:10335000486004211B480161FDF792FB08B1FDF7AD
:10336000F9F803200090012001900720029069469F
:103370001448FDF741FA08B1FDF7ECF8042000907D
:103380000220019069460F48FDF736FA08B1FDF7B3
:10339000E1F8052000900320019069460948FDF7F7
:1033A0002BFA08B1FDF7D6F8102000900420019008
:1033B00069460448FDF720FA08B1FDF7CBF80EBDC9
:1033C000002401404002002008B500BF12484069B7
:1033D00040F00100104948610846406900F00100D2
:1033E000009000BF00BF002211460B20FEF7FEFA3E
:1033F0000B20FEF7EBFA002211460E20FEF7F6FA3C
:103400000E20FEF7E3FA002211460F20FEF7EEFA37
:103410000F20FEF7DBFA08BD0010024000B585B0B2
:103420000020019002900390049000BF68488069DA
:1034300040F01000664988610846806900F010007D
:10344000009000BF00BF00BF0846806940F0200028
:1034500088610846806900F02000009000BF00BF2E
:1034600000BF0846806940F0040088610846806912
:1034700000F00400009000BF00BF00BF0846806954
:1034800040F0080088610846806900F0080000905C
:1034900000BF00BF00224FF400514E48FEF7CEF9A6
:1034A000002240F2C7114C48FEF7C8F900224FF63F
:1034B000FF514A48FEF7C2F94FF400500190012035
:1034C0000290002003900320049001A94148FEF7D8
:1034D0001BF84FF44040019000200290039001A996
:1034E0003C48FEF711F8472001900120029000208F
:1034F00003900320049001A93748FEF705F88020C7
:10350000019011200290002003900220049001A954
:103510003148FDF7F9FF03200190012002900020BF
:1035200003900320049001A92C48FDF7EDFF4FF60E
:10353000FC400190012002900020039002200490A2
:1035400001A92648FDF7E0FF4FF4807001900120AB
:103550000290002003900220049001A91E48FDF76C
:10356000D3FF4FF40060019000200290039001A966
:103570001948FDF7C9FF4FF48050019002200290D6
:103580000320049001A91448FDF7BEFF4FF480709A
:10359000019011200290002003900220049001A9C4
:1035A0000E48FDF7B1FF4FF4007001900C480290F7
:1035B0000020039001A90948FDF7A6FF002211464B
:1035C0001720FEF713FA1720FEF700FA05B000BD2A
:1035D000001002400010014000080140000C0140B2
:1035E0000000111010B50748074908600020486026
:1035F0004FF4FA6104488160FEF72CF908B1FCF73A
:10360000A9FF10BD00300040B402002000B58BB00F
:1036100000200790089009900A900590069001906C
:103620000290039004904FF08040264908603720B4
:1036300048600021234881604FF6FF71C16000217E
:1036400001618161FEF794FE08B1FCF783FF4FF43E
:103650008050079007A91B48FEF728FF08B1FCF728
:1036600079FF1848FFF725F808B1FCF773FF002031
:103670000590069005A91348FEF738FE08B1FCF73F
:1036800069FF022001900120029000200390032096
:103690000490002201A90B48FEF7A1FF08B1FCF736
:1036A00059FF002001900220029000200490042283
:1036B00001A90448FEF793FF08B1FCF74BFF0BB0DC
:1036C00000BD0000C002002000B58DB000200990B0
:1036D0000A900B900C90079008901C216846FCF70C
:1036E0003AFD2D482D4908603720486000212B48BD
:1036F00081604FF6FF71C160002101618161FEF7B9
:1037000037FE08B1FCF726FF4FF48050099009A955
:103710002248FEF7CBFE08B1FCF71CFF1F48FFF75D
:10372000D7F908B1FCF716FF00200790089007A909
:103730001A48FEF7DBFD08B1FCF70CFF10200090E3
:10374000002001900220029000200490002269468F
:103750001248FFF75AF908B1FCF7FCFE042269464B
:103760000E48FFF752F908B1FCF7F4FE0020009074
:103770000290082269460948FFF747F908B1FCF7AB
:10378000E9FE0C2269460548FFF73FF908B1FCF74E
:10379000E1FE0DB000BD000000080040080300205D
:1037A00010B50B480B4908604FF4165048600021D3
:1037B00008488160C16001610C2141610021816183
:1037C000C161FFF71BFC08B1FCF7C4FE10BD00008F
:1037D000003801405003002000BFFEE7704710B5DD
:1037E000FEF758F910BD7047F8B506460F46144667
:1037F0001D46FEF729F8009014F8350038B90098F6
:10380000304404EBC5014860012004F8350004EBA6
:10381000C50040680099884203D8002004F83500AC
:10382000B847F8BD10B5002407E0244850F834101C
:10383000234840F83410601CC4B2042CF5DB00208F
:1038400000F0D4F8002000F0BFF81D48001F4068C9
:103850001C490968486301211948001F0172C068AA
:1038600018490968886301211548001F01744069DF
:1038700014490968C86301211148001F0176C06915
:1038800010490968086401210D48001F80F82010C4
:1038900000200C490968486200210A48FFF74CF9EA
:1038A00004210848FFF748F908210648FFF744F9C2
:1038B0000C210448FFF740F910BD0000EC01002086
:1038C000100200200803002008B508490968C9084B
:1038D0004FF47A72B1FBF2F14143009100BF00BF97
:1038E00000994A1E00920029F9D108BD8C000020E1
:1038F000704710B5FFF7EAFCFCF71EFDFCF7D4FD9E
:10390000FCF742FD10BD000010B500211248FFF782
:1039100025FA1249C8610846806B81F83C000020F6
:103920000D49096848620D4988630D4800780D49C2
:10393000087008460078012805D1084890F835003D
:1039400008B9FFF76FFF05480069401C034908618B
:1039500000F01AFC10BD0000C0020020D4000020BE
:10396000E80100200C02002010B50023094A0A4992
:103970001420FFF739FF0123064A08496420FFF7A6
:1039800033FF0223034A06494FF47A70FFF72CFFF6
:1039900010BD0000900000201541000825410008DE
:1039A0004541000870470000024909790143014A76
:1039B000117170470000002010B540210148FDF74B
:1039C00033FF10BD0008014010B50446012C05D19D
:1039D000012240210448FDF731FF04E0002240218C
:1039E0000148FDF72BFF10BD000C014010B5044647
:1039F000012C05D1012204210448FDF71FFF04E03A
:103A0000002204210148FDF719FF10BD0008014004
:103A100010B50446012C05D1002241030448FDF7EE
:103A20000DFF04E0012251030148FDF707FF10BD1F
:103A3000000C014010B50446012C05D100224103C1
:103A40000448FDF7FBFE04E0012251030148FDF7A5
:103A5000F5FE10BD0010014010B50446012C05D143
:103A6000002201030448FDF7E9FE04E001221103EE
:103A70000148FDF7E3FE10BD000C014010B50446FF
:103A8000012C05D1002281030448FDF7D7FE04E094
:103A9000012291030148FDF7D1FE10BD000C014049
:103AA00010B5FFF789FF5648C16990F83C0001EB5B
:103AB00000405349C8610846C069524988427DD8D0
:103AC0004F48C06941F27441884277D34C48C0697D
:103AD0004D49B1FBF0F04A494880084640880880CB
:103AE000084640880988401A4549C8600846008849
:103AF0004988B0EB410F15DA4148008840494988B0
:103B0000C0EB41003E498880404840783E494843E8
:103B10003B4989884FF4B4725143B0FBF1F0384906
:103B2000886202E000203649888035488088344920
:103B300048800846408835498988884221DB012031
:103B4000334908702E48016A90F83D0001EB0040AF
:103B50002B490862086A01F08FF829494862084633
:103B6000806A800908634888FFF7CCFB244981F804
:103B700034000846006B91F834104843254908602A
:103B800007E00020224908701D4981F834002149CE
:103B900008602048006800F21D501F490860084670
:103BA000006800F28F201D4908600846006841F255
:103BB000E61108441A490860164800E013E000883E
:103BC00080B2134948601448008881B21048C1602F
:103BD0001248008881B20E4841611148008881B2C4
:103BE0000B48C16101E00648C06900210D4801721F
:103BF0000174017680F82010FFF7DEFE10BD000092
:103C0000D40000202FFC0B002F82AE04A80000205F
:103C1000E8010020680000206C00002070000020F7
:103C2000740000200C02002000B50E4A1188508854
:103C30003222FCF76BFD0B49C88008460089498891
:103C400008444010074908810846006A4FF4B471DF
:103C500048430449C969B0FBF1F0024981F82C00DE
:103C600000BD0000D400002010B5FDF723FE10BDFC
:103C700000B593B0282109A8FCF76DFA142104A817
:103C8000FCF769FA0020009001900290039009204F
:103C900009904FF480300A9000200B9001200D9085
:103CA0000F9002201090C10311914FF4E011129176
:103CB00009A8FEF7CDF808B1FCF74CFC0F200490E2
:103CC00002200590002006904FF4806007904FF48A
:103CD000E0600890022104A8FDF784FF08B1FCF71A
:103CE00039FC022000904FF4404002906846FDF7F6
:103CF000E1FE08B1FCF72EFC13B000BD11480068CE
:103D000040F001000F490860084640680E4908402D
:103D10000C494860084600680C4908400949086099
:103D20000846006820F4802008600846406820F4B7
:103D3000FE0048604FF41F008860C8030449086013
:103D400070470000001002400000FFF8FFFFF6FE81
:103D500008ED00E010B50248FEF78CFD10BD000034
:103D6000C002002010B50248FEF784FD10BD00001F
:103D70000803002010B50268184B984208D0B0F133
:103D8000804F05D0164B984202D0164B984203D173
:103D900022F070024B681A43104B984208D0B0F1E1
:103DA000804F05D00E4B984202D00E4B984203D163
:103DB00022F44072CB681A4322F080034C6943EA34
:103DC000040202608B68C3620B688362034B9842F3
:103DD00001D10B6903630123436110BD002C014035
:103DE000000400400008004030B501F01F05012428
:103DF00004FA05F3046A9C430462046A01F01F0597
:103E000002FA05F52C43046230BD30B50C468168DA
:103E100021F47F4142EA032525432943816030BDD7
:103E20000A46816821F0700142F00703194381605E
:103E30007047000030B5056A25F001050562026A89
:103E40004368846924F0700424F003040D682C4353
:103E500022F002028D682A430D4DA84206D100BF10
:103E600022F00802CD682A4322F00402084DA8423D
:103E700007D123F4807323F400734D692B438D69BC
:103E80002B43436084614D684563026230BD00008E
:103E9000002C014030B5056A25F010050562026A64
:103EA0004368846924F4E04424F440740D6844EACF
:103EB000052422F020028D6842EA05120E4DA84228
:103EC00007D100BF22F08002CD6842EA051222F03D
:103ED0004002094DA84209D123F4806323F4006312
:103EE0004D6943EA85038D6943EA85034360846134
:103EF0004D688563026230BD002C014030B5056A13
:103F000025F480750562026A4368C46924F0700470
:103F100024F003040D682C4322F400728D6842EAF9
:103F200005220F4DA84207D100BF22F40062CD68E0
:103F300042EA052222F48062094DA84209D123F405
:103F4000805323F400534D6943EA05138D6943EA16
:103F500005134360C4614D68C563026230BD000053
:103F6000002C014030B5056A25F480550562036ACE
:103F70004468C26922F4E04222F440720D6842EAC9
:103F8000052223F400538D6843EA0533064DA84209
:103F900004D124F480444D6944EA85144460C2612C
:103FA0004D680564036230BD002C014030B50B46FE
:103FB0001446026A056A25F001050562816921F04F
:103FC000F00141EA041122F00A021A4381610262FF
:103FD00030BD000070B50C461546066A26F0010695
:103FE00006628169026A124EB04208D0B0F1804F79
:103FF00005D0104EB04202D00F4EB04201D1012682
:1040000000E000261EB121F00301294301E041F048
:10401000010121F0F001F02606EA0316314322F0F7
:104020000A0204F00A0632438161026270BD000098
:10403000002C0140000400400008004030B50B4651
:104040001446056A25F0100505628169026A21F4AB
:10405000704141EA043122F0A00242EA0312816178
:10406000026230BD70B50C461546066A26F0100691
:1040700006628169026A21F4407141EA052121F456
:1040800070414FF4704606EA0336314322F0A00235
:10409000A02606EA041632438161026270BD70B543
:1040A0000C461546066A26F480760662C169026AE5
:1040B00021F00301294321F0F001F02606EA03165E
:1040C000314322F400724FF4007606EA04263243AC
:1040D000C161026270BD70B50C461546066A26F4D1
:1040E00080560662C169026A21F4407141EA0521E5
:1040F00021F470414FF4704606EA0336314322F44E
:1041000000524FF4005606EA04363243C16102629F
:1041100070BD000010B50248FDF79CFB10BD00000B
:10412000B402002010B5FFF7E4FBFCF75DF900F0E6
:10413000F5FDFFF779FD00F02FFC00F005FF00F022
:1041400009FD10BD10B5FCF7CDF901F009F80748DD
:104150000078012804D10648007808B100F076FF05
:1041600000F02AFDFCF70CF910BD0000080000204B
:104170000900002010B54FF400510248FDF754FB30
:1041800010BD00000010014010B54FF480510248EE
:10419000FDF74AFB10BD0000000C014010B50446BD
:1041A00034B1012C10D0022C15D0032C29D11EE0E3
:1041B0000120FFF71BFC00211348017213484069DE
:1041C000401C124948611DE00020FFF70FFC002150
:1041D0000D48017416E00120FFF7F6FB00210A48A4
:1041E00001760A488069401C084988610AE000207D
:1041F000FFF7EAFB0021044880F8201000F008F8DF
:1042000000E000BF00BF10BD0C020020D400002061
:1042100010B500210748FEF71FFD04210548FEF7F1
:104220001BFD08210348FEF717FD0C210148FEF78E
:1042300013FD10BD0803002070B505466C6A002010
:10424000E085E0842046FEF7A5FD70BD70B506460A
:104250000025746A20684069C0F3C01594F83D00D9
:10426000212805D125B10020E084204600F0A7F8E0
:1042700020684069C0F3801594F83E00222805D1DB
:1042800025B10020E085204600F06EF8206C40F05B
:10429000100020642046FEF77DFD70BD70B5054618
:1042A0006C6A2868006800F02000F8B90020E085FA
:1042B0002068C06820F480702168C8602068406968
:1042C00020F00100216848612068406920F040002A
:1042D00021684861202084F83E00206B012805D128
:1042E0002068C06820F010002168C860206B012899
:1042F00004D1A18D2046FEF74BFD02E02046FEF7DB
:104300005DFF70BD70B505466C6A206B012805D154
:10431000A08D41082046FEF73BFD02E02046FEF757
:104320005FFF70BD70B505466C6A2868006800F0D4
:10433000200070B90020E0842068406920F08000EF
:10434000216848612068C06840F040002168C8606A
:1043500002E02046FEF794FF70BD70B50446656A22
:104360002846FEF793FF70BD0168C96821F490717B
:104370000268D1600168496921F001010268516158
:10438000016B012905D10168C96821F0100102689B
:10439000D160202180F83E1000210163704710B5E4
:1043A00004462068C06820F040002168C8602020D2
:1043B00084F83D002046FEF763FF002010BD016831
:1043C000C96821F0C0010268D160202180F83D1049
:1043D0007047F8B5044694F83E00222869D1A068D9
:1043E000B0F5805F0CD1206950B90025A66A20681D
:1043F0004068C0F308003080A06A801CA06215E00D
:10440000A56A0026A068B0F5805F03D0A06828B92F
:10441000206918B920684068287004E02068406866
:1044200000F07F002870A06A401CA062E08D401E52
:1044300080B2E085A8BB2068C06820F02000216819
:10444000C8602068C06820F480702168C860206857
:10445000406920F0010021684861202084F83E0076
:10446000206B01281ED1002020632068C06820F046
:1044700010002168C8602068006800F01000102853
:104480000AD100BF002000902068006800902068DA
:104490004068009000BF00BFA18D2046FEF778FC69
:1044A00003E004E02046FEF789FE0020F8BD00206E
:1044B000FCE70220FAE7000070B5044621680969AC
:1044C00021F44051E2681143226811612269A16818
:1044D0001143626941EA02052168C96841F20C6230
:1044E000914329432268D1602168496921F44071D0
:1044F000A2691143226851612D4A2168914202D17B
:10450000FDF74CFC01E0FDF739FC00EBC00101EBCD
:10451000001162689200B1FBF2F100EBC00202EB05
:10452000001263689B00B2FBF3F26423B2FBF3F268
:1045300002EBC20303EB0212A1EB8201322202EB77
:1045400001116422B1FBF2F101F0F00100EBC002B5
:1045500002EB001263689B00B2FBF3F26423B2FB30
:10456000F3F201EB021200EBC00101EB00116368F2
:104570009B00B1FBF3F100EBC00303EB0013666893
:10458000B600B3FBF6F36426B3FBF6F303EBC30606
:1045900006EB0313A1EB8301322303EB0111642328
:1045A000B1FBF3F101F00F0111442268916070BD7D
:1045B0000038014077B581B0044615460298A062E4
:1045C000A58500202064222084F83E001C48A16BB1
:1045D00088621C48A16BC8621B48A16B086300205D
:1045E000A16B486302AE32682368191D2B46A06B8D
:1045F000FCF790FD00BF002000902068006800904C
:1046000020684068009000BF00BF00BF002084F811
:104610003C0000BF2068C06840F480702168C8601A
:104620002068406940F001002168486120684069C5
:1046300040F0400021684861002004B070BD0000D7
:104640009D420008054300084D420008014691F8CC
:104650003D00212828D18868B0F5805F0BD108691A
:1046600048B90A6A1088C0F308000B685860086AE5
:10467000801C086205E00B6A581C086218780B68F9
:104680005860C88C401E80B2C88458B90868C06899
:1046900020F080000B68D8600868C06840F04000D7
:1046A0000B68D860002070470220FCE710B5024874
:1046B000FEF77EFB10BD00005003002000BFFEE7A8
:1046C0000120054908700549087000200449087058
:1046D0000449087070470000090000200A0000200B
:1046E00008000020100000200FB4084B10B504A9EA
:1046F00002AA039800F038F8044602A9002000F04E
:10470000DDF8204610BC5DF814FB0000BD48000831
:1047100002480068C0F30220704700000CED00E082
:1047200010B5002804DB0A07130E054A135406E0EF
:104730000A07140E034A00F00F031B1FD45410BDC8
:1047400000E400E018ED00E002E008C8121F08C114
:10475000002AFAD170477047002001E001C1121F02
:10476000002AFBD1704700002DE9FF4F89B09B461E
:104770000446002506E025280BD05A460B999047A1
:10478000641C6D1C20780028F5D10DB02846BDE8CA
:10479000F08F0027B8460122474900E0074314F88C
:1047A000013F203B02FA03F00842F7D120782E287F
:1047B00019D114F8010F47F004072A280ED06FF022
:1047C0002F022078A0F1300109290CD808EB8801CC
:1047D00002EB410100EB0108641CF2E70A98641C3B
:1047E00050F8048B0A9020780028CED0642808D096
:1047F000692806D075281ED05A460B9990476D1C23
:1048000058E00A994FF00A0901C90A91002802DA12
:1048100040422D2102E0390504D52B218DF82010CE
:10482000012103E0F90704D02021F7E78A4608AE0A
:104830000DE00021FAE70A994FF00A0901C90A912F
:10484000F7E74946FBF792FC303106F8011D0028D6
:10485000F7D1ADEB060000F12009780701D44FF045
:104860000108C84502DDA8EB090000E000208046F1
:10487000002706E008A85A46C05D0B9990476D1CBA
:104880007F1C5745F6DB04E030205A460B999047D1
:104890006D1CB8F10001A8F10108F5DC05E016F87F
:1048A000010B5A460B9990476D1CB9F10001A9F113
:1048B0000109F4DC641C65E7092801000A68531C3F
:1048C0000B601070704730B504460D46A8184110B3
:1048D00015E034F81100984206DC481C34F810004A
:1048E000984201DB084630BD481C34F8100098425D
:1048F00002DA481CC5B200E00A46A81841109542E9
:10490000E7DDFF20EFE70000014908707047000075
:104910004300002010B5034903480068FBF701FF7E
:1049200010BD0000A80000200C000020002005E0C1
:10493000044A411C515C044A1154401C2C28F7D3F2
:10494000704700005D010020A800002010B502495A
:104950000248FBF7E6FE10BD0000002020F400082E
:10496000002004E00349095C034A1154401C2C2830
:10497000F8D37047D0510008A8000020002004E0C0
:104980000349095C034A1154401C0628F8D37047B8
:10499000C85100080000002010B5224800780828FF
:1049A0003DD2DFE800F0040B121920272E3501203C
:1049B000FFF740F801201B49087031E00020FFF7A5
:1049C00039F80220174908702AE00120FFF744F85F
:1049D00003201449087023E00020FFF73DF804206D
:1049E000104908701CE00120FFF712F805200D495E
:1049F000087015E00020FFF70BF806200949087041
:104A00000EE00120FFF73AF807200649087007E09A
:104A10000020FFF733F808200249087000E000BFCB
:104A200000BF10BD410000202DE9F04107460D46B2
:104A300016462888B84202DD3078BDE8F081E88A61
:104A4000B84201DAF07AF8E73B460B22002128460B
:104A5000FFF739FF0446601C35F8100035F81410D4
:104A6000401A1CD0FF2C1AD0601C305C315D401AFB
:104A700035F81410791A4843611C35F8111035F8CF
:104A80001420891A90FBF1F0315D084400F0FF0812
:104A9000B8F1400F01D94FF040084046CDE7FF2064
:104AA000CBE70000FCF712FF00F096F800F0F2F9F7
:104AB000FFF706FEFFF7DCF8FEF7B0FCFEF784FC1C
:104AC000FEF7A4FDFEF700FEFEF72EFCFEF768FEE3
:104AD000FEF788FD00F098F8042217491748FCF704
:104AE000D3F817480068C06840F00100144909680D
:104AF000C86000211248FDF711FE04211048FDF79F
:104B00000DFE2D220F491048FEF736FB39220F49C2
:104B10000D48FEF767FBFEF7BDFB0CE00C4890F874
:104B20003600012805D1FEF7BBFF0020084981F8B7
:104B30003600FEF719FFF1E7C00100204002002017
:104B4000C00200205D01002050030020240100204D
:104B5000D400002010B5154800784006040E144813
:104B6000007884421BD01348007810B101280ED180
:104B700006E00120FEF74CFF01200E49087007E017
:104B80000020FEF745FF00200A49087000E000BF42
:104B900000BF07480078401C0549087004E0002069
:104BA000034908700149087010BD0000430000204F
:104BB000460000204700002010B506480079002874
:104BC00003DD0120FEF75AFF02E00020FEF756FF4A
:104BD00010BD00000000002010B5FFF79BFE084844
:104BE000408818B9FFF7BCFE00F096F9FFF7AEFE5B
:104BF0000448807818B9FFF7C1FE00F099F910BD9C
:104C0000A80000200000002010B5184800780128F6
:104C100003D100201649086002E002201449086010
:104C2000012013494860002088600320C8600022EA
:104C30001048FDF7D4FC08B1FBF78CFC0B4800785A
:104C4000012803D102200A49086002E00020084937
:104C500008600220064948600020C8600422054818
:104C6000FDF7BDFC08B1FBF775FC10BDA8000020E6
:104C700014010020C0020020014621480068081AE3
:104C8000204A1060204890F828001268504364229F
:104C9000B0FBF2F01A4A126810441C4A10601A481D
:104CA00090F82900174A126850436422B0FBF2F0D2
:104CB000174A12681044174A1060134890F82A00E7
:104CC000104A126850436422B0FBF2F0124A126894
:104CD0001044114A10600D4800680E4A12681044D2
:104CE0000D4A126800EB6200054A1060094800682E
:104CF000094A12681044064A10601046006870475E
:104D00005000002048000020A80000204C00002097
:104D100058000020540000205C0000202DE9F041E4
:104D20005748007800286FD12D260025002404E084
:104D30005448005D2844C5B2641C701EA042F7D8D8
:104D40005049085C401B72D108460778532F47D062
:104D50000EDC502F30D006DC022F18D0032F1CD0D1
:104D6000472F7CD120E0512F2DD0522FF9D131E0A7
:104D70007E2F50D006DC542F38D0552F3CD0692FD1
:104D800076D142E07F2F4CD0802F71D150E00120AE
:104D90003D490870FFF7B8FD6BE000203A49087004
:104DA0000220FFF7B1FD64E0FFF7C0FD00F0B4F8AA
:104DB0000420FFF7A9FD5CE00120FBF70DFB0120BB
:104DC000FFF7A2FD55E00220FBF706FB0220FFF7EC
:104DD0009BFD4EE0FBF7FAFA0320FFF795FD48E054
:104DE00000F0A6F80520FFF78FFD42E000F07AF909
:104DF0000320FFF789FD3CE0FFF7C0FD00F098F8C5
:104E00000220FFF781FD34E037E000F0E1F80120F7
:104E1000FFF77AFD2DE0FFF789FD0320FFF774FD12
:104E200027E000F079F80220FFF76EFD21E021E095
:104E300000BF00BF00BF00BF00BFBFF34F8F00BF68
:104E400000BF00BF1148006800F4E060104908434B
:104E5000001D0E49086000BF00BF00BF00E007E072
:104E6000BFF34F8F00BF00BF00BF00BF00BFFDE713
:104E700000BF00BF012002490870BDE8F0810000BA
:104E80000A0000205D010020080000200CED00E079
:104E90000000FA0500B500F005F80149487100BDB1
:104EA000000000201A49496A01F0004109B10120BF
:104EB0002AE01749496A01F0804109B1022023E044
:104EC0001349496A01F0005109B103201CE010495F
:104ED000496A01F0805109B1042015E00C49496A82
:104EE00001F0006109B105200EE00949496A01F0AD
:104EF000806109B1062007E00549496A01F00061B7
:104F000009B1072000E000200121024A116070472A
:104F100000100240E004424210B50B22024903484F
:104F20000068FBF70DFC10BDA80000200C0000205D
:104F300010B5022202490348FBF702FC10BD000035
:104F40000000002020F4000810B51F480078062853
:104F500036D2DFE800F0030A111C232A0120FEF7F5
:104F600033FD0120184908702BE00020FEF72CFDCE
:104F700002201549087024E01448807D462802D29A
:104F80000420FEF711FD03200F49087019E00120ED
:104F9000FEF72CFD04200C49087012E00020FEF7FB
:104FA00025FD0520084908700BE00848807D0A2887
:104FB00002D90820FEF7F8FC06200349087000E03B
:104FC00000BF00BF10BD000042000020D001002043
:104FD00070B51A48007801282FD13925002403E044
:104FE000002017490855641CAC42F9D39620144997
:104FF0000870012405E0601E1249085C104908553C
:10500000641C2D2CF7D30E480678012404E00C48CC
:10501000005D3044C6B2641CA81EA042F7D80849FF
:105020000E540A21681E064A1154002003490870D4
:10503000392203490448FEF7D5F870BD0900002065
:1050400024010020A80000205003002070B588B083
:1050500039251E4890F82C001D49897A1C4A127C7B
:105060001B4B9B7DCDE90332CDE905101848007933
:10507000164991F83410154AD288CDE900210290E2
:1050800012488388428813491348FFF72DFBFA2002
:105090001149087008460678012404E00E48005DB6
:1050A0003044C6B2641CA81EA042F7D80A490E5468
:1050B0000A21681E084A1154002008490870392244
:1050C00005490748FEF78EF808B070BDD4000020EF
:1050D000D001002014520008240100200900002003
:1050E0005003002070B51A48007801282FD13925C7
:1050F000002403E0002017490855641CAC42F9D392
:10510000452014490870012405E0601E1249085C1E
:1051100010490855641C092CF7D30E480678012461
:1051200004E00C48005D3044C6B2641CA81EA042D6
:10513000F7D808490E540A21681E064A1154002067
:1051400003490870392203490448FEF74BF870BD43
:10515000090000202401002000000020500300204E
:1051600010B51648408816490988884203DD13485F
:10517000408813490880134800791149897888428A
:1051800003DA104800790E4988700E4800790C49FE
:10519000C978884203DD0B4800790949C87009487D
:1051A00000793C2802D20120FEF7FEFB0548007979
:1051B0008C2802D90220FEF7F7FB10BDD400002096
:1051C00000000020D00100200000FF0000000000CF
:1051D000001C4C1D1405D007C409B80BAC0DA00F62
:1051E0009411581B401F2823E02E983A403A30264D
:1051F000190F0000282D37405A500A000000000007
:105200000000000001020304060708090000000076
:105210000102030420205325302E357520522530FD
:105220002E3575204625302E3575204125302E33FC
:1052300075204225302E3375204825302E337520B9
:105240004525302E3375205425302E3375204E25BC
:10525000302E337520000000785200080000002036
:105260009000000048470008085300089000002004
:10527000B0070000584700080000000000000000D0
:105280000001010000F000080000000000008200A2
:105290002C01F401E80378050807280AB80BAC0DC7
:1052A000740EB40FFFC8B48C6419150F0A050300FF
:1052B00000000000000000000100000000050000E8
:1052C00000000000000000000000000000000000DE
:1052D00000000000000000000000000000000000CE
:1052E00000000000000000000000000000000000BE
:1052F000000000000000000000000000100000009E
:08530000010000000024F4008C
:04000005080000ED02
:00000001FF
