:020000040800F2
:100000000007002001010008292800087B240008BF
:10001000252800088D010008613500080000000057
:100020000000000000000000000000009D29000802
:10003000050200080000000033280008F52B000826
:100040001B0100082B2800081B0100081B010008E9
:10005000470200083D2900081B0100081B01000899
:100060001B0100081B0100081B0100081B01000800
:10007000B9010008C90100081B0100081B010008A4
:100080001B0100081B0100081B0100081B010008E0
:100090001B0100081B0100081B0100081B010008D0
:1000A0001B0100081B0100081B0100081B010008C0
:1000B000BD2C00081B010008CD2C00081B01000806
:1000C0001B0100081B0100081B0100081B010008A0
:1000D0001B0100081B0100081B0100085135000826
:1000E0001B0100081B0100081B010008DFF80CD0F1
:1000F00000F03AF800480047E93600080007002001
:100100000648804706480047FEE7FEE7FEE7FEE7B1
:10011000FEE7FEE7FEE7FEE7FEE7FEE7652C0008E8
:10012000ED000008202A04DB203A21FA02F0002129
:10013000704721FA02F3D040C2F1200291400843F7
:1001400019467047D2B201E000F8012B491EFBD2DC
:1001500070470022F6E710B513460A4604461946D2
:10016000FFF7F0FF204610BD064C074D06E0E068A3
:1001700040F0010394E8070098471034AC42F6D3EE
:10018000FFF7B8FF983A0008B83A000800BFFEE74A
:100190000748408807494988884204DD012004490E
:1001A00081F8350003E00020014981F835007047EF
:1001B000D4010020A801002010B5024800F0DEF9AB
:1001C00010BD00006401002010B5024800F0D6F90F
:1001D00010BD00002001002030B590F840500124EF
:1001E000AC40C56B6C60046863604468102C04D13B
:1001F0000468A2600468E16003E00468A160046828
:10020000E26030BD704700000B48007838B90B48F9
:1002100000690B4908600120074908700BE0074896
:10022000006907490968884205D10020034908612F
:10023000488001490870704707000020D401002061
:1002400008000020704710B500F048FB10BD00000A
:100250000021074AD1610749096941F00401054AB3
:1002600011611146096941F04001116170470000B8
:10027000E0020020002002400021074AD161074926
:10028000096941F00201054A116111464861096995
:1002900041F0400111617047E0020020002002405F
:1002A0000022054BDA61054A126942F00102034B54
:1002B0001A61018070470000E00200200020024027
:1002C00000201E49C96801F0100139B11C49C969F3
:1002D00041F002011A4AD16140F010001749C96883
:1002E00001F0040139B11649C96941F00101144A0C
:1002F000D16140F004001149C96901F0010169B1FF
:100300000F49C96941F004010D4AD16100BF0B4991
:10031000C96921F00101094AD16100BF00BF40F263
:100320000111884206D10549C96921F00101034A3A
:10033000D16101E00149C86000BF70470020024060
:10034000E002002070B5044600F0A2FD054609E079
:10035000601C38B124B100F09BFD401BA04201D9C4
:10036000032070BD1248C06800F001000028EFD1E2
:100370000F48C06800F0200020B100BF20200C49C9
:10038000C86000BF0A48C06800F0100048B90848BB
:10039000C06900F0010020B90548C06800F0040001
:1003A00018B1FFF78DFF0120DBE70020D9E700003F
:1003B0000020024010B504210D4801F00BFE0D494C
:1003C00008620846806B81F83D000B48007828B928
:1003D000084690F8350008B902F04AFA0548006965
:1003E000022803D30120034981F8360010BD000024
:1003F00060000020D40100203802002009E00268DB
:100400000A600A68521C12B900220A6002E0001D4C
:10041000091DF4E700BF70472DE9F84F04468846F0
:10042000154600262F4600F07DFB204600F036F8EA
:10043000814604EB870A504600F030F883460020DE
:10044000154908600846C0F80890ABEB0900012187
:1004500001EB90201049C86069460F4800F0DEF9B2
:1004600018B100F035FABDE8F88F0EE058F826C054
:10047000624600232146022000F0FCFA10B9241D38
:10048000761C02E000F024FAEDE7BE42EEDB00F05D
:10049000E5FA0020E7E700005000002002460021B6
:1004A0000FE0481C800200F10060904208D98802E9
:1004B00000F10060904203D8880200F100607047AC
:1004C000491C8029EDDB4FF0FF30F8E770B504469A
:1004D000002594F82100022803D00420A063012500
:1004E00048E02068006820F00E002168086020685D
:1004F000006820F00100216808601F4920688842D8
:1005000001D1012026E01C4914312068884201D124
:1005100010201FE0184928312068884201D1801539
:1005200018E015493C312068884201D1801411E05F
:10053000114950312068884202D14FF4803009E0DF
:100540000D4964312068884202D14FF4801001E0E7
:100550004FF08070084908394860012084F8210074
:1005600000BF002084F8200000BF606B10B120465F
:10057000616B8847284670BD0800024070B504468C
:10058000E06B05682068066894F8401004208840F5
:100590002840002846D006F00400002842D02068F9
:1005A000006800F0200028B92068006820F00400EE
:1005B0002168086057492068884201D1042027E05B
:1005C000544914312068884201D1402020E051492B
:1005D00028312068884201D1001519E04D493C318D
:1005E0002068884202D14FF4804011E049495031DF
:1005F0002068884202D14FF4802009E045496431E7
:100600002068884202D14FF4800001E04FF0806002
:10061000404908394860E06A00287AD02046E16AFB
:10062000884776E094F84010022088402840A0B324
:1006300006F0020088B32068006800F0200040B98E
:100640002068006820F00A0021680860012084F812
:10065000210030492068884201D1022028E02D493C
:1006600014312068884201D1202021E02949283115
:100670002068884201D140151AE026493C312068A3
:10068000884202D14FF4005012E0224950312068D4
:10069000884203D14FF400300AE017E01D4964316D
:1006A0002068884202D14FF4001001E04FF0007042
:1006B00018490839486000BF002084F8200000BFB6
:1006C000A06A30B32046A16A884722E094F840101F
:1006D000082088402840E0B106F00800C8B1206832
:1006E000006820F00E002168086094F84010012096
:1006F0008840E16B48600120A06384F8210000BFBE
:10070000002084F8200000BF206B10B12046216B30
:10071000884770BD080002400146002209B9012047
:100720007047164B0868C01A1423B0FBF3F0800022
:10073000086412480838C863022081F8210008685C
:10074000026843F6F0708243D1E901031843CB6895
:1007500018430B6918434B6918438B691843CB69DD
:10076000184302430868026000208863012081F872
:100770002100002081F8200000BFD1E708000240DE
:100780002DE9F04104460D4616461F464FF000087D
:1007900000BF94F82000012802D10220BDE8F081BA
:1007A000012084F8200000BF94F8210001282CD1FA
:1007B000022084F821000020A0632068006820F057
:1007C0000100216808603B46324629462046FFF773
:1007D00003FDE06A30B12068006840F00E00216837
:1007E00008600BE02068006820F0040021680860C1
:1007F0002068006840F00A002168086020680068EE
:1008000040F001002168086006E000BF002084F885
:10081000200000BF4FF002084046BFE72DE9F0413D
:1008200004460E460127002500BF2648007E012809
:1008300002D10220BDE8F08101202249087600BFE4
:100840002068022813D14CF25030FFF77BFD90BB9B
:100850000120FFF7FDFC4CF25030FFF773FD074617
:100860001948006920F004001749086123E04CF2A0
:100870005030FFF767FDF0B94FF0FF303060A568EA
:1008800012E02846FFF7F8FC4CF25030FFF75AFD13
:1008900007460D48006920F002000B4908610FB1BE
:1008A000356007E005F58065D4E9021001EB802092
:1008B000A842E6D800BF00BF00200249087600BF6A
:1008C0003846B7E7E00200200020024070470000F1
:1008D0000148C06970470000E002002010B5002404
:1008E0005C48C06800F0100020B95A48C06800F0A9
:1008F000040068B1584884684FF0FF30564988605A
:10090000FFF7DEFC204600F0B3F8002052490870E3
:100910005048C06800F02000002828D000BF2020E8
:100920004C49C86000BF4C48007800287ED04A4837
:100930000078012827D148484068401E4649486051
:1009400008464068A0B1084684682046FFF7BEFF0D
:100950004148806800F580643F4884603D480069F4
:1009600020F002003B4908612046FFF785FC5DE06E
:100970004FF0FF3004463849886000200870204658
:10098000FFF7A4FF52E03448007802280CD1314828
:10099000006920F004002F4908610020FFF796FF4E
:1009A00000202D49087041E02B484068401E2A492C
:1009B000486008464068D8B108468068801C886056
:1009C0000846846808694969000C40EA0140090C3E
:1009D000214A106151611F48006920F001001D4942
:1009E00008611069526981B22046FFF759FC1DE089
:1009F00019480078032804D117498868FFF766FF73
:100A00000EE015480078042805D113498968881E2E
:100A1000FFF75CFF04E010498968881FFFF756FF65
:100A20004FF0FF300C498860002008700A480078B9
:100A300078B90848006920F00700064908610846AF
:100A4000006920F4A050086100BF00200249087628
:100A500000BF10BD00200240E002002003480069F2
:100A600040F08000014908610020704700200240EA
:100A7000704700002DE9FE4F05468B461746984605
:100A8000012600240020029000BF2448007E012897
:100A900002D10220BDE8FE8F01202049087600BF68
:100AA0004CF25030FFF74EFC064686BB012D02D1BA
:100AB0000120029006E0022D02D10220029001E006
:100AC0000420029000241EE02201B946C246484696
:100AD0005146FFF727FB80B20190022000FB04B0D3
:100AE00000900199FFF7DCFB4CF25030FFF72AFC35
:100AF00006460B48006920F001000949086106B16B
:100B000004E0601CC4B202988442DDDB00BF00BF79
:100B100000200249087600BF3046BBE7E002002013
:100B20000020024000200849096901F0800151B10C
:100B30000649054A5160064951601146096901F0AC
:100B4000800101B101207047002002402301674568
:100B5000AB89EFCD2DE9F8470346002294466EE1BC
:100B60004FF0010808FA02F4D1F8008008EA040006
:100B7000A0427DD1DFF8DCA2D1F80480A8EB0A09FD
:100B8000D0453AD014DCB8F1030F50D009DCB8F1ED
:100B9000000F31D0B8F1010F1CD0B8F1020F49D1CC
:100BA00020E0B8F1110F18D0B8F1120F42D11EE0B9
:100BB000B9F5881F25D006DCB9F5803F20D0B9F5FE
:100BC000801F37D11AE0B9F5001F18D0B9F5041FFE
:100BD00030D117E0D1F80CC02DE0D1F80C8008F12D
:100BE000040C28E0D1F80C8008F1080C23E0D1F8BF
:100BF0000C8008F10C0C1EE000BF00BF00BF00BF5E
:100C000000BF00BFD1F80880B8F1000F02D14FF04B
:100C1000040C0BE0D1F80880B8F1010F03D14FF0BC
:100C2000080C1C6102E04FF0080C5C6103E04FF01F
:100C3000000C00E000BF00BFFF2801D8984601E08B
:100C400003F104084646FF2802D84FEA820803E071
:100C5000A2F108084FEA88084746D6F800804FF00E
:100C60000F0909FA07F928EA09080CFA07F900E060
:100C700088E048EA0908C6F80080D1F8048008F046
:100C80008058B8F1805F7DD100BFDFF8CC81D8F803
:100C9000188048F00108DFF8C091C9F81880C846EC
:100CA000D8F8188008F00108CDF8008000BF00BF18
:100CB0004FEAB9384FEA920958F829504FEA82783A
:100CC0004FEA18794FF00F0808FA09F825EA0805E5
:100CD000DFF88881434502D14FF0000816E0DFF8C5
:100CE0008081434502D14FF001080FE0DFF87481A5
:100CF000434502D14FF0020808E0DFF86C8143451C
:100D000002D14FF0030801E04FF004084FEA827966
:100D10004FEA197908FA09F848EA0505DFF84C8125
:100D20004FEA920948F82950D1F8048008F4803835
:100D3000B8F5803F0AD1DFF83881D8F8008048EA5A
:100D40000008DFF82C91C9F8008009E0DFF8208165
:100D5000D8F8008028EA0008DFF81491C9F800806C
:100D6000D1F8048008F40038B8F5003F10D1DFF85E
:100D7000008108F10408D8F8008048EA0008DFF88C
:100D8000F09000E05AE009F10409C9F800800DE094
:100D9000DFF8DC8008F10408D8F8008028EA0008B1
:100DA000DFF8CC9009F10409C9F80080D1F804807B
:100DB00008F48018B8F5801F0ED1DFF8B48008F170
:100DC0000808D8F8008048EA0008DFF8A49009F184
:100DD0000809C9F800800DE0DFF8948008F10808E0
:100DE000D8F8008028EA0008DFF8849009F10809A3
:100DF000C9F80080D1F8048008F40018B8F5001F85
:100E00000ED1DFF86C8008F10C08D8F8008048EAB1
:100E10000008DFF85C9009F10C09C9F800800DE0CA
:100E2000DFF84C8008F10C08D8F8008028EA0008A8
:100E3000DFF83C9009F10C09C9F80080521CD1F888
:100E4000008028FA02F8B8F1000F7FF489AEBDE8FF
:100E5000F887000000001110001002400008014057
:100E6000000C014000100140001401400800014046
:100E700000040140C2680A400AB1416100E001611A
:100E800070470AB1016101E00B0403617047000083
:100E900001480068704700004000002003480068D7
:100EA0000349097808440149086070474000002060
:100EB0004800002010B50848006840F010000649BE
:100EC0000860032000F0C4F8022000F007F800F0EA
:100ED0002BF8002010BD00000020024070B5044631
:100EE0000E4800784FF47A71B1FBF0F00C490968B4
:100EF000B1FBF0F5284600F039FC08B1012070BDC7
:100F0000102C07D200222146501E00F063F805483D
:100F1000046001E00120F2E70020F0E74800002033
:100F20004C0000204400002008B500BF1F48806925
:100F300040F001001D4988610846806900F0010009
:100F4000009000BF00BF00BF0846C06940F080505D
:100F5000C8610846C06900F08050009000BF00BF23
:100F6000042000F075F800221146012000F032F84C
:100F7000012000F01FF800221146042000F02AF89A
:100F8000042000F017F800221146052000F022F896
:100F9000052000F00FF800BF0549486820F0E06028
:100FA00040F00070486000BF08BD00000010024023
:100FB0000000014001460846002809DB00F01F033D
:100FC00001229A4043099B0003F1E023C3F800216A
:100FD00000BF70472DE9F05F80460D46164600279A
:100FE00002F0C0FA074639462A46334601F00700A8
:100FF000C0F1070ABAF1040F02D94FF0040A01E068
:10100000C0F1070AD14600F1040ABAF1070F02D273
:101010004FF0000A01E0A0F1030AD4464FF0010AA4
:101020000AFA09FAAAF1010A0AEA020A0AFA0CFA09
:101030004FF0010B0BFA0CFBABF1010B0BEA030BAE
:101040004AEA0B042146404602F094FABDE8F09FBC
:1010500000BF00F00702064B19684FF6FF03194066
:10106000044B0B4343EA0221014B196000BF704758
:101070000CED00E00000FA057047000010B50648CE
:10108000006800F4803028B1FFF7F6FF4FF480309D
:101090000149086010BD00001404014070B5044609
:1010A0000D460CB9012070BD5A48006800F00700D9
:1010B000A8420ED25748006820F00700284355493F
:1010C00008600846006800F00700A84201D001202F
:1010D000E9E7207800F0020002281DD1207800F016
:1010E0000400042805D14C48406840F4E0604A49B7
:1010F0004860207800F00800082805D1464840687C
:1011000040F46050444948604348406820F0F00093
:10111000A168084340494860207800F0010078B396
:101120006068012806D13C48006800F4003090B99E
:101130000120B8E76068022806D13748006800F04F
:10114000007040B90120AEE73348006800F00200AB
:1011500008B90120A7E73048406820F00300616823
:1011600008432D494860FFF793FE064609E0FFF764
:101170008FFE801B41F28831884202D9032092E71A
:1011800007E02548406800F00C006168B0EB810F73
:10119000EDD12048006800F00700A8420ED91D4894
:1011A000006820F0070028431A49086008460068D4
:1011B00000F00700A84201D0012074E7207800F079
:1011C0000400042807D11448406820F4E060E16876
:1011D000084311494860207800F00800082808D129
:1011E0000D48406820F46050216940EAC1000A4976
:1011F000486000F03FF808494968C1F30311074A05
:10120000515CC8400649086006480068FFF766FE62
:10121000002048E70020024000100240803A000809
:101220004C00002044000020014800687047000086
:101230004C00002000B5FFF7F7FF04494968C1F3EF
:101240000221034A515CC84000BD0000001002406A
:10125000903A000800B5FFF7E7FF04494968C1F379
:10126000C221034A515CC84000BD0000001002408A
:10127000903A0008F0B585B00FF26C0C9CE8E010D5
:1012800001A8A0E8E0101CA52D680095002100220F
:10129000002300240020194D696801F00C05F5B108
:1012A000042D02D0082D19D101E0154819E001AD37
:1012B000C1F38346AC5D01F4803555B10F4D6D68C7
:1012C000C5F340451DF805200D4D6543B5FBF2F310
:1012D00002E00C4D04FB05F3184602E000BF08488D
:1012E00000BF00BF05B0F0BD0203040506070809F2
:1012F0000A0B0C0D0E0F101001020000001002402E
:1013000000127A0000093D00F8B504460CB901202E
:10131000F8BD207800F00100002878D0F848406837
:1013200000F00C0004280CD0F548406800F00C00D8
:10133000082811D1F248406800F48030B0F5803FB1
:101340000AD1EF48006800F4003000285FD06068E0
:1013500000285CD10120DBE700BF6068B0F5803F6A
:1013600006D1E748006840F48030E549086028E08D
:10137000606858B9E248006820F48030E0490860AD
:101380000846006820F4802008601AE06068B0F524
:10139000A02F0BD1DA48006840F48020D8490860BB
:1013A0000846006840F4803008600AE0D4480068CD
:1013B00020F48030D24908600846006820F480207C
:1013C000086000BF606888B1FFF762FD054606E06F
:1013D000FFF75EFD401B642801D9032098E7C84849
:1013E000006800F400300028F2D010E0FFF750FD54
:1013F000054606E0FFF74CFD401B642801D9032099
:1014000086E7BF48006800F400300028F2D1207859
:1014100000F00200022857D1B948406800F00C00E3
:1014200050B1B748406800F00C00082818D1B44803
:10143000406800F4803098B9B148006800F00200BC
:1014400020B12069012801D0012061E7AC48006883
:1014500020F0F800616940EAC100A949086033E062
:101460002069E8B10120A7490860FFF711FD054692
:1014700006E0FFF70DFD401B022801D9032047E7D6
:101480009F48006800F002000028F2D09C480068E5
:1014900020F0F800616940EAC1009949086013E052
:1014A000002098490860FFF7F3FC054606E0FFF7C7
:1014B000EFFC401B022801D9032029E7904800686F
:1014C00000F002000028F2D1207800F0080008287F
:1014D0002DD1A069B8B101208B490860FFF7D8FC75
:1014E000054606E0FFF7D4FC401B022801D9032083
:1014F0000EE78348406A00F002000028F2D0012085
:1015000001F008FA13E000207F490860FFF7C0FCF3
:10151000054606E0FFF7BCFC401B022801D903206A
:10152000F6E67748406A00F002000028F2D1207801
:1015300000F00400042873D100277148C06900F04E
:10154000805070B900BF6E48C06940F080506C494F
:10155000C8610846C06900F08050009000BF00BF1D
:1015600001276A48006800F48070B0B967480068D5
:1015700040F4807065490860FFF78AFC054606E084
:10158000FFF786FC401B642801D90320C0E65F48B2
:10159000006800F480700028F2D000BFE0680128E5
:1015A00006D15748006A40F001005549086227E01B
:1015B000E06858B95248006A20F0010050490862BA
:1015C0000846006A20F00400086219E0E068052877
:1015D0000BD14B48006A40F00400494908620846B4
:1015E000006A40F0010008620AE04548006A20F005
:1015F0000100434908620846006A20F004000862BE
:1016000000BFE068A0B1FFF743FC054609E0FFF723
:101610003FFC401B41F28831884202D9032077E623
:1016200022E03748006A00F002000028EFD012E004
:10163000FFF72EFC054608E0FFF72AFC401B41F2AD
:101640008831884201D9032062E62D48006A00F003
:1016500002000028F0D1012F05D12948C06920F0EF
:1016600080502749C86100BFE069C8B3244840687A
:1016700000F00C00082860D0E069022848D1002062
:1016800020490866FFF704FC054606E0FFF700FC6A
:10169000401B022801D903203AE61948006800F0EF
:1016A00000700028F2D1206AB0F5803F07D11448BD
:1016B000406820F40030A168084311494860D4E92B
:1016C000080108430E49496821F4741108430C4984
:1016D000486001200B490866FFF7DAFB054607E082
:1016E0003DE0FFF7D5FB401B022801D903200FE6A0
:1016F0000348006800F000700028F2D02FE00000DE
:10170000001002400000424280044242007000404B
:10171000002014490866FFF7BBFB054606E0FFF70B
:10172000B7FB401B022801D90320F1E50E480068F1
:1017300000F000700028F2D111E0E069012800D12A
:10174000E6E50948466806F48031206A814204D102
:1017500006F47011606A814201D00120D8E50020B2
:10176000D6E50000000042420010024070B5044679
:101770002546681EB0F1807F01D301200FE0681E6E
:101780004FF0E02148610F214FF0FF3001F0F2FEF1
:1017900000204FF0E021886107200861002070BD23
:1017A0007047704710B5024600BF92F83C00012810
:1017B00001D1022010BD012082F83C0000BF0220B0
:1017C00082F83D00106843681068846823F0700355
:1017D0000868034324F080044868044310684360A9
:1017E00010688460012082F83D0000BF002082F86C
:1017F0003C0000BF00BFDDE710B504460CB9012076
:1018000010BD94F83D0028B9002084F83C00204623
:1018100000F00CF8022084F83D00211D206801F042
:101820005DFA012084F83D000020E9E710B586B09C
:101830000446002002900390049005902068B0F1C7
:10184000804F38D100BF2A48C06940F001002849C4
:10185000C8610846C06900F00100019000BF00BFE8
:1018600000BF0846806940F004008861084680692E
:1018700000F00400019000BF00BF4FF40040029050
:1018800000200390049002A91A48FFF763F900BFF3
:101890001949486820F4407040F0E06040F48070DE
:1018A000486000BF002211461C20FFF793FB1C205C
:1018B000FFF780FB19E011492068884215D100BF6D
:1018C0000B48C06940F004000949C8610846C06976
:1018D00000F00400019000BF00BF002201211E2083
:1018E000FFF778FB1E20FFF765FB06B010BD000078
:1018F00000100240000801400000014000080040C4
:101900002DE9F04104460D4600BF94F83C00012843
:1019100002D10220BDE8F081012084F83C0000BF24
:10192000022084F83D002068866826F0770626F4B9
:101930007F46206886602868502833D00CDC202839
:1019400050D004DC00284BD0102851D149E0302879
:1019500049D040284CD139E060282DD0702807D0DC
:10196000B0F5805F03D0B0F5005F41D10DE040E0FD
:10197000D5E902136A68206801F0FBF920688668DF
:1019800046F077062068866033E0D5E902136A687E
:10199000206801F0EEF92068806840F480402168FA
:1019A000886026E0EA686968206801F0B3FA50218F
:1019B000206801F0E9F91CE0EA686968206801F034
:1019C000F1FA6021206801F0DFF912E0EA68696845
:1019D000206801F09FFA4021206801F0D5F908E065
:1019E00000BF00BF00BF2968206801F0CDF900E00A
:1019F00000BF00BF012084F83D0000BF002084F834
:101A00003C0000BF00BF85E710B504462068B0F178
:101A1000804F04D1207F012801D100F091FF206880
:101A2000B0F1804F04D1207F022801D1FEF7C2FC23
:101A300010BD2DE9F04104460D46164600BF94F84E
:101A40003C00012802D10220BDE8F081012084F889
:101A50003C0000BF022084F83D0096B9EB68D5E950
:101A60000012206801F06AFA2068806920F00C00FA
:101A70002168886120688069A968084321688861B5
:101A80003DE0042E13D1EB68D5E90012206801F087
:101A90009DFA2068806920F4406021688861206890
:101AA0008069A96840EA01202168886127E0082E42
:101AB00012D1EB68D5E90012206801F0A4FA206881
:101AC000C06920F00C002168C8612068C069A9685D
:101AD00008432168C86112E0EB68D5E9001220686C
:101AE00001F0ADFA2068C06920F440602168C86147
:101AF0002068C069A96840EA01202168C861012006
:101B000084F83D0000BF002084F83C0000BF00BF07
:101B10009AE710B504460CB9012010BD94F83D00B9
:101B200028B9002084F83C00204600F00CF8022080
:101B300084F83D00211D206801F0D0F8012084F8D0
:101B40003D000020E9E7704770B504460D4635B109
:101B5000042D0BD0082D10D00C2D1CD114E02068C2
:101B6000C06840F002002168C86015E02068C068C5
:101B700040F004002168C8600EE02068C06840F0B2
:101B800008002168C86007E02068C06840F01000C5
:101B90002168C86000E000BF00BF0122294620681C
:101BA00001F0D6F82068806800F00706062E05D000
:101BB0002068006840F0010021680860002070BDC6
:101BC00010B5044620680069C0F34000D8B1206811
:101BD000C068C0F34000B0B16FF002002168086136
:101BE000012020772068806900F0030018B12046AA
:101BF000FFF70AFF05E0204600F0E8F8204600F075
:101C0000DBF90020207720680069C0F38000D8B19C
:101C10002068C068C0F38000B0B16FF00400216894
:101C20000861022020772068806900F4407018B1B4
:101C30002046FFF7E9FE05E0204600F0C7F8204601
:101C400000F0BAF90020207720680069C0F3C000D6
:101C5000D8B12068C068C0F3C000B0B16FF0080010
:101C600021680861042020772068C06900F0030023
:101C700018B12046FFF7C8FE05E0204600F0A6F8A0
:101C8000204600F099F90020207720680069C0F311
:101C90000010D8B12068C068C0F30010B0B16FF078
:101CA000100021680861082020772068C06900F4CE
:101CB000407018B12046FFF7A7FE05E0204600F06F
:101CC00085F8204600F078F9002020772068006928
:101CD00000F0010058B12068C06800F0010030B188
:101CE0006FF0010021680861204600F067F9206864
:101CF0000069C0F3C01058B12068C068C0F3C010BC
:101D000030B16FF08000216808612046FFF748FD80
:101D100020680069C0F3801058B12068C068C0F323
:101D2000801030B16FF0400021680861204600F05B
:101D30006AF920680069C0F3401058B12068C06893
:101D4000C0F3401030B16FF02000216808612046D8
:101D5000FFF727FD10BD70B504460E46154600BFBF
:101D600094F83C00012801D1022070BD012084F8C4
:101D70003C0000BF022084F83D0035B1042D09D09D
:101D8000082D0CD00C2D14D10EE03146206801F046
:101D900005F80FE03146206801F030F80AE03146DE
:101DA000206801F05FF805E03146206801F08EF808
:101DB00000E000BF00BF012084F83D0000BF00200C
:101DC00084F83C0000BF00BFCFE7000010B5044618
:101DD00014492068884205D1207F012802D10020C3
:101DE00001F068F90F492068884205D1207F022858
:101DF00002D1012001F05EF90A492068884205D12C
:101E0000207F042802D1022001F054F905492068FE
:101E1000884205D1207F082802D1032001F04AF929
:101E200010BD00000008004010B504460CB90120A8
:101E300010BD94F83D0028B9002084F83C002046ED
:101E400000F00CF8022084F83D00211D206800F00D
:101E500045FF012084F83D000020E9E770470000BD
:101E600070B504460D4635B1042D0BD0082D10D0A9
:101E70000C2D1CD114E02068C06840F002002168DD
:101E8000C86015E02068C06840F004002168C860A0
:101E90000EE02068C06840F008002168C86007E0D4
:101EA0002068C06840F010002168C86000E000BFF2
:101EB00000BF01222946206800F04AFF0D49206832
:101EC000884201D1012000E0002028B12068406C48
:101ED00040F40040216848642068806800F00706EC
:101EE000062E05D02068006840F0010021680860D7
:101EF000002070BD002C014030B504460D4635B1C0
:101F0000042D0BD0082D10D00C2D1CD114E020680E
:101F1000C06820F002002168C86015E02068C06831
:101F200020F004002168C8600EE02068C06820F03E
:101F300008002168C86007E02068C06820F0100031
:101F40002168C86000E000BF00BF00222946206869
:101F500000F0FEFE17492068884201D1012000E010
:101F6000002090B100BF2068006A41F211110840C2
:101F700050B92068006A8910084028B92068406C70
:101F800020F400402168486400BF00BF2068006A58
:101F900041F21111084050B92068006A89100840C8
:101FA00028B92068006820F001002168086000BF9F
:101FB000002030BD002C0140704700000168B1F1E5
:101FC000804F04D10249896B491C014A91637047D3
:101FD000D40100200246002031B1042907D008298D
:101FE00008D00C290CD108E01368586B09E013687D
:101FF000986B06E01368D86B03E01368186C00E078
:1020000000BF00BF7047704703490978491C49B2B7
:10201000014A1170704700003C0000202DE9F04794
:102020000446206805682068C668206847694FF044
:102030000008C14605F00F08B8F1000F0AD105F0FD
:10204000200038B106F0200020B1204601F028F928
:10205000BDE8F087B8F1000F6DD007F0010018B9A6
:1020600006F49070002866D005F0010030B106F447
:10207000807018B1E06B40F00100E06305F00400EF
:1020800030B107F0010018B1E06B40F00200E063EE
:1020900005F0020030B107F0010018B1E06B40F02C
:1020A0000400E06305F0080030B107F0010018B14A
:1020B000E06B40F00800E063E06B68B305F02000DF
:1020C00028B106F0200010B1204601F0E9F82068A0
:1020D0004069C0F38019E06B00F0080010B9B9F155
:1020E000000F22D0204601F0B1F82068406900F0CE
:1020F0004000B0B12068406920F04000216848618C
:10210000606B50B11748616B4863606BFEF7DEF996
:1021100010B1606B416B88470CE02046FFF774FFFD
:1021200008E02046FFF770FF04E02046FFF76CFF51
:102130000020E0638CE705F0800030B106F08000FD
:1021400018B1204601F0D0F982E705F0400030B127
:1021500006F0400018B1204601F088F878E700BF8B
:1021600076E700005131000810B504460CB9012093
:1021700010BDA06900B100E000BF94F8390028B993
:10218000002084F83800204600F028F8242084F845
:1021900039002068C06820F400502168C8602046DB
:1021A00001F0D2F82068006920F4904021680861AD
:1021B0002068406920F02A00216848612068C068D2
:1021C00040F400502168C8600020E063202084F8BB
:1021D000390084F83A000020CAE7000010B586B044
:1021E000044600200290039004900590374920682F
:1021F000884269D100BF3648C06940F48020344924
:10220000C8610846C06900F48020019000BF00BF8B
:1022100000BF0846806940F0080088610846806970
:1022200000F00800019000BF00BF081502900220D6
:1022300003900320059002A92648FEF78BFC4FF47B
:102240000060029000200390049002A92148FEF74C
:1022500081FC2148214908600020486000211F4876
:1022600081608021C1600021016141618161C161A2
:10227000FEF752FA08B1FDF7E5FF00BF17486063AB
:10228000446200BF144814381549086010204860A3
:102290000021134881608021C160002101614161FA
:1022A0008161C161FEF738FA08B1FDF7CBFF00BFCD
:1022B0000B482063446200BF002211462720FEF72E
:1022C00089FE2720FEF776FE06B010BD00480040CC
:1022D00000100240000C01403000024020010020AC
:1022E0006401002077B581B00446154694F83A00A1
:1022F000202850D1029800B115B9012004B070BD5A
:1023000000BF94F83800012801D10220F6E701202F
:1023100084F8380000BF0298A062A5850020E06321
:10232000222084F83A001D48616B88621C48616B6A
:10233000C8621C48616B08630020616B486302AE91
:1023400032682368191D2B46606BFEF719FA00BF2F
:10235000002000902068006800902068406800908D
:1023600000BF00BF00BF002084F8380000BF206815
:10237000C06840F480702168C8602068406940F0FF
:102380000100216848612068406940F040002168F0
:1023900048610020B2E70220B0E70000B531000834
:1023A000FB3100086531000810B504462E220449AF
:1023B0000448FFF797FF00200349087010BD000094
:1023C000A2020020E000002004000020704700006E
:1023D000F7B50446154694F8390020283DD10198F8
:1023E00000B10DB90120FEBD00BF94F838000128EE
:1023F00001D10220F7E7012084F8380000BF0198DE
:102400002062A584E5840020E063212084F839005F
:102410001348216B88621348216BC8621248216BF4
:1024200008630020216B486301AE23681A1D3168E0
:102430002B46206BFEF7A4F96FF04000216808607E
:1024400000BF002084F8380000BF2068406940F0D9
:102450008000216848610020C5E70220C3E7000032
:10246000093200083F320008653100080121014AA5
:102470001170704703000020704700BFFEE70000A6
:1024800010B50446054AA2F11801204601F0EEF805
:10249000034908700846007810BD0000C401002000
:1024A0002800002008B500BF0E48406940F0010038
:1024B0000C4948610846406900F00100009000BFE7
:1024C00000BF002211460C20FEF784FD0C20FEF711
:1024D00071FD002211460D20FEF77CFD0D20FEF758
:1024E00069FD08BD0010024000B585B000200190D4
:1024F00002900390049000BF5448806940F010009F
:10250000524988610846806900F01000009000BFC1
:1025100000BF00BF0846806940F02000886108467F
:10252000806900F02000009000BF00BF00BF084697
:10253000806940F0040088610846806900F004006A
:10254000009000BF00BF00BF0846806940F008004F
:1025500088610846806900F00800009000BF00BF55
:1025600000224FF400513A48FEF78BFC002241F65E
:10257000FE713848FEF785FC00224FF2FF313648E5
:10258000FEF77FFC4FF400500190012002900020E4
:1025900003900320049001A92D48FEF7DBFA4FF4C5
:1025A0004040019000200290039001A92848FEF7C6
:1025B000D1FA41F63A700190012002900020039078
:1025C0000220049001A92348FEF7C4FA4420019098
:1025D00001200290002003900320049001A91D48CF
:1025E000FEF7B8FA8020019011200290002003909D
:1025F0000220049001A91748FEF7ACFA03200190CD
:1026000001200290002003900320049001A91248A9
:10261000FEF7A0FA4FF2FC2001900120029000206A
:1026200003900220049001A90B48FEF793FA4FF49F
:1026300080700190112002900020039002200490ED
:1026400001A90548FEF786FA05B000BD001002405A
:102650000010014000080140000C014000B58BB0A3
:1026600000200790089009900A900590069001902C
:102670000290039004904FF0804025490860372075
:1026800048600021224881604FF6FF71C16000213F
:1026900001618161FFF7B0F808B1FDF7D3FD4FF498
:1026A0008050079007A91A48FFF72AF908B1FDF7EB
:1026B000C9FD1748FFF72DFA08B1FDF7C3FD00204B
:1026C0000590069005A91248FFF76CF808B1FDF7D0
:1026D000B9FD00200190012002900020039003200A
:1026E0000490002201A90A48FFF7A3F908B1FDF7F9
:1026F000A9FD02200190029000200490042201A96B
:102700000348FFF796F908B1FDF79CFD0BB000BD3B
:102710006000002000B58DB0002009900A900B9059
:102720000C90079008901C216846FDF712FD2D487B
:102730002D4908603720486000212B4881604FF602
:10274000FF71C160002101618161FFF755F808B197
:10275000FDF778FD4FF48050099009A92248FFF752
:10276000CFF808B1FDF76EFD1F48FFF75DFB08B11C
:10277000FDF768FD00200790089007A91A48FFF7A9
:1027800011F808B1FDF75EFD1020009000200190C7
:102790000220029000200490002269461248FFF7B0
:1027A000DAFA08B1FDF74EFD042269460E48FFF73C
:1027B000D2FA08B1FDF746FD0020009002900822F1
:1027C00069460948FFF7C7FA08B1FDF73BFD0C223F
:1027D00069460548FFF7BFFA08B1FDF733FD0DB0B4
:1027E00000BD000000080040A000002010B50B480C
:1027F0000B4908604FF4165048600021084881607A
:10280000C16001610C21416100218161C161FFF75B
:10281000ABFC08B1FDF716FD10BD000000480040FC
:10282000E000002000BFFEE7704710B5FEF726FC71
:1028300010BD7047F8B506460F4614461D46FEF714
:1028400027FB009014F8350038B90098304404EBA9
:10285000C5014860012004F8350004EBC50040685C
:102860000099884203D8002004F83500B847F8BD25
:1028700010B5002407E0244850F83410234840F8ED
:102880003410601CC4B2042CF5DB002000F0BEF84C
:10289000002000F08DF81D48001F40681C490968A1
:1028A000486301211948001F0172C068184909686E
:1028B000886301211548001F0174406914490968A3
:1028C000C86301211148001F0176C06910490968D9
:1028D000086401210D48001F80F8201000200C49D9
:1028E0000968486200210A48FFF7BAFA042108483B
:1028F000FFF7B6FA08210648FFF7B2FA0C210448A0
:10290000FFF7AEFA10BD0000180200203C020020C4
:10291000A000002008B508490968C9084FF47A7278
:10292000B1FBF2F14143009100BF00BF00994A1E84
:1029300000920029F9D108BD4C000020704700002A
:1029400010B500211148FFF745FB1149C861084641
:10295000806B81F83C0000200C49096848620C49F2
:1029600088630C4800780C490870084600780128F4
:1029700005D1074890F8350008B9FFF779FF0448FA
:102980000069401C0249086110BD00006000002081
:10299000D4010020140200203802002070470000FB
:1029A00010B540210148FEF765FA10BD000801404E
:1029B00010B50446012C05D1012240210448FEF740
:1029C00060FA04E0002240210148FEF75AFA10BDE7
:1029D000000C014010B54FF400510248FEF74AFACE
:1029E00010BD00000010014010B54FF48071024886
:1029F000FEF740FA10BD0000000C014010B5802128
:102A00000148FEF737FA10BD0008014010B5044632
:102A1000012C05D1012204210448FEF732FA04E01A
:102A2000002204210148FEF72CFA10BD00080140E5
:102A300010B5FFF7B5FF5648C16990F83C0001EBAF
:102A400000405349C8610846C069524988427DD850
:102A50004F48C06941F27441884277D34C48C069FD
:102A60004D49B1FBF0F04A4948800846408808804B
:102A7000084640880988401A4549C86008460088C9
:102A80004988B0EB410F15DA414800884049498830
:102A9000C0EB41003E498880404800783E494843A9
:102AA0003B4989884FF4B4725143B0FBF1F0384987
:102AB000886202E0002036498880354880883449A1
:102AC00048800846408835498988884221DB0120B2
:102AD000334908702E48016A90F83D0001EB004030
:102AE0002B490862086A00F055FE294948620846E9
:102AF000806A800908634888FFF7C2FC244981F88E
:102B000034000846006B91F83410484325490860AA
:102B100007E00020224908701D4981F8340021494E
:102B200008602048006800F21D501F4908600846F0
:102B3000006800F28F201D4908600846006841F2D5
:102B4000E61108441A490860164800E013E00088BE
:102B500080B2134948601448008881B21048C160AF
:102B60001248008881B20E4841611148008881B244
:102B70000B48C16101E00648C06900210D4801729F
:102B80000174017680F82010FFF70AFF10BD0000E5
:102B9000D40100202FFC0B002F82AE04A8010020DE
:102BA000140200202C0000203000002034000020FF
:102BB000380000203802002000B50D494888322135
:102BC00000F036FD0A49C880084600894988084453
:102BD0004010074908810846006A4FF4B471484321
:102BE0000349C969B0FBF1F0014981F82C0000BD2F
:102BF000D401002010B5FEF751F910BD00B58FB01B
:102C0000282105A8FDF7A5FA14216846FDF7A1FAC9
:102C100001200590000406900020079001200990F3
:102C200002200C90C1030D914FF4E0110E9105A804
:102C3000FEF76AFB08B1FDF705FB0F2000900220AC
:102C40000190002002904FF48060039000200490D7
:102C500002216846FEF722FA08B1FDF7F3FA0FB039
:102C600000BD00001148006840F001000F490860F5
:102C7000084640680E4908400C494860084600680C
:102C80000C490840094908600846006820F4802083
:102C900008600846406820F4FE0048604FF41F00BA
:102CA0008860C803044908607047000000100240B3
:102CB0000000FFF8FFFFF6FE08ED00E010B5024847
:102CC000FEF77EFF10BD00006000002010B5024836
:102CD000FEF776FF10BD0000A000002010B50268CE
:102CE000184B984208D0B0F1804F05D0164B98424F
:102CF00002D0164B984203D122F070024B681A435F
:102D0000104B984208D0B0F1804F05D00E4B98423E
:102D100002D00E4B984203D122F44072CB681A4382
:102D200022F080034C6943EA040202608B68C362AC
:102D30000B688362034B984201D10B690363012343
:102D4000436110BD002C0140000400400008004019
:102D500030B501F01F05012404FA05F3046A9C4311
:102D60000462046A01F01F0502FA05F52C430462AF
:102D700030BD30B50C46816821F47F4142EA03251D
:102D800025432943816030BD0A46816821F07001E6
:102D900042F00703194381607047000030B5056AAF
:102DA00025F001050562026A4368846924F0700415
:102DB00024F003040D682C4322F002028D682A439C
:102DC0000D4DA84206D100BF22F00802CD682A436B
:102DD00022F00402084DA84207D123F4807323F4A3
:102DE00000734D692B438D692B43436084614D68AB
:102DF0004563026230BD0000002C014030B5056A19
:102E000025F010050562026A4368846924F4E044F1
:102E100024F440740D6844EA052422F020028D68F1
:102E200042EA05120E4DA84207D100BF22F08002EF
:102E3000CD6842EA051222F04002094DA84209D1AC
:102E400023F4806323F400634D6943EA85038D69AD
:102E500043EA8503436084614D688563026230BD47
:102E6000002C014030B5056A25F480750562026AC0
:102E70004368C46924F0700424F003040D682C43F3
:102E800022F400728D6842EA05220F4DA84207D154
:102E900000BF22F40062CD6842EA052222F480627B
:102EA000094DA84209D123F4805323F400534D69FE
:102EB00043EA05138D6943EA05134360C4614D6815
:102EC000C563026230BD0000002C014030B5056AC8
:102ED00025F480550562036A4468C26922F4E04221
:102EE00022F440720D6842EA052223F400538D68F3
:102EF00043EA0533064DA84204D124F480444D69C9
:102F000044EA85144460C2614D680564036230BDC3
:102F1000002C014030B50B461446026A056A25F0C4
:102F200001050562816921F0F00141EA041122F0F6
:102F30000A021A438161026230BD000070B50C467E
:102F40001546066A26F0010606628169026A124E7B
:102F5000B04208D0B0F1804F05D0104EB04202D040
:102F60000F4EB04201D1012600E000261EB121F033
:102F70000301294301E041F0010121F0F001F026B5
:102F800006EA0316314322F00A0204F00A0632432D
:102F90008161026270BD0000002C0140000400400D
:102FA0000008004030B50B461446056A25F01005B0
:102FB00005628169026A21F4704141EA043122F01C
:102FC000A00242EA03128161026230BD70B50C4674
:102FD0001546066A26F0100606628169026A21F427
:102FE000407141EA052121F470414FF4704606EA30
:102FF0000336314322F0A002A02606EA041632432B
:103000008161026270BD70B50C461546066A26F4F1
:1030100080760662C169026A21F00301294321F02A
:10302000F001F02606EA0316314322F400724FF451
:10303000007606EA04263243C161026270BD70B5B3
:103040000C461546066A26F480560662C169026A75
:1030500021F4407141EA052121F470414FF470469A
:1030600006EA0336314322F400524FF4005606EAD2
:1030700004363243C161026270BD10B5FFF7B4FC83
:1030800010BD000010B5FFF7A5FCFDF781F800F0BA
:10309000D3FB0448007808B100F05AFCFFF78CFD20
:1030A00010BD00000600002010B5FFF7A7FCFDF7DB
:1030B000ABF810BD10B5044634B1012C10D0022C71
:1030C00015D0032C29D11EE00120FFF79FFC002121
:1030D0001348017213484069401C124948611DE0C1
:1030E0000020FFF793FC00210D48017416E0012039
:1030F000FFF75EFC00210A4801760A488069401CFF
:10310000084988610AE00020FFF752FC00210448CA
:1031100080F8201000F008F800E000BF00BF10BDEC
:1031200038020020D401002010B500210748FEF726
:10313000E3FE04210548FEF7DFFE08210348FEF701
:10314000DBFE0C210148FEF7D7FE10BDA0000020D9
:1031500070B505466C6A0020E085E0842046FEF7E5
:1031600053FF70BD70B506460025746A206840693B
:10317000C0F3C01594F83900212805D125B10020ED
:10318000E084204600F082F820684069C0F3801592
:1031900094F83A00222805D125B10020E085204688
:1031A00000F054F8E06B40F01000E0632046FEF7BA
:1031B0002BFF70BD70B505466C6A2868006800F08A
:1031C0002000B0B90020E0852068C06820F480703D
:1031D0002168C8602068406920F0010021684861CA
:1031E0002068406920F0400021684861202084F870
:1031F0003A002046FFF7D8F870BD70B50446656AFE
:103200002846FFF7E3F870BD70B505466C6A28687C
:10321000006800F0200070B90020E0842068406958
:1032200020F08000216848612068C06840F04000BC
:103230002168C86002E02046FFF718F970BD70B53C
:103240000446656A2846FFF717F970BD0168C9682A
:1032500021F490710268D1600168496921F001018F
:1032600002685161202180F83A10704710B5044679
:103270002068C06820F040002168C860202084F8E1
:1032800039002046FFF7F2F8002010BD0168C96838
:1032900021F0C0010268D160202180F83910704708
:1032A00070B5044694F83A0022284AD1A068B0F5D7
:1032B000805F13D1A56A206940B920684068C0F3D7
:1032C00008002880A06A801CA06219E0206840687D
:1032D000C0B22880A06A401CA06211E0206938B901
:1032E00020684068C1B2A26A501CA062117007E059
:1032F0002068406800F07F01A26A501CA062117033
:10330000E08D401E80B2E085C8B92068C06820F01A
:1033100020002168C8602068C06820F4807021689F
:10332000C8602068406920F00100216848612020C1
:1033300084F83A002046FFF737F8002070BD0020DF
:10334000FCE70220FAE7000070B50446216809692D
:1033500021F44051E2681143226811612269A16899
:103360001143626941EA02052168C96841F20C62B1
:10337000914329432268D1602168496921F4407151
:10338000A269114322685161564A2168914254D181
:10339000FDF760FF00EBC00101EB001162689200D5
:1033A000B1FBF2F100EBC00202EB001263689B007C
:1033B000B2FBF3F26423B2FBF3F202EBC20303EBC2
:1033C0000212A1EB8201322202EB01116422B1FB55
:1033D000F2F101F0F00100EBC00202EB00126368B1
:1033E0009B00B2FBF3F26423B2FBF3F201EB021297
:1033F00000EBC00101EB001163689B00B1FBF3F12E
:1034000000EBC00303EB00136668B600B3FBF6F3F2
:103410006426B3FBF6F303EBC30606EB0313A1EB41
:103420008301322303EB01116423B1FBF3F101F0BB
:103430000F0111442268916053E0FDF7FBFE00EBA1
:10344000C00101EB001162689200B1FBF2F100EBE8
:10345000C00202EB001263689B00B2FBF3F264232C
:10346000B2FBF3F202EBC20303EB0212A1EB820107
:10347000322202EB01116422B1FBF2F101F0F00102
:1034800000EBC00202EB001263689B00B2FBF3F298
:103490006423B2FBF3F201EB021200EBC00101EB7B
:1034A000001163689B00B1FBF3F100EBC00303EB79
:1034B00000136668B600B3FBF6F36426B3FBF6F3BD
:1034C00003EBC30606EB0313A1EB8301322303EBEB
:1034D00001116423B1FBF3F101F00F0111442268E3
:1034E000916070BD00380140014691F839002128F3
:1034F0002CD18868B0F5805F0FD10A6A1088C0F3BC
:1035000008000B685860086918B9086A801C0862CE
:1035100009E0086A401C086205E00B6A581C086252
:1035200018780B685860C88C401E80B2C88458B99F
:103530000868C06820F080000B68D8600868C06820
:1035400040F040000B68D860002070470220FCE784
:1035500010B50248FEF762FD10BD0000E00000203B
:1035600000BFFEE702480068C0F302207047000079
:103570000CED00E010B5002804DB0A07130E054A25
:10358000135406E00A07140E034A00F00F031B1F32
:10359000D45410BD00E400E018ED00E002E008C8DB
:1035A000121F08C1002AFAD170477047002001E0BD
:1035B00001C1121F002AFBD1704730B504460D46E9
:1035C000A818411015E034F81100984206DC481C98
:1035D00034F81000984201DB084630BD481C34F82E
:1035E0001000984202DA481CC5B200E00A46A8184A
:1035F00041109542E7DDFF20EFE7000010B50249DA
:103600000248FCF7FBFE10BDA801002000FC0108E9
:10361000002005E0044A411C515C044A1154401C3E
:103620002C28F7D370470000A2020020A801002038
:1036300010B50246054B1B889B1A4B43FF24B3FB76
:10364000F4F3134498B2014B1A8010BD0E00002011
:10365000002004E00349095C034A1154401C2C2853
:10366000F8D37047543A0008A80100202DE9F04132
:1036700007460D4616462888B84202DD3078BDE878
:10368000F081E88AB84201DAF07AF8E73B460B228B
:1036900000212846FFF791FF0446601C35F8100012
:1036A00035F81410401A1CD0FF2C1AD0601C305C66
:1036B000315D401A35F81410791A4843611C35F809
:1036C000111035F81420891A90FBF1F0315D08448F
:1036D00000F0FF08B8F1400F01D94FF04008404614
:1036E000CDE7FF20CBE70000FDF7E4FB00F0ECF8AE
:1036F000FFF784FAFEF7F8FEFEF7D4FEFEF7AEFF02
:10370000FFF708F8FFF772F81A480068C06840F041
:10371000010018490968C86000211648FEF714FA2C
:1037200004211448FEF710FA2E2213491348FEF71D
:10373000D9FD1DE0124890F83600012805D1FFF7A9
:1037400077F900200E4981F8360000230D4A0E4912
:103750001420FFF76FF801230A4A0C496420FFF791
:1037600069F80223074A0A494FF47A70FFF762F8B2
:10377000E0E7000060000020A2020020E00000203E
:10378000D40100205C0200207B3000088530000856
:10379000A9300008014621480068081A204A106034
:1037A000204890F82800126850436422B0FBF2F0E1
:1037B0001A4A126810441C4A10601A4890F82900EE
:1037C000174A126850436422B0FBF2F0174A12689D
:1037D0001044174A1060134890F82A00104A1268E3
:1037E00050436422B0FBF2F0124A12681044114AAE
:1037F00010600D4800680E4A126810440D4A1268A5
:1038000000EB6200054A106009480068094A126826
:103810001044064A106010460068704718000020E7
:1038200010000020A801002014000020200000202B
:103830001C000020240000202DE9F04119480078E8
:1038400070BB2E27002404E01748005D304486B288
:10385000641C292CF8D314480578472D12D004DCB9
:10386000022D07D0032D16D108E0692D0DD07E2D35
:1038700011D10DE001200D4908700DE000200B4929
:10388000087009E000F014F806E000F033F803E0F7
:10389000FFF7BEFE00E000BF00BF01200149087035
:1038A000BDE8F08104000020A202002006000020F4
:1038B00010B50B2202490348FCF7AEFD10BD000015
:1038C000A801002000FC010810B5FFF797FE06488C
:1038D000408818B9FFF7BCFEFFF7EAFF0120034953
:1038E00008700349087010BDA801002003000020E3
:1038F0000400002070B51248007801281FD12E2640
:103900007E201049087008460578012409E0601EF1
:103910000D49085C0B4908550846005D2844C5B2AE
:10392000641CB01EA042F2D8701E06490D5400203F
:10393000034908702E2203490448FEF749FD70BD73
:103940000300002074020020A8010020E0000020F5
:103950002DE9F84F3B48468890F8347042F20F70DA
:1039600086426CD8B7F57A7F69D24FF47A70B6FB8D
:10397000F0F0303000F0FF084FF47A70B6FBF0F151
:1039800000FB11646420B4FBF0F0303000F0FF095C
:103990006420B4FBF0F100FB11440A20B4FBF0F00A
:1039A000303000F0FF0A0A20B4FBF0F100FB1140B8
:1039B00000F1300B522024490870084680F801803D
:1039C00080F8029080F803A080F804B0412048718C
:1039D0006420B7FBF0F0303000F0FF096420B7FB43
:1039E000F0F100FB11740A20B4FBF0F0303000F06D
:1039F000FF0A0A20B4FBF0F100FB114000F1300B8C
:103A0000114880F8069080F807A080F808B00025DB
:103A100006E00D48415D00980844C0B200906D1C5E
:103A2000082DF6D30849009848720A2088720020B1
:103A3000064908700B2204490548FEF7C9FCBDE899
:103A4000F88F0000D4010020D002002003000020E5
:103A5000E00000201C004C1D1405D007C409B80B61
:103A6000AC0DA00F9411581B401F2823E02E983A4C
:103A7000403A3026190F0000282D37405A500A00CE
:103A8000000000000000000001020304060708090E
:103A90000000000001020304B83A00080000002002
:103AA000500000009C350008083B00085000002032
:103AB000B0060000AC350008000000000000000067
:103AC00000000000000000000000000000000000F6
:103AD00000000000000000000000000000000000E6
:103AE00000000000000000000000000000000000D6
:103AF00000000000000000000000000010000000B6
:083B0000010000000024F400A4
:04000005080000ED02
:00000001FF
