:020000040800F2
:100000001807002005010008C12F0008B32A0008C6
:10001000BD2F0008FB010008253D0008000000007E
:100020000000000000000000000000003531000862
:100030006502000800000000CB2F000855330008BF
:100040001F010008C32F00081F0100081F0100083E
:10005000B3020008D53000081F0100081F01000886
:100060001F0100081F0100081F0100081F010008F0
:100070001F0100081F0100081F01000829020008D5
:100080001F0100081F010008910100081F0100085E
:100090001F0100081F0100081F0100086702000877
:1000A0001F0100081F0100081F0100081F010008B0
:1000B000393400081F010008493400081F010008F6
:1000C0001F0100081F0100081F0100081F01000890
:1000D0001F010008153D00081F0100081F0100084E
:1000E0001F0100081F0100081F010008DFF810D0E1
:1000F00000F03CF800480047AD3E0008AFF3008038
:10010000180700200648804706480047FEE7FEE73C
:10011000FEE7FEE7FEE7FEE7FEE7FEE7FEE7FEE7B7
:10012000E1330008ED000008202A04DB203A21FA20
:1001300002F00021704721FA02F3D040C2F1200200
:100140009140084319467047D2B201E000F8012BF4
:10015000491EFBD270470022F6E710B513460A4647
:1001600004461946FFF7F0FF204610BD064C074D28
:1001700006E0E06840F0010394E807009847103477
:10018000AC42F6D3FFF7B6FF6C4200088C42000881
:1001900010B5034800F083FA024800F080FA10BD61
:1001A00094010020C401002070B504460025206899
:1001B000806800F00100F0B12068806820F0010044
:1001C0002168886001F004F905460EE001F000F9AD
:1001D000401B022809D9A06A40F01000A062E06A22
:1001E00040F00100E062012070BD2068806800F0EE
:1001F00001000028EAD10020F6E700BFFEE700007A
:100200000748408807494988884204DD012004499D
:1002100081F8350003E00020014981F8350070477E
:10022000A40000207800002010B5024800F036FC41
:1002300010BD0000B402002030B590F840500124F9
:10024000AC40C56B6C60046863604468102C04D1DA
:100250000468A2600468E16003E00468A1600468C7
:10026000E26030BD704710B54FF4007000F004FF3D
:1002700010BD00000B48007838B90B4800690B49E5
:1002800008600120074908700BE00748006907492A
:100290000968884205D10020034908614880014966
:1002A0000870704704000020A4000020080000200F
:1002B000704710B500F0A2FD10BD00000021074AF4
:1002C000D1610749096941F00401054A11611146EC
:1002D000096941F04001116170470000F8020020F7
:1002E000002002400021074AD1610749096941F015
:1002F0000201054A116111464861096941F0400156
:1003000011617047F8020020002002400022054BD6
:10031000DA61054A126942F00102034B1A61018059
:1003200070470000F80200200020024000201E4913
:10033000C96801F0100139B11C49C96941F00201D5
:100340001A4AD16140F010001749C96801F0040150
:1003500039B11649C96941F00101144AD16140F02F
:1003600004001149C96901F0010169B10F49C96966
:1003700041F004010D4AD16100BF0B49C96921F068
:100380000101094AD16100BF00BF40F2011188425A
:1003900006D10549C96921F00101034AD16101E093
:1003A0000149C86000BF704700200240F8020020E9
:1003B00070B5044601F00CF8054609E0601C38B140
:1003C00024B101F005F8401BA04201D9032070BD03
:1003D0001248C06800F001000028EFD10F48C06843
:1003E00000F0200020B100BF20200C49C86000BFF1
:1003F0000A48C06800F0100048B90848C06900F019
:10040000010020B90548C06800F0040018B1FFF7EA
:100410008DFF0120DBE70020D9E70000002002402B
:1004200010B504210D4802F00DF90D490862084687
:10043000806B81F83D000B48007828B9084690F899
:10044000350008B902F0E0FD05480069022803D331
:100450000120034981F8360010BD0000F40100209E
:10046000A40000200801002009E002680A600A6870
:10047000521C12B900220A6002E0001D091DF4E7B7
:1004800000BF70472DE9F84F044688461546002600
:100490002F4600F0D7FD204600F036F8814604EBE9
:1004A000870A504600F030F883460020154908605E
:1004B0000846C0F80890ABEB0900012101EB902041
:1004C0001049C86069460F4800F038FC18B100F0C8
:1004D0008FFCBDE8F88F0EE058F826C06246002376
:1004E0002146022000F056FD10B9241D761C02E0C2
:1004F00000F07EFCEDE7BE42EEDB00F03FFD0020A9
:10050000E7E7000050000020024600210FE0481CF1
:10051000800200F10060904208D9880200F100607A
:10052000904203D8880200F100607047491C80297E
:10053000EDDB4FF0FF30F8E77047000038B50246BA
:1005400000230020009000BF92F82400012801D170
:10055000022038BD012082F8240000BF4868072827
:1005600012D21068406B0C79641E04EB84051F24C2
:10057000AC40A0430D796D1E05EB85050C68AC40C1
:1005800020431468606327E048680D2812D2106881
:10059000006B0C79E41F04EB84051F24AC40A043DE
:1005A0000D79ED1F05EB85050C68AC402043146800
:1005B000206311E01068C06A0C790D3C04EB8405DF
:1005C0001F24AC40A0430D790D3D05EB85050C685B
:1005D000AC4020431468E06208680A2812D310680F
:1005E000C0680C780A3C04EB44050724AC40A043E7
:1005F0000D780A3D05EB45058C68AC402043146836
:10060000E0600FE0106800690C7804EB44050724F3
:10061000AC40A0430D7805EB45058C68AC40204309
:10062000146820610868102802D00868112827D1B2
:10063000174C1068A0421ED11068806800F40000BA
:10064000F0B91068806840F400001468A060086881
:10065000102815D10F4800680F4CB0FBF4F000EBE8
:1006600080004000009002E00098401E009000983A
:100670000028F9D104E0906A40F020009062012344
:1006800000BF002082F8240000BF184661E7000088
:10069000002401404C00002040420F00704710B57C
:1006A00004462068406800F0200020282FD12068F0
:1006B000006800F00200022829D1A06A00F01000B2
:1006C00018B9A06A40F40070A0622068806800F445
:1006D0006020B0F5602F13D1207B88B92068406876
:1006E00020F0200021684860A06A20F48070A06299
:1006F000A06A00F4805018B9A06A40F00100A0621E
:100700002046FFF7CBFF6FF01200216808602068D9
:10071000406800F0800080283BD12068006800F02D
:100720000400042835D1A06A00F0100018B9A06AAE
:1007300040F40050A0622068806800F4E040B0F50A
:10074000E04F0DD02068406800F48060D0B9206888
:10075000806800F46020B0F5602F13D1207B88B949
:100760002068406820F0800021684860A06A20F47A
:100770008050A062A06A00F4807018B9A06A40F0AE
:100780000100A0622046FFF7D7FE6FF00C00216841
:1007900008602068406800F0400040280FD12068C1
:1007A000006800F0010050B1A06A40F48030A062FF
:1007B000204600F0A7F86FF001002168086010BD26
:1007C0002DE9F0410446002700250026A84614B96B
:1007D0000120BDE8F081A06810B1207D00B100BF0C
:1007E000A06A30B90020E06284F82400204600F0BE
:1007F0008BF82046FFF7D8FC0746A06A00F01000EF
:10080000002873D1002F71D1A06A20F4885040F0E5
:100810000200A062E16960680843217B40EA410070
:100820000643A068B0F5807F02D0A068012802D1FD
:100830004FF4807000E000200543207D012811D195
:10084000207B38B9A069401E4FF4006141EA403076
:10085000054307E0A06A40F02000A062E06A40F093
:100860000100E0622068406820F469402843216864
:1008700048602068806821490840304321688860CA
:10088000A068B0F5807F02D0A068012802D14FF4A3
:10089000807000E00020B0F5807F03D1208A401EE8
:1008A0004FEA00582068C06A20F4700040EA08004F
:1008B0002168C8622068806811490840B04208D1A8
:1008C0000020E062A06A20F0020040F00100A06277
:1008D00011E0A06A20F0020040F01000A062E06A7F
:1008E00040F00100E062012705E0FFE7A06A40F068
:1008F0001000A062012738466BE70000FDF7E1FF1A
:10090000FE0E1FFF7047000010B586B004460020A1
:1009100002900390049005903049206888422BD1C2
:1009200000BF2F48806940F400702D498861084657
:10093000806900F40070019000BF00BF00BF08464E
:10094000806940F0040088610846806900F0040076
:10095000019000BF00BF382002900320039002A93D
:10096000204800F097FB00221146122000F0D2FD33
:10097000122000F0BFFD2EE01B49206888422AD1DA
:1009800000BF1748806940F48060154988610846B7
:10099000806900F48060019000BF00BF00BF08467E
:1009A000806940F0040088610846806900F0040016
:1009B000019000BF00BF382002900320039002A9DD
:1009C000084800F067FB00221146122000F0A2FD4B
:1009D000122000F08FFD06B010BD00000024014081
:1009E00000100240000801400028014070B5044694
:1009F000002594F82100022803D00420A0630125DB
:100A000048E02068006820F00E0021680860206837
:100A1000006820F00100216808601F4920688842B2
:100A200001D1012026E01C4914312068884201D1FF
:100A300010201FE0184928312068884201D1801514
:100A400018E015493C312068884201D1801411E03A
:100A5000114950312068884202D14FF4803009E0BA
:100A60000D4964312068884202D14FF4801001E0C2
:100A70004FF08070084908394860012084F821004F
:100A800000BF002084F8200000BF606B10B120463A
:100A9000616B8847284670BD0800024070B5044667
:100AA000E06B05682068066894F8401004208840D0
:100AB0002840002846D006F00400002842D02068D4
:100AC000006800F0200028B92068006820F00400C9
:100AD0002168086057492068884201D1042027E036
:100AE000544914312068884201D1402020E0514906
:100AF00028312068884201D1001519E04D493C3168
:100B00002068884202D14FF4804011E049495031B9
:100B10002068884202D14FF4802009E045496431C1
:100B20002068884202D14FF4800001E04FF08060DD
:100B3000404908394860E06A00287AD02046E16AD6
:100B4000884776E094F84010022088402840A0B3FF
:100B500006F0020088B32068006800F0200040B969
:100B60002068006820F00A0021680860012084F8ED
:100B7000210030492068884201D1022028E02D4917
:100B800014312068884201D1202021E029492831F0
:100B90002068884201D140151AE026493C3120687E
:100BA000884202D14FF4005012E0224950312068AF
:100BB000884203D14FF400300AE017E01D49643148
:100BC0002068884202D14FF4001001E04FF000701D
:100BD00018490839486000BF002084F8200000BF91
:100BE000A06A30B32046A16A884722E094F84010FA
:100BF000082088402840E0B106F00800C8B120680D
:100C0000006820F00E002168086094F84010012070
:100C10008840E16B48600120A06384F8210000BF98
:100C2000002084F8200000BF206B10B12046216B0B
:100C3000884770BD080002400146002209B9012022
:100C40007047164B0868C01A1423B0FBF3F08000FD
:100C5000086412480838C863022081F82100086837
:100C6000026843F6F0708243D1E901031843CB6870
:100C700018430B6918434B6918438B691843CB69B8
:100C8000184302430868026000208863012081F84D
:100C90002100002081F8200000BFD1E708000240B9
:100CA0002DE9F04104460D4616461F464FF0000858
:100CB00000BF94F82000012802D10220BDE8F08195
:100CC000012084F8200000BF94F8210001282CD1D5
:100CD000022084F821000020A0632068006820F032
:100CE0000100216808603B46324629462046FFF74E
:100CF000A3FAE06A30B12068006840F00E00216875
:100D000008600BE02068006820F00400216808609B
:100D10002068006840F00A002168086020680068C8
:100D200040F001002168086006E000BF002084F860
:100D3000200000BF4FF002084046BFE72DE9F04118
:100D400004460E460127002500BF2648007E0128E4
:100D500002D10220BDE8F08101202249087600BFBF
:100D60002068022813D14CF25030FFF721FB90BBD2
:100D70000120FFF7A3FA4CF25030FFF719FB0746AA
:100D80001948006920F004001749086123E04CF27B
:100D90005030FFF70DFBF0B94FF0FF303060A56821
:100DA00012E02846FFF79EFA4CF25030FFF700FBA6
:100DB00007460D48006920F002000B4908610FB199
:100DC000356007E005F58065D4E9021001EB80206D
:100DD000A842E6D800BF00BF00200249087600BF45
:100DE0003846B7E7F80200200020024070470000B4
:100DF0000148C06970470000F802002010B50024C7
:100E00005C48C06800F0100020B95A48C06800F083
:100E1000040068B1584884684FF0FF305649886034
:100E2000FFF784FA204600F0B3F80020524908701A
:100E30005048C06800F02000002828D000BF2020C3
:100E40004C49C86000BF4C48007800287ED04A4812
:100E50000078012827D148484068401E464948602C
:100E600008464068A0B1084684682046FFF7BEFFE8
:100E70004148806800F580643F4884603D480069CF
:100E800020F002003B4908612046FFF72BFA5DE0A5
:100E90004FF0FF3004463849886000200870204633
:100EA000FFF7A4FF52E03448007802280CD1314803
:100EB000006920F004002F4908610020FFF796FF29
:100EC00000202D49087041E02B484068401E2A4907
:100ED000486008464068D8B108468068801C886031
:100EE0000846846808694969000C40EA0140090C19
:100EF000214A106151611F48006920F001001D491D
:100F000008611069526981B22046FFF7FFF91DE0C0
:100F100019480078032804D117498868FFF766FF4D
:100F20000EE015480078042805D113498968881E09
:100F3000FFF75CFF04E010498968881FFFF756FF40
:100F40004FF0FF300C498860002008700A48007894
:100F500078B90848006920F007000649086108468A
:100F6000006920F4A050086100BF00200249087603
:100F700000BF10BD00200240F802002003480069B5
:100F800040F08000014908610020704700200240C5
:100F9000704700002DE9FE4F05468B4617469846E0
:100FA000012600240020029000BF2448007E012872
:100FB00002D10220BDE8FE8F01202049087600BF43
:100FC0004CF25030FFF7F4F9064686BB012D02D1F2
:100FD0000120029006E0022D02D10220029001E0E1
:100FE0000420029000241EE02201B946C246484671
:100FF0005146FFF799F880B20190022000FB04B03F
:1010000000900199FFF782F94CF25030FFF7D0F9C8
:1010100006460B48006920F001000949086106B145
:1010200004E0601CC4B202988442DDDB00BF00BF54
:1010300000200249087600BF3046BBE7F8020020D6
:101040000020024000200849096901F0800151B1E7
:101050000649054A5160064951601146096901F087
:10106000800101B101207047002002402301674543
:10107000AB89EFCD7047000010B504460448006806
:10108000204020B1024804602046FFF7F3FF10BD66
:10109000140401402DE9F8470346002294466EE10E
:1010A0004FF0010808FA02F4D1F8008008EA0400C1
:1010B000A0427DD1DFF8DCA2D1F80480A8EB0A09B8
:1010C000D0453AD014DCB8F1030F50D009DCB8F1A8
:1010D000000F31D0B8F1010F1CD0B8F1020F49D187
:1010E00020E0B8F1110F18D0B8F1120F42D11EE074
:1010F000B9F5881F25D006DCB9F5803F20D0B9F5B9
:10110000801F37D11AE0B9F5001F18D0B9F5041FB8
:1011100030D117E0D1F80CC02DE0D1F80C8008F1E7
:10112000040C28E0D1F80C8008F1080C23E0D1F879
:101130000C8008F10C0C1EE000BF00BF00BF00BF18
:1011400000BF00BFD1F80880B8F1000F02D14FF006
:10115000040C0BE0D1F80880B8F1010F03D14FF077
:10116000080C1C6102E04FF0080C5C6103E04FF0DA
:10117000000C00E000BF00BFFF2801D8984601E046
:1011800003F104084646FF2802D84FEA820803E02C
:10119000A2F108084FEA88084746D6F800804FF0C9
:1011A0000F0909FA07F928EA09080CFA07F900E01B
:1011B00088E048EA0908C6F80080D1F8048008F001
:1011C0008058B8F1805F7DD100BFDFF8CC81D8F8BE
:1011D000188048F00108DFF8C091C9F81880C846A7
:1011E000D8F8188008F00108CDF8008000BF00BFD3
:1011F0004FEAB9384FEA920958F829504FEA8278F5
:101200004FEA18794FF00F0808FA09F825EA08059F
:10121000DFF88881434502D14FF0000816E0DFF87F
:101220008081434502D14FF001080FE0DFF874815F
:10123000434502D14FF0020808E0DFF86C814345D6
:1012400002D14FF0030801E04FF004084FEA827921
:101250004FEA197908FA09F848EA0505DFF84C81E0
:101260004FEA920948F82950D1F8048008F48038F0
:10127000B8F5803F0AD1DFF83881D8F8008048EA15
:101280000008DFF82C91C9F8008009E0DFF8208120
:10129000D8F8008028EA0008DFF81491C9F8008027
:1012A000D1F8048008F40038B8F5003F10D1DFF819
:1012B000008108F10408D8F8008048EA0008DFF847
:1012C000F09000E05AE009F10409C9F800800DE04F
:1012D000DFF8DC8008F10408D8F8008028EA00086C
:1012E000DFF8CC9009F10409C9F80080D1F8048036
:1012F00008F48018B8F5801F0ED1DFF8B48008F12B
:101300000808D8F8008048EA0008DFF8A49009F13E
:101310000809C9F800800DE0DFF8948008F108089A
:10132000D8F8008028EA0008DFF8849009F108095D
:10133000C9F80080D1F8048008F40018B8F5001F3F
:101340000ED1DFF86C8008F10C08D8F8008048EA6C
:101350000008DFF85C9009F10C09C9F800800DE085
:10136000DFF84C8008F10C08D8F8008028EA000863
:10137000DFF83C9009F10C09C9F80080521CD1F843
:10138000008028FA02F8B8F1000F7FF489AEBDE8BA
:10139000F887000000001110001002400008014012
:1013A000000C014000100140001401400800014001
:1013B00000040140C2680A400AB1416100E00161D5
:1013C00070470AB1016101E00B040361704700003E
:1013D0000148006870470000400000200348006892
:1013E000034909780844014908607047400000201B
:1013F0004800002010B50848006840F01000064979
:101400000860032000F0C4F8022000F007F800F0A4
:101410002BF8002010BD00000020024070B50446EB
:101420000E4800784FF47A71B1FBF0F00C4909686E
:10143000B1FBF0F5284600F0D1FC08B1012070BDE9
:10144000102C07D200222146501E00F063F80548F8
:10145000046001E00120F2E70020F0E748000020EE
:101460004C0000204400002008B500BF1F488069E0
:1014700040F001001D4988610846806900F00100C4
:10148000009000BF00BF00BF0846C06940F0805018
:10149000C8610846C06900F08050009000BF00BFDE
:1014A000042000F075F800221146012000F032F807
:1014B000012000F01FF800221146042000F02AF855
:1014C000042000F017F800221146052000F022F851
:1014D000052000F00FF800BF0549486820F0E060E3
:1014E00040F00070486000BF08BD000000100240DE
:1014F0000000014001460846002809DB00F01F03F8
:1015000001229A4043099B0003F1E023C3F8002124
:1015100000BF70472DE9F05F80460D461646002754
:1015200002F002FC074639462A46334601F007001E
:10153000C0F1070ABAF1040F02D94FF0040A01E022
:10154000C0F1070AD14600F1040ABAF1070F02D22E
:101550004FF0000A01E0A0F1030AD4464FF0010A5F
:101560000AFA09FAAAF1010A0AEA020A0AFA0CFAC4
:101570004FF0010B0BFA0CFBABF1010B0BEA030B69
:101580004AEA0B042146404602F0D6FBBDE8F09F34
:1015900000BF00F00702064B19684FF6FF03194021
:1015A000044B0B4343EA0221014B196000BF704713
:1015B0000CED00E00000FA057047000010B5064889
:1015C000006800F4803028B1FFF7F6FF4FF4803058
:1015D0000149086010BD000014040140F8B504463C
:1015E00000260025207800F0010000286BD000279D
:1015F0004348C06900F0805070B900BF4048C069DE
:1016000040F080503E49C8610846C06900F08050F3
:10161000009000BF00BF01273A48006800F48070C6
:10162000B0B93848006840F4807036490860FFF768
:10163000CFFE064606E0FFF7CBFE801B642801D9EB
:101640000320F8BD2F48006800F480700028F2D015
:101650002B48006A00F440752DB3A08800F4407058
:10166000A84220D02648006A20F44075012026496F
:101670000860002008602248056205F0010090B172
:10168000FFF7A6FE064608E0FFF7A2FE801B41F228
:101690008831884201D90320D3E71948006A00F055
:1016A00002000028F0D01648006A20F440706168FB
:1016B000084313490862012F04D10846C06920F08D
:1016C0008050C86100BF207800F00200022807D1D6
:1016D0000B48406820F44040A1680843084948602E
:1016E000207800F01000102807D10548406820F449
:1016F0008000E1680843024948600020A1E700003B
:1017000000100240007000404004424270B50446A0
:101710000D460CB9012070BD5A48006800F0070062
:10172000A8420ED25748006820F0070028435549C8
:1017300008600846006800F00700A84201D00120B8
:10174000E9E7207800F0020002281DD1207800F09F
:101750000400042805D14C48406840F4E0604A4940
:101760004860207800F00800082805D14648406805
:1017700040F46050444948604348406820F0F0001D
:10178000A168084340494860207800F0010078B320
:101790006068012806D13C48006800F4003090B928
:1017A0000120B8E76068022806D13748006800F0D9
:1017B000007040B90120AEE73348006800F0020035
:1017C00008B90120A7E73048406820F003006168AD
:1017D00008432D494860FFF7FBFD064609E0FFF787
:1017E000F7FD801B41F28831884202D9032092E73D
:1017F00007E02548406800F00C006168B0EB810FFD
:10180000EDD12048006800F00700A8420ED91D481D
:10181000006820F0070028431A490860084600685D
:1018200000F00700A84201D0012074E7207800F002
:101830000400042807D11448406820F4E060E168FF
:10184000084311494860207800F00800082808D1B2
:101850000D48406820F46050216940EAC1000A49FF
:10186000486000F03FF808494968C1F30311074A8E
:10187000515CC8400649086006480068FFF7CEFD85
:10188000002048E7002002400010024054420008B7
:101890004C00002044000020014800687047000010
:1018A0004C00002000B5FFF7F7FF04494968C1F379
:1018B0000221034A515CC84000BD000000100240F4
:1018C0006442000800B5FFF7E7FF04494968C1F327
:1018D000C221034A515CC84000BD00000010024014
:1018E00064420008F0B585B00FF26C0C9CE8E01083
:1018F00001A8A0E8E0101CA52D6800950021002299
:10190000002300240020194D696801F00C05F5B191
:10191000042D02D0082D19D101E0154819E001ADC0
:10192000C1F38346AC5D01F4803555B10F4D6D6850
:10193000C5F340451DF805200D4D6543B5FBF2F399
:1019400002E00C4D04FB05F3184602E000BF084816
:1019500000BF00BF05B0F0BD02030405060708097B
:101960000A0B0C0D0E0F10100102000000100240B7
:1019700000127A0000093D00F8B504460CB90120B8
:10198000F8BD207800F00100002878D0F8484068C1
:1019900000F00C0004280CD0F548406800F00C0062
:1019A000082811D1F248406800F48030B0F5803F3B
:1019B0000AD1EF48006800F4003000285FD060686A
:1019C00000285CD10120DBE700BF6068B0F5803FF4
:1019D00006D1E748006840F48030E549086028E017
:1019E000606858B9E248006820F48030E049086037
:1019F0000846006820F4802008601AE06068B0F5AE
:101A0000A02F0BD1DA48006840F48020D849086044
:101A10000846006840F4803008600AE0D448006856
:101A200020F48030D24908600846006820F4802005
:101A3000086000BF606888B1FFF7CAFC054606E091
:101A4000FFF7C6FC401B642801D9032098E7C8486B
:101A5000006800F400300028F2D010E0FFF7B8FC76
:101A6000054606E0FFF7B4FC401B642801D90320BB
:101A700086E7BF48006800F400300028F2D12078E3
:101A800000F00200022857D1B948406800F00C006D
:101A900050B1B748406800F00C00082818D1B4488D
:101AA000406800F4803098B9B148006800F0020046
:101AB00020B12069012801D0012061E7AC4800680D
:101AC00020F0F800616940EAC100A949086033E0EC
:101AD0002069E8B10120A7490860FFF779FC0546B5
:101AE00006E0FFF775FC401B022801D9032047E7F9
:101AF0009F48006800F002000028F2D09C4800686F
:101B000020F0F800616940EAC1009949086013E0DB
:101B1000002098490860FFF75BFC054606E0FFF7E8
:101B200057FC401B022801D9032029E79048006890
:101B300000F002000028F2D1207800F00800082808
:101B40002DD1A069B8B101208B490860FFF740FC96
:101B5000054606E0FFF73CFC401B022801D90320A4
:101B60000EE78348406A00F002000028F2D001200E
:101B700001F09CFA13E000207F490860FFF728FC81
:101B8000054606E0FFF724FC401B022801D903208C
:101B9000F6E67748406A00F002000028F2D120788B
:101BA00000F00400042873D100277148C06900F0D8
:101BB000805070B900BF6E48C06940F080506C49D9
:101BC000C8610846C06900F08050009000BF00BFA7
:101BD00001276A48006800F48070B0B9674800685F
:101BE00040F4807065490860FFF7F2FB054606E0A7
:101BF000FFF7EEFB401B642801D90320C0E65F48D5
:101C0000006800F480700028F2D000BFE06801286E
:101C100006D15748006A40F001005549086227E0A4
:101C2000E06858B95248006A20F001005049086243
:101C30000846006A20F00400086219E0E068052800
:101C40000BD14B48006A40F004004949086208463D
:101C5000006A40F0010008620AE04548006A20F08E
:101C60000100434908620846006A20F00400086247
:101C700000BFE068A0B1FFF7ABFB054609E0FFF746
:101C8000A7FB401B41F28831884202D9032077E646
:101C900022E03748006A00F002000028EFD012E08E
:101CA000FFF796FB054608E0FFF792FB401B41F269
:101CB0008831884201D9032062E62D48006A00F08D
:101CC00002000028F0D1012F05D12948C06920F079
:101CD00080502749C86100BFE069C8B32448406804
:101CE00000F00C00082860D0E069022848D10020EC
:101CF00020490866FFF76CFB054606E0FFF768FB26
:101D0000401B022801D903203AE61948006800F078
:101D100000700028F2D1206AB0F5803F07D1144846
:101D2000406820F40030A168084311494860D4E9B4
:101D3000080108430E49496821F4741108430C490D
:101D4000486001200B490866FFF742FB054607E0A3
:101D50003DE0FFF73DFB401B022801D903200FE6C1
:101D60000348006800F000700028F2D02FE0000067
:101D700000100240000042428004424200700040D5
:101D8000002014490866FFF723FB054606E0FFF72D
:101D90001FFB401B022801D90320F1E50E48006813
:101DA00000F000700028F2D111E0E069012800D1B4
:101DB000E6E50948466806F48031206A814204D18C
:101DC00006F47011606A814201D00120D8E500203C
:101DD000D6E50000000042420010024070B5044603
:101DE0002546681EB0F1807F01D301200FE0681EF8
:101DF0004FF0E02148610F214FF0FF3001F09CFFD0
:101E000000204FF0E021886107200861002070BDAC
:101E10007047704710B5024600BF92F83C00012899
:101E200001D1022010BD012082F83C0000BF022039
:101E300082F83D00106843681068846823F07003DE
:101E40000868034324F08004486804431068436032
:101E500010688460012082F83D0000BF002082F8F5
:101E60003C0000BF00BFDDE710B504460CB90120FF
:101E700010BD94F83D0028B9002084F83C002046AD
:101E800000F00CF8022084F83D00211D206801F0CC
:101E9000E3FA012084F83D000020E9E710B586B0A0
:101EA0000446002002900390049005902068B0F151
:101EB000804F38D100BF2A48C06940F0010028494E
:101EC000C8610846C06900F00100019000BF00BF72
:101ED00000BF0846806940F00400886108468069B8
:101EE00000F00400019000BF00BF4FF400400290DA
:101EF00000200390049002A91A48FFF7CBF800BF16
:101F00001949486820F4407040F0E06040F4807067
:101F1000486000BF002211461C20FFF7FBFA1C207E
:101F2000FFF7E8FA19E011492068884215D100BF8F
:101F30000B48C06940F004000949C8610846C069FF
:101F400000F00400019000BF00BF002201211E200C
:101F5000FFF7E0FA1E20FFF7CDFA06B010BD000033
:101F6000001002400008014000000140000800404D
:101F70002DE9F04104460D4600BF94F83C000128CD
:101F800002D10220BDE8F081012084F83C0000BFAE
:101F9000022084F83D002068866826F0770626F443
:101FA0007F46206886602868502833D00CDC2028C3
:101FB00050D004DC00284BD0102851D149E0302803
:101FC00049D040284CD139E060282DD0702807D066
:101FD000B0F5805F03D0B0F5005F41D10DE040E087
:101FE000D5E902136A68206801F081FA20688668E2
:101FF00046F077062068866033E0D5E902136A6808
:10200000206801F074FA2068806840F480402168FC
:10201000886026E0EA686968206801F039FB502191
:10202000206801F06FFA1CE0EA686968206801F036
:1020300077FB6021206801F065FA12E0EA686968C0
:10204000206801F025FB4021206801F05BFA08E0E0
:1020500000BF00BF00BF2968206801F053FA00E00C
:1020600000BF00BF012084F83D0000BF002084F8BD
:102070003C0000BF00BF85E710B504462068B0F102
:10208000804F04D1207F012801D101F025F820687C
:10209000B0F1804F04D1207F022801D1FEF7C0F9B2
:1020A00010BD2DE9F04104460D46164600BF94F8D8
:1020B0003C00012802D10220BDE8F081012084F813
:1020C0003C0000BF022084F83D0096B9EB68D5E9DA
:1020D0000012206801F0F0FA2068806920F00C00FE
:1020E0002168886120688069A9680843216888613F
:1020F0003DE0042E13D1EB68D5E90012206801F011
:1021000023FB2068806920F4406021688861206892
:102110008069A96840EA01202168886127E0082ECB
:1021200012D1EB68D5E90012206801F02AFB206883
:10213000C06920F00C002168C8612068C069A968E6
:1021400008432168C86112E0EB68D5E900122068F5
:1021500001F033FB2068C06920F440602168C86149
:102160002068C069A96840EA01202168C86101208F
:1021700084F83D0000BF002084F83C0000BF00BF91
:102180009AE710B504460CB9012010BD94F83D0043
:1021900028B9002084F83C00204600F00CF802200A
:1021A00084F83D00211D206801F056F9012084F8D3
:1021B0003D000020E9E7704770B504460D4635B193
:1021C000042D0BD0082D10D00C2D1CD114E020684C
:1021D000C06840F002002168C86015E02068C0684F
:1021E00040F004002168C8600EE02068C06840F03C
:1021F00008002168C86007E02068C06840F010004F
:102200002168C86000E000BF00BF012229462068A5
:1022100001F05CF92068806800F00706062E05D002
:102220002068006840F0010021680860002070BD4F
:1022300010B5044620680069C0F34000D8B120689A
:10224000C068C0F34000B0B16FF0020021680861BF
:10225000012020772068806900F0030018B1204633
:10226000FFF70AFF05E0204600F0E8F8204600F0FE
:10227000DBF90020207720680069C0F38000D8B126
:102280002068C068C0F38000B0B16FF0040021681E
:102290000861022020772068806900F4407018B13E
:1022A0002046FFF7E9FE05E0204600F0C7F820468B
:1022B00000F0BAF90020207720680069C0F3C00060
:1022C000D8B12068C068C0F3C000B0B16FF008009A
:1022D00021680861042020772068C06900F00300AD
:1022E00018B12046FFF7C8FE05E0204600F0A6F82A
:1022F000204600F099F90020207720680069C0F39B
:102300000010D8B12068C068C0F30010B0B16FF001
:10231000100021680861082020772068C06900F457
:10232000407018B12046FFF7A7FE05E0204600F0F8
:1023300085F8204600F078F90020207720680069B1
:1023400000F0010058B12068C06800F0010030B111
:102350006FF0010021680861204600F067F92068ED
:102360000069C0F3C01058B12068C068C0F3C01045
:1023700030B16FF08000216808612046FFF748FD0A
:1023800020680069C0F3801058B12068C068C0F3AD
:10239000801030B16FF0400021680861204600F0E5
:1023A0006AF920680069C0F3401058B12068C0681D
:1023B000C0F3401030B16FF0200021680861204662
:1023C000FFF727FD10BD70B504460E46154600BF49
:1023D00094F83C00012801D1022070BD012084F84E
:1023E0003C0000BF022084F83D0035B1042D09D027
:1023F000082D0CD00C2D14D10EE03146206801F0D0
:102400008BF80FE03146206801F0B6F80AE031465B
:10241000206801F0E5F805E03146206801F014F984
:1024200000E000BF00BF012084F83D0000BF002095
:1024300084F83C0000BF00BFCFE7000010B50446A1
:1024400014492068884205D1207F012802D100204C
:1024500001F012FA0F492068884205D1207F022836
:1024600002D1012001F008FA0A492068884205D10A
:10247000207F042802D1022001F0FEF905492068DE
:10248000884205D1207F082802D1032001F0F4F909
:1024900010BD00000008004010B504460CB9012032
:1024A00010BD94F83D0028B9002084F83C00204677
:1024B00000F00CF8022084F83D00211D206800F097
:1024C000CBFF012084F83D000020E9E770470000C1
:1024D00070B504460D4635B1042D0BD0082D10D033
:1024E0000C2D1CD114E02068C06840F00200216867
:1024F000C86015E02068C06840F004002168C8602A
:102500000EE02068C06840F008002168C86007E05D
:102510002068C06840F010002168C86000E000BF7B
:1025200000BF01222946206800F0D0FF0D49206835
:10253000884201D1012000E0002028B12068406CD1
:1025400040F40040216848642068806800F0070675
:10255000062E05D02068006840F001002168086060
:10256000002070BD002C014030B504460D4635B149
:10257000042D0BD0082D10D00C2D1CD114E0206898
:10258000C06820F002002168C86015E02068C068BB
:1025900020F004002168C8600EE02068C06820F0C8
:1025A00008002168C86007E02068C06820F01000BB
:1025B0002168C86000E000BF00BF002229462068F3
:1025C00000F084FF17492068884201D1012000E013
:1025D000002090B100BF2068006A41F2111108404C
:1025E00050B92068006A8910084028B92068406CFA
:1025F00020F400402168486400BF00BF2068006AE2
:1026000041F21111084050B92068006A8910084051
:1026100028B92068006820F001002168086000BF28
:10262000002030BD002C0140704700000168B1F16E
:10263000804F04D10249896B491C014A916370475C
:10264000A40000200246002031B1042907D0082947
:1026500008D00C290CD108E01368586B09E0136806
:10266000986B06E01368D86B03E01368186C00E001
:1026700000BF00BF7047704703490978491C49B241
:10268000014A1170704700003C0000202DE9F0471E
:102690000446206805682068C668206847694FF0CE
:1026A0000008C14605F00F08B8F1000F0AD105F087
:1026B000200038B106F0200020B1204601F0D2F908
:1026C000BDE8F087B8F1000F6DD007F0010018B930
:1026D00006F49070002866D005F0010030B106F4D1
:1026E000807018B1E06B40F00100E06305F0040079
:1026F00030B107F0010018B1E06B40F00200E06378
:1027000005F0020030B107F0010018B1E06B40F0B5
:102710000400E06305F0080030B107F0010018B1D3
:10272000E06B40F00800E063E06B68B305F0200068
:1027300028B106F0200010B1204601F093F920687E
:102740004069C0F38019E06B00F0080010B9B9F1DE
:10275000000F22D0204601F05BF92068406900F0AC
:102760004000B0B12068406920F040002168486115
:10277000606B50B11748616B4863606BFEF736F9C8
:1027800010B1606B416B88470CE02046FFF774FF87
:1027900008E02046FFF770FF04E02046FFF76CFFDB
:1027A0000020E0638CE705F0800030B106F0800087
:1027B00018B1204601F07AFA82E705F0400030B106
:1027C00006F0400018B1204601F032F978E700BF6A
:1027D00076E700001539000810B504460CB9012051
:1027E00010BDA06900B100E000BF94F8390028B91D
:1027F000002084F83800204600F028F8242084F8CF
:1028000039002068C06820F400502168C860204664
:1028100001F07CF92068006920F49040216808618B
:102820002068406920F02A00216848612068C0685B
:1028300040F400502168C8600020E063202084F844
:10284000390084F83A000020CAE7000010B586B0CD
:102850000446002002900390049005902A492068C5
:1028600088424FD100BF2948806940F48040274901
:1028700088610846806900F48040019000BF00BF75
:1028800000BF0846806940F00400886108468069FE
:1028900000F00400019000BF00BF48150290022024
:1028A00003900320059002A91948FEF7F3FB4FF4AB
:1028B0008060029000200390049002A91448FEF763
:1028C000E9FB1448144908600020486000211248C0
:1028D00081608021C1600021016141618161C1612C
:1028E000FEF7AAF908B1FDF7E3FC00BF0A486063F0
:1028F000446200BF002211462520FEF70BFE252072
:10290000FEF7F8FD06B010BD00380140001002408F
:102910000008014058000240B402002077B581B0A1
:102920000446154694F83A00202850D1029800B188
:1029300015B9012004B070BD00BF94F8380001281B
:1029400001D10220F6E7012084F8380000BF029888
:10295000A062A5850020E063222084F83A001D488B
:10296000616B88621C48616BC8621C48616B0863BC
:102970000020616B486302AE32682368191D2B4644
:10298000606BFEF78DF900BF0020009020680068A2
:10299000009020684068009000BF00BF00BF00208A
:1029A00084F8380000BF2068C06840F48070216857
:1029B000C8602068406940F00100216848612068D3
:1029C000406940F04000216848610020B2E70220E1
:1029D000B0E7000079390008BF390008293900083C
:1029E00010B504462E2204490448FFF797FF002043
:1029F0000349087010BD00005A0100207402002035
:102A00000200002070470000F7B50446154694F810
:102A1000390020283DD1019800B10DB90120FEBD3B
:102A200000BF94F83800012801D10220F7E7012007
:102A300084F8380000BF01982062A584E584002056
:102A4000E063212084F839001348216B8862134821
:102A5000216BC8621248216B08630020216B486318
:102A600001AE23681A1D31682B46206BFEF718F95A
:102A70006FF040002168086000BF002084F8380033
:102A800000BF2068406940F0800021684861002054
:102A9000C5E70220C3E70000CD390008033A00086B
:102AA000293900080121014A1170704701000020F6
:102AB000704700BFFEE7000010B518480078401EC0
:102AC000164908700846007830BB1548007830B1C8
:102AD00001280AD002280ED0032818D111E000F0F6
:102AE000ADFE01200E49087012E000F0B1FE022098
:102AF0000B4908700CE000F097FE032008490870AD
:102B000006E000F0AFFE00200549087000E000BFBD
:102B100000BF05200149087010BD00003F000020E3
:102B20003D00002010B50446054AA2F118012046D8
:102B300001F07EF9034908700846007810BD0000D6
:102B400094000020280000200EB500200090019085
:102B500002901248124908600021114881600173F7
:102B600001754FF46021C16100200D4948600121C9
:102B70000B480161FDF724FE08B1FDF799FB042025
:102B80000090012001900020029069460448FDF762
:102B9000D5FC08B1FDF78CFB0EBD00000024014000
:102BA000940100200EB50020009001900290124880
:102BB00012490860002111488160017301754FF4CA
:102BC0006021C16100200D49486001210B4801616D
:102BD000FDF7F6FD08B1FDF76BFB03200090012027
:102BE00001900020029069460448FDF7A7FC08B157
:102BF000FDF75EFB0EBD000000280140C40100206F
:102C000008B500BF0A48406940F001000849486122
:102C10000846406900F00100009000BF00BF00229C
:102C200011460F20FEF776FC0F20FEF763FC08BD6F
:102C30000010024000B585B0002001900290039082
:102C4000049000BF6648806940F0100064498861C4
:102C50000846806900F01000009000BF00BF00BF70
:102C60000846806940F0200088610846806900F0CD
:102C70002000009000BF00BF00BF0846806940F000
:102C8000040088610846806900F00400009000BFDD
:102C900000BF00BF0846806940F008008861084610
:102CA000806900F00800009000BF00BF00224FF4D0
:102CB00000514C48FEF785FB0022C7214A48FEF729
:102CC00080FB00224FF6FF514848FEF77AFB4FF495
:102CD00000500190012002900020039003200490F6
:102CE00001A94048FEF7D6F94FF44040019000207A
:102CF0000290039001A93B48FEF7CCF947200190D0
:102D000001200290002003900320049001A936487E
:102D1000FEF7C0F98020019011200290002003905E
:102D20000220049001A93048FEF7B4F90320019075
:102D300001200290002003900320049001A92B4859
:102D4000FEF7A8F94FF6FC40019001200290002008
:102D500003900220049001A92448FEF79BF94FF448
:102D60008070019002200290049001A91E48FEF795
:102D700091F94FF40060019000200290039001A9A6
:102D80001948FEF787F94FF4805001900220029015
:102D90000320049001A91448FEF77CF94FF48070D9
:102DA000019011200290002003900220049001A9BC
:102DB0000E48FEF76FF94FF4007001900C48029036
:102DC0000020039001A90948FEF764F9002211468A
:102DD0001720FEF79FFB1720FEF78CFB05B000BD08
:102DE000001002400010014000080140000C0140AA
:102DF0000000111000B58BB00020079008900990DA
:102E00000A900590069001900290039004904FF074
:102E100080402549086037204860002122488160B1
:102E20004FF6FF71C160002101618161FFF71CF85D
:102E300008B1FDF73DFA4FF48050079007A91A48F2
:102E4000FFF796F808B1FDF733FA1748FFF799F93D
:102E500008B1FDF72DFA00200590069005A912484B
:102E6000FEF7D8FF08B1FDF723FA002001900120FA
:102E700002900020039003200490002201A90A4838
:102E8000FFF70FF908B1FDF713FA02200190029045
:102E900000200490042201A90348FFF702F908B1B9
:102EA000FDF706FA0BB000BDF401002000B58DB0AF
:102EB000002009900A900B900C90079008901C211C
:102EC0006846FDF748F92D482D49086037204860CD
:102ED00000212B4881604FF6FF71C1600021016124
:102EE0008161FEF7C1FF08B1FDF7E2F94FF48050B0
:102EF000099009A92248FFF73BF808B1FDF7D8F976
:102F00001F48FFF7C9FA08B1FDF7D2F90020079072
:102F1000089007A91A48FEF77DFF08B1FDF7C8F928
:102F200010200090002001900220029000200490C8
:102F3000002269461248FFF746FA08B1FDF7B8F9D2
:102F4000042269460E48FFF73EFA08B1FDF7B0F9D2
:102F5000002000900290082269460948FFF733FAE2
:102F600008B1FDF7A5F90C2269460548FFF72BFAD1
:102F700008B1FDF79DF90DB000BD0000000800404C
:102F80003402002010B50B480B4908604FF4E130C3
:102F90004860002108488160C16001610C214161E5
:102FA00000218161C161FFF717FC08B1FDF780F9CD
:102FB00010BD0000003801407402002000BFFEE791
:102FC000704710B5FEF7FAFA10BD7047F8B506461F
:102FD0000F4614461D46FEF7FBF9009014F8350025
:102FE00038B90098304404EBC5014860012004F86A
:102FF000350004EBC50040680099884203D80020E2
:1030000004F83500B847F8BD10B5002407E024489F
:1030100050F83410234840F83410601CC4B2042C1B
:10302000F5DB002000F0A2F8002000F08DF81D482C
:10303000001F40681C490968486301211948001FA6
:103040000172C06818490968886301211548001F8A
:103050000174406914490968C86301211148001FBF
:103060000176C06910490968086401210D48001FF4
:1030700080F8201000200C490968486200210A48A5
:10308000FFF726FA04210848FFF722FA082106482C
:10309000FFF71EFA0C210448FFF71AFA10BD0000D2
:1030A000E80000200C0100203402002008B5084987
:1030B0000968C9084FF47A72B1FBF2F141430091FB
:1030C00000BF00BF00994A1E00920029F9D108BD37
:1030D0004C0000207047000010B500211148FFF798
:1030E000B1FA1149C8610846806B81F83C000020A4
:1030F0000C49096848620C4988630C4800780C49FF
:10310000087008460078012805D1074890F8350076
:1031100008B9FFF779FF04480069401C02490861BB
:1031200010BD0000F4010020A4000020E4000020F5
:10313000080100207047000010B540210148FEF74B
:1031400039F910BD0008014010B50446012C05D125
:10315000012240210448FEF734F904E00022402116
:103160000148FEF72EF910BD000C014010B50446D1
:10317000012C05D1012204210448FEF722F904E0C4
:10318000002204210148FEF71CF910BD000801408F
:1031900010B5FFF7D1FF5648C16990F83C0001EB2C
:1031A00000405349C8610846C069524988427DD8E9
:1031B0004F48C06941F27441884277D34C48C06996
:1031C0004D49B1FBF0F04A494880084640880880E4
:1031D000084640880988401A4549C8600846008862
:1031E0004988B0EB410F15DA4148008840494988C9
:1031F000C0EB41003E498880404800783E49484342
:103200003B4989884FF4B4725143B0FBF1F038491F
:10321000886202E000203649888035488088344939
:1032200048800846408835498988884221DB01204A
:10323000334908702E48016A90F83D0001EB0040C8
:103240002B490862086A00F08BFE2949486208464B
:10325000806A800908634888FFF764FC244981F884
:1032600034000846006B91F8341048432549086043
:1032700007E00020224908701D4981F834002149E7
:1032800008602048006800F21D501F490860084689
:10329000006800F28F201D4908600846006841F26E
:1032A000E61108441A490860164800E013E0008857
:1032B00080B2134948601448008881B21048C16048
:1032C0001248008881B20E4841611148008881B2DD
:1032D0000B48C16101E00648C06900210D48017238
:1032E0000174017680F82010FFF726FF10BD000062
:1032F000A40000202FFC0B002F82AE0478000020D9
:10330000E40000202C0000203000002034000020C9
:10331000380000200801002000B50D4948883221FE
:1033200000F068FD0A49C8800846008949880844B9
:103330004010074908810846006A4FF4B4714843B9
:103340000349C969B0FBF1F0014981F82C0000BDC7
:10335000A400002010B5FEF741F810BD00B593B0F1
:10336000282109A8FCF7F7FE142104A8FCF7F3FEB6
:103370000020009001900290039001200990000429
:103380000A9000200B9001200D9002201090C103A4
:1033900011914FF4E011129109A8FEF7EDFA08B16E
:1033A000FCF786FF0F200490022005900020069075
:1033B0004FF48060079000200890022104A8FEF7D7
:1033C000A5F908B1FCF774FF022000908003029079
:1033D0006846FEF703F908B1FCF76AFF13B000BDB9
:1033E0001148006840F001000F4908600846406835
:1033F0000E4908400C494860084600680C490840DE
:10340000094908600846006820F4802008600846E2
:10341000406820F4FE0048604FF41F008860C80335
:103420000449086070470000001002400000FFF8E7
:10343000FFFFF6FE08ED00E010B50248FEF7F8FECB
:1034400010BD0000F401002010B50248FEF7F0FEA8
:1034500010BD00003402002010B50268184B9842DD
:1034600008D0B0F1804F05D0164B984202D0164BD1
:10347000984203D122F070024B681A43104B9842D5
:1034800008D0B0F1804F05D00E4B984202D00E4BC1
:10349000984203D122F44072CB681A4322F0800391
:1034A0004C6943EA040202608B68C3620B68836262
:1034B000034B984201D10B6903630123436110BDA3
:1034C000002C0140000400400008004030B501F02D
:1034D0001F05012404FA05F3046A9C430462046A8C
:1034E00001F01F0502FA05F52C43046230BD30B52A
:1034F0000C46816821F47F4142EA03252543294394
:10350000816030BD0A46816821F0700142F00703F6
:10351000194381607047000030B5056A25F0010548
:103520000562026A4368846924F0700424F003048D
:103530000D682C4322F002028D682A430D4DA842EB
:1035400006D100BF22F00802CD682A4322F004020F
:10355000084DA84207D123F4807323F400734D690A
:103560002B438D692B43436084614D684563026240
:1035700030BD0000002C014030B5056A25F0100573
:103580000562026A4368846924F4E04424F44074C8
:103590000D6844EA052422F020028D6842EA0512F3
:1035A0000E4DA84207D100BF22F08002CD6842EA4A
:1035B000051222F04002094DA84209D123F480638C
:1035C00023F400634D6943EA85038D6943EA85036B
:1035D000436084614D688563026230BD002C014008
:1035E00030B5056A25F480750562026A4368C469CE
:1035F00024F0700424F003040D682C4322F40072BC
:103600008D6842EA05220F4DA84207D100BF22F47F
:103610000062CD6842EA052222F48062094DA84288
:1036200009D123F4805323F400534D6943EA051371
:103630008D6943EA05134360C4614D68C563026246
:1036400030BD0000002C014030B5056A25F48055DE
:103650000562036A4468C26922F4E04222F44072BF
:103660000D6842EA052223F400538D6843EA0533CE
:10367000064DA84204D124F480444D6944EA8514DF
:103680004460C2614D680564036230BD002C014096
:1036900030B50B461446026A056A25F0010505623D
:1036A000816921F0F00141EA041122F00A021A4373
:1036B0008161026230BD000070B50C461546066A95
:1036C00026F0010606628169026A124EB04208D0F5
:1036D000B0F1804F05D0104EB04202D00F4EB04234
:1036E00001D1012600E000261EB121F0030129438B
:1036F00001E041F0010121F0F001F02606EA031695
:10370000314322F00A0204F00A0632438161026268
:1037100070BD0000002C0140000400400008004083
:1037200030B50B461446056A25F01005056281691F
:10373000026A21F4704141EA043122F0A00242EA17
:1037400003128161026230BD70B50C461546066AEF
:1037500026F0100606628169026A21F4407141EA8E
:10376000052121F470414FF4704606EA03363143D7
:1037700022F0A002A02606EA04163243816102620A
:1037800070BD70B50C461546066A26F48076066252
:10379000C169026A21F00301294321F0F001F026FA
:1037A00006EA0316314322F400724FF4007606EA6B
:1037B00004263243C161026270BD70B50C461546E5
:1037C000066A26F480560662C169026A21F44071D5
:1037D00041EA052121F470414FF4704606EA0336B0
:1037E000314322F400524FF4005606EA04363243C5
:1037F000C161026270BD10B5FFF75EF910BD000037
:1038000010B5FCF7FDFC00F0FDFB0448007808B1A2
:1038100000F08AFCFFF780FD10BD000000000020D2
:1038200000B5FCF727FD00BD10B54FF4005102486C
:10383000FDF7C0FD10BD0000000C014010B54FF4B5
:1038400000510248FDF7B6FD10BD00000010014018
:1038500010B54FF480510248FDF7ACFD10BD0000DB
:10386000000C014010B54FF480410248FDF7A2FD65
:1038700010BD0000000C014010B5044634B1012C0D
:1038800010D0022C15D0032C29D11EE00120FFF707
:103890006DFC00211348017213484069401C124915
:1038A00048611DE00020FFF761FC00210D48017414
:1038B00016E00120FFF748FC00210A4801760A487B
:1038C0008069401C084988610AE00020FFF73CFC41
:1038D0000021044880F8201000F008F800E000BF44
:1038E00000BF10BD08010020A400002010B5002179
:1038F0000748FEF739FE04210548FEF735FE08218A
:103900000348FEF731FE0C210148FEF72DFE10BDE5
:103910003402002070B505466C6A0020E085E08422
:103920002046FEF7A9FE70BD70B506460025746AF4
:1039300020684069C0F3C01594F83900212805D1EA
:1039400025B10020E084204600F082F8206840691C
:10395000C0F3801594F83A00222805D125B1002043
:10396000E085204600F054F8E06B40F01000E06382
:103970002046FEF781FE70BD70B505466C6A28686A
:10398000006800F02000B0B90020E0852068C06821
:1039900020F480702168C8602068406920F0010030
:1039A000216848612068406920F040002168486132
:1039B000202084F83A002046FFF712F870BD70B559
:1039C0000446656A2846FFF71DF870BD70B50546C8
:1039D0006C6A2868006800F0200070B90020E0845C
:1039E0002068406920F08000216848612068C06834
:1039F00040F040002168C86002E02046FFF752F81E
:103A000070BD70B50446656A2846FFF751F870BD71
:103A10000168C96821F490710268D1600168496940
:103A200021F0010102685161202180F83A107047AD
:103A300010B504462068C06820F040002168C860C6
:103A4000202084F839002046FFF72CF8002010BD14
:103A50000168C96821F0C0010268D160202180F8A6
:103A60003910704770B5044694F83A0022284AD1BC
:103A7000A068B0F5805F13D1A56A206940B92068BD
:103A80004068C0F308002880A06A801CA06219E08A
:103A900020684068C0B22880A06A401CA06211E083
:103AA000206938B920684068C1B2A26A501CA0627F
:103AB000117007E02068406800F07F01A26A501C86
:103AC000A0621170E08D401E80B2E085C8B9206808
:103AD000C06820F020002168C8602068C06820F419
:103AE00080702168C8602068406920F0010021686A
:103AF0004861202084F83A002046FEF771FF00203C
:103B000070BD0020FCE70220FAE7000070B5044613
:103B10002168096921F44051E2681143226811616A
:103B20002269A1681143626941EA02052168C968F6
:103B300041F20C62914329432268D16021684969AE
:103B400021F44071A269114322685161564A2168EB
:103B5000914254D1FDF7B6FE00EBC00101EB00111C
:103B600062689200B1FBF2F100EBC00202EB0012BE
:103B700063689B00B2FBF3F26423B2FBF3F202EB47
:103B8000C20303EB0212A1EB8201322202EB01110C
:103B90006422B1FBF2F101F0F00100EBC00202EB94
:103BA000001263689B00B2FBF3F26423B2FBF3F2F2
:103BB00001EB021200EBC00101EB001163689B00F6
:103BC000B1FBF3F100EBC00303EB00136668B60032
:103BD000B3FBF6F36426B3FBF6F303EBC30606EB85
:103BE0000313A1EB8301322303EB01116423B1FB27
:103BF000F3F101F00F0111442268916053E0FDF7E9
:103C000051FE00EBC00101EB001162689200B1FBB4
:103C1000F2F100EBC00202EB001263689B00B2FB02
:103C2000F3F26423B2FBF3F202EBC20303EB0212E2
:103C3000A1EB8201322202EB01116422B1FBF2F10D
:103C400001F0F00100EBC00202EB001263689B0080
:103C5000B2FBF3F26423B2FBF3F201EB021200EBCE
:103C6000C00101EB001163689B00B1FBF3F100EBB5
:103C7000C00303EB00136668B600B3FBF6F36426DB
:103C8000B3FBF6F303EBC30606EB0313A1EB8301CF
:103C9000322303EB01116423B1FBF3F101F00F01B7
:103CA00011442268916070BD00380140014691F8CE
:103CB000390021282CD18868B0F5805F0FD10A6ABD
:103CC0001088C0F308000B685860086918B9086AC2
:103CD000801C086209E0086A401C086205E00B6A63
:103CE000581C086218780B685860C88C401E80B257
:103CF000C88458B90868C06820F080000B68D86094
:103D00000868C06840F040000B68D8600020704729
:103D10000220FCE710B50248FEF7B8FC10BD000019
:103D20007402002000BFFEE702480068C0F30220D2
:103D3000704700000CED00E010B5002804DB0A0716
:103D4000130E054A135406E00A07140E034A00F046
:103D50000F031B1FD45410BD00E400E018ED00E079
:103D600002E008C8121F08C1002AFAD17047704744
:103D7000002001E001C1121F002AFBD1704730B5BD
:103D800004460D46A818411015E034F81100984279
:103D900006DC481C34F81000984201DB084630BDB0
:103DA000481C34F81000984202DA481CC5B200E002
:103DB0000A46A81841109542E7DDFF20EFE7000012
:103DC00010B502490248FCF74FFB10BD78000020F7
:103DD00000FC0108002005E0044A411C515C044A33
:103DE0001154401C2C28F7D3704700005A010020C2
:103DF0007800002010B50246054B1B889B1A4B43E8
:103E0000FF24B3FBF4F3134498B2014B1A8010BDA6
:103E10000E000020002004E00349095C034A11540D
:103E2000401C2C28F8D37047284200087800002056
:103E30002DE9F04107460D4616462888B84202DDB6
:103E40003078BDE8F081E88AB84201DAF07AF8E724
:103E50003B460B2200212846FFF791FF0446601CD9
:103E600035F8100035F81410401A1CD0FF2C1AD069
:103E7000601C305C315D401A35F81410791A4843E3
:103E8000611C35F8111035F81420891A90FBF1F0F7
:103E9000315D084400F0FF08B8F1400F01D94FF040
:103EA00040084046CDE7FF20CBE70000FDF7A2FA2F
:103EB00000F0F6F8FFF752FAFEF7BCFEFEF7A0FEA0
:103EC000FEF798FFFEF7F2FFFEF73EFEFEF76AFEF2
:103ED000FFF758F81A480068C06840F00100184918
:103EE0000968C86000211648FEF766F904211448E5
:103EF000FEF762F92E2213491348FEF70FFD1DE06D
:103F0000124890F83600012805D1FFF741F900204A
:103F10000E4981F8360000230D4A0E491420FFF7A0
:103F200055F801230A4A0C496420FFF74FF8022391
:103F3000074A0A494FF47A70FFF748F8E0E70000B3
:103F4000F40100205A01002074020020A400002087
:103F500060000020F7370008013800082138000809
:103F6000014621480068081A204A1060204890F84D
:103F70002800126850436422B0FBF2F01A4A12681B
:103F800010441C4A10601A4890F82900174A126819
:103F900050436422B0FBF2F0174A12681044174AEB
:103FA0001060134890F82A00104A126850436422A7
:103FB000B0FBF2F0124A12681044114A10600D482A
:103FC00000680E4A126810440D4A126800EB620045
:103FD000054A106009480068094A12681044064AF8
:103FE0001060104600687047180000201000002084
:103FF0007800002014000020200000201C00002079
:10400000240000202DE9F0411C480078002833D11D
:104010002E25002404E01A48005D3044C6B2641C1A
:10402000681EA042F7D81649085C801B21D10846BB
:104030000778472F12D004DC022F07D0032F16D1A8
:1040400008E0692F0DD07E2F11D10DE001200D4920
:1040500008700DE000200B49087009E000F014F82A
:1040600006E000F033F803E0FFF7B4FE00E000BF25
:1040700000BF012001490870BDE8F0810200002066
:104080005A0100200000002010B50B22024903480D
:10409000FCF7F8F910BD00007800002000FC0108D2
:1040A00010B5FFF78DFE0648408818B9FFF7B2FE3D
:1040B000FFF7EAFF0120034908700349087010BDAB
:1040C00078000020010000200200002070B5124896
:1040D000007801281FD12E267E201049087008463E
:1040E0000578012409E0601E0D49085C0B4908555C
:1040F0000846005D2844C5B2641CB01EA042F2D838
:10410000701E06490D540020034908702E220349F1
:104110000448FEF779FC70BD010000202C0100204E
:1041200078000020740200202DE9F84F3A484688B4
:10413000478842F20F7086426CD8B7F57A7F69D211
:104140004FF47A70B6FBF0F0303000F0FF084FF417
:104150007A70B6FBF0F100FB11646420B4FBF0F060
:10416000303000F0FF096420B4FBF0F100FB114493
:104170000A20B4FBF0F0303000F0FF0A0A20B4FB54
:10418000F0F100FB114000F1300B52202349087080
:10419000084680F8018080F8029080F803A080F83B
:1041A00004B0412048716420B7FBF0F0303000F0DB
:1041B000FF096420B7FBF0F100FB11740A20B4FB87
:1041C000F0F0303000F0FF0A0A20B4FBF0F100FB01
:1041D000114000F1300B114880F8069080F807A0DC
:1041E00080F808B0002506E00C48415D00980844BE
:1041F000C0B200906D1C082DF6D308490098487293
:104200000A2088720020064908700B2203490548DD
:10421000FEF7FAFBBDE8F88FA4000020880100201B
:1042200001000020740200201C004C1D1405D00762
:10423000C409B80BAC0DA00F9411581B401F2823C4
:10424000E02E983A403A3026190F0000282D3740CA
:104250005A500A00000000000000000001020304A0
:104260000607080900000000010203048C42000850
:104270000000002050000000603D0008DC42000803
:1042800050000020C8060000703D00080001010039
:10429000000000000000000000000000000000001E
:1042A000000000000000000000000000000000000E
:1042B00000000000000000000000000000000000FE
:1042C00000000000000000000000000500000000E9
:0C42D00010000000010000000024F400B9
:04000005080000ED02
:00000001FF
