:020000040800F2
:100000003805002001010008251C0008FF19000820
:10001000211C0008CF010008A71E000800000000F6
:10002000000000000000000000000000971C000815
:1000300011020008000000002F1C0008BD1C000871
:100040001B010008271C00081B0100081B010008F9
:1000500015020008951C00081B0100081B01000880
:100060001B0100081B0100081B0100081B01000800
:100070001B0100081B0100081B0100081B010008F0
:100080001B0100081B0100086D0100081B0100088E
:100090001B0100081B0100081B0100081B010008D0
:1000A0001B0100081B0100081B0100081B010008C0
:1000B0001B010008A11D00081B0100081B0100080E
:1000C0001B0100081B0100081B0100081B010008A0
:1000D0001B0100081B0100081B0100081B01000890
:1000E0001B0100081B0100081B010008DFF80CD0F1
:1000F00000F02AF800480047051F000838050020D6
:100100000648804706480047FEE7FEE7FEE7FEE7B1
:10011000FEE7FEE7FEE7FEE7FEE7FEE7491D000813
:10012000ED000008D2B201E000F8012B491EFBD21D
:1001300070470022F6E710B513460A4604461946F2
:10014000FFF7F0FF204610BD064C074D06E0E068C3
:1001500040F0010394E8070098471034AC42F6D30E
:10016000FFF7C8FFB41F0008D41F000810B50248ED
:1001700000F06DF910BD00008000002070B504464D
:1001800000252068806800F00100F0B120688068D8
:1001900020F001002168886000F026FD05460EE091
:1001A00000F022FD401B022809D9A06A40F010008F
:1001B000A062E06A40F00100E062012070BD2068AA
:1001C000806800F001000028EAD10020F6E700BFB7
:1001D000FEE700000B4800780B49097888420DDDE6
:1001E0000848401C08490978405C40B2074908703B
:1001F00005480078401C0449087002E000200249CC
:1002000008707047F00000206C0000200200002001
:100210007047704710B500F08FFA10BD0021074AF3
:10022000D1610749096941F00201054A116111468E
:100230004861096941F040011161704718010020CF
:10024000002002400022054BDA61054A126942F0A3
:100250000102034B1A610180704700001801002061
:100260000020024000201E49C96801F0100139B188
:100270001C49C96941F002011A4AD16140F01000DD
:100280001749C96801F0040139B11649C96941F03B
:100290000101144AD16140F004001149C96901F01B
:1002A000010169B10F49C96941F004010D4AD161E9
:1002B00000BF0B49C96921F00101094AD16100BFA2
:1002C00000BF40F20111884206D10549C96921F0F9
:1002D0000101034AD16101E00149C86000BF7047D4
:1002E00000200240180100207047000038B5024687
:1002F00000230020009000BF92F82400012801D1C3
:10030000022038BD012082F8240000BF4868072879
:1003100012D21068406B0C79641E04EB84051F2414
:10032000AC40A0430D796D1E05EB85050C68AC4013
:1003300020431468606327E048680D2812D21068D3
:10034000006B0C79E41F04EB84051F24AC40A04330
:100350000D79ED1F05EB85050C68AC402043146852
:10036000206311E01068C06A0C790D3C04EB840531
:100370001F24AC40A0430D790D3D05EB85050C68AD
:10038000AC4020431468E06208680A2812D3106861
:10039000C0680C780A3C04EB44050724AC40A04339
:1003A0000D780A3D05EB45058C68AC402043146888
:1003B000E0600FE0106800690C7804EB4405072446
:1003C000AC40A0430D7805EB45058C68AC4020435C
:1003D000146820610868102802D00868112827D105
:1003E000174C1068A0421ED11068806800F400000D
:1003F000F0B91068806840F400001468A0600868D4
:10040000102815D10F4800680F4CB0FBF4F000EB3A
:1004100080004000009002E00098401E009000988C
:100420000028F9D104E0906A40F020009062012396
:1004300000BF002082F8240000BF184661E70000DA
:10044000002401407C00002040420F00704710B59E
:1004500004462068406800F0200020282FD1206842
:10046000006800F00200022829D1A06A00F0100004
:1004700018B9A06A40F40070A0622068806800F497
:100480006020B0F5602F13D1207B88B920684068C8
:1004900020F0200021684860A06A20F48070A062EB
:1004A000A06A00F4805018B9A06A40F00100A06270
:1004B0002046FFF7CBFF6FF012002168086020682C
:1004C000406800F0800080283BD12068006800F080
:1004D0000400042835D1A06A00F0100018B9A06A01
:1004E00040F40050A0622068806800F4E040B0F55D
:1004F000E04F0DD02068406800F48060D0B92068DB
:10050000806800F46020B0F5602F13D1207B88B99B
:100510002068406820F0800021684860A06A20F4CC
:100520008050A062A06A00F4807018B9A06A40F000
:100530000100A0622046FFF7D7FE6FF00C00216893
:1005400008602068406800F0400040280FD1206813
:10055000006800F0010050B1A06A40F48030A06251
:10056000204600F0A7F86FF001002168086010BD78
:100570002DE9F0410446002700250026A84614B9BD
:100580000120BDE8F081A06810B1207D00B100BF5E
:10059000A06A30B90020E06284F82400204600F010
:1005A0008BF82046FFF7EAFD0746A06A00F010002E
:1005B000002873D1002F71D1A06A20F4885040F038
:1005C0000200A062E16960680843217B40EA4100C3
:1005D0000643A068B0F5807F02D0A068012802D150
:1005E0004FF4807000E000200543207D012811D1E8
:1005F000207B38B9A069401E4FF4006141EA4030C9
:10060000054307E0A06A40F02000A062E06A40F0E5
:100610000100E0622068406820F4694028432168B6
:10062000486020688068214908403043216888601C
:10063000A068B0F5807F02D0A068012802D14FF4F5
:10064000807000E00020B0F5807F03D1208A401E3A
:100650004FEA00582068C06A20F4700040EA0800A1
:100660002168C8622068806811490840B04208D1FA
:100670000020E062A06A20F0020040F00100A062C9
:1006800011E0A06A20F0020040F01000A062E06AD1
:1006900040F00100E062012705E0FFE7A06A40F0BA
:1006A0001000A062012738466BE70000FDF7E1FF6C
:1006B000FE0E1FFF7047000010B586B004460020F4
:1006C000029003900490059017492068884229D130
:1006D00000BF1648806940F40070144988610846DC
:1006E000806900F40070019000BF00BF00BF0846A1
:1006F000806940F0040088610846806900F00400C9
:10070000019000BF00BF03200290039002A9084897
:1007100000F0D4F800221146122000F003FB122052
:1007200000F0F0FA06B010BD0024014000100240B5
:10073000000801407047000010B500245C48C06804
:1007400000F0100020B95A48C06800F0040068B1F9
:10075000584884684FF0FF3056498860FFF782FDA3
:10076000204600F0A9F80020524908705048C0689F
:1007700000F02000002828D000BF20204C49C8608D
:1007800000BF4C48007800287ED04A4800780128F5
:1007900027D148484068401E46494860084640689E
:1007A000A0B1084684682046FFF7C4FF414880682E
:1007B00000F580643F4884603D48006920F00200F5
:1007C0003B4908612046FFF729FD5DE04FF0FF300F
:1007D000044638498860002008702046FFF7AAFFC9
:1007E00052E03448007802280CD13148006920F0EA
:1007F00004002F4908610020FFF79CFF00202D49CD
:10080000087041E02B484068401E2A49486008466D
:100810004068D8B108468068801C886008468468B3
:1008200008694969000C40EA0140090C214A10613D
:1008300051611F48006920F001001D4908611069DD
:10084000526981B22046FFF7FDFC1DE0194800788F
:10085000032804D117498868FFF76CFF0EE015489C
:100860000078042805D113498968881EFFF762FFC4
:1008700004E010498968881FFFF75CFF4FF0FF30E4
:100880000C498860002008700A48007878B9084848
:10089000006920F00700064908610846006920F455
:1008A000A050086100BF00200249087600BF10BDBB
:1008B0000020024018010020704700002DE9F84791
:1008C0000346002294466EE14FF0010808FA02F454
:1008D000D1F8008008EA0400A0427DD1DFF8DCA254
:1008E000D1F80480A8EB0A09D0453AD014DCB8F15D
:1008F000030F50D009DCB8F1000F31D0B8F1010F6F
:100900001CD0B8F1020F49D120E0B8F1110F18D076
:10091000B8F1120F42D11EE0B9F5881F25D006DCD0
:10092000B9F5803F20D0B9F5801F37D11AE0B9F56D
:10093000001F18D0B9F5041F30D117E0D1F80CC052
:100940002DE0D1F80C8008F1040C28E0D1F80C80DF
:1009500008F1080C23E0D1F80C8008F10C0C1EE023
:1009600000BF00BF00BF00BF00BF00BFD1F80880BC
:10097000B8F1000F02D14FF0040C0BE0D1F8088061
:10098000B8F1010F03D14FF0080C1C6102E04FF0E9
:10099000080C5C6103E04FF0000C00E000BF00BFFA
:1009A000FF2801D8984601E003F104084646FF28D5
:1009B00002D84FEA820803E0A2F108084FEA88084B
:1009C0004746D6F800804FF00F0909FA07F928EAE0
:1009D00009080CFA07F900E088E048EA0908C6F8B7
:1009E0000080D1F8048008F08058B8F1805F7DD194
:1009F00000BFDFF8CC81D8F8188048F00108DFF894
:100A0000C091C9F81880C846D8F8188008F00108C5
:100A1000CDF8008000BF00BF4FEAB9384FEA920915
:100A200058F829504FEA82784FEA18794FF00F08AA
:100A300008FA09F825EA0805DFF88881434502D15C
:100A40004FF0000816E0DFF88081434502D14FF0F7
:100A500001080FE0DFF87481434502D14FF002082E
:100A600008E0DFF86C81434502D14FF0030801E054
:100A70004FF004084FEA82794FEA197908FA09F829
:100A800048EA0505DFF84C814FEA920948F82950F9
:100A9000D1F8048008F48038B8F5803F0AD1DFF837
:100AA0003881D8F8008048EA0008DFF82C91C9F8AE
:100AB000008009E0DFF82081D8F8008028EA0008EB
:100AC000DFF81491C9F80080D1F8048008F40038E8
:100AD000B8F5003F10D1DFF8008108F10408D8F81C
:100AE000008048EA0008DFF8F09000E05AE009F1E1
:100AF0000409C9F800800DE0DFF8DC8008F1040883
:100B0000D8F8008028EA0008DFF8CC9009F1040941
:100B1000C9F80080D1F8048008F48018B8F5801F67
:100B20000ED1DFF8B48008F10808D8F8008048EA50
:100B30000008DFF8A49009F10809C9F800800DE069
:100B4000DFF8948008F10808D8F8008028EA000847
:100B5000DFF8849009F10809C9F80080D1F8048011
:100B600008F40018B8F5001F0ED1DFF86C8008F10A
:100B70000C08D8F8008048EA0008DFF85C9009F11A
:100B80000C09C9F800800DE0DFF84C8008F10C0872
:100B9000D8F8008028EA0008DFF83C9009F10C0939
:100BA000C9F80080521CD1F8008028FA02F8B8F188
:100BB000000F7FF489AEBDE8F88700000000111037
:100BC0000010024000080140000C014000100140EC
:100BD0000014014008000140000401400AB1016115
:100BE00001E00B0403617047014800687047000092
:100BF000700000200348006803490978084401494F
:100C000008607047700000207800002010B5084888
:100C1000006840F0100006490860032000F0C0F8AA
:100C2000002000F007F800F02BF8002010BD0000B5
:100C30000020024070B504460E4800784FF47A71E7
:100C4000B1FBF0F00C490968B1FBF0F5284600F063
:100C5000A7FC08B1012070BD102C07D2002221464C
:100C6000501E00F05FF80548046001E00120F2E743
:100C70000020F0E7780000207C00002074000020B5
:100C800008B500BF1D48806940F001001B4988611C
:100C90000846806900F00100009000BF00BF00BF5F
:100CA0000846C06940F08050C8610846C06900F03D
:100CB0008050009000BF00BF00221146012000F0CC
:100CC00031F8012000F01EF800221146042000F047
:100CD00029F8042000F016F800221146052000F043
:100CE00021F8052000F00EF800BF0549486820F003
:100CF000E06040F00070486000BF08BD0010024096
:100D00000000014001460846002809DB00F01F03EF
:100D100001229A4043099B0003F1E023C3F800211C
:100D200000BF70472DE9F05F80460D46164600274C
:100D300001F0BCF8074639462A46334601F0070061
:100D4000C0F1070ABAF1040F02D94FF0040A01E01A
:100D5000C0F1070AD14600F1040ABAF1070F02D226
:100D60004FF0000A01E0A0F1030AD4464FF0010A57
:100D70000AFA09FAAAF1010A0AEA020A0AFA0CFABC
:100D80004FF0010B0BFA0CFBABF1010B0BEA030B61
:100D90004AEA0B042146404601F090F8BDE8F09F76
:100DA00000BF00F00702064B19684FF6FF03194019
:100DB000044B0B4343EA0221014B196000BF70470B
:100DC0000CED00E00000FA057047000010B5064881
:100DD000006800F4803028B1FFF7F6FF4FF4803050
:100DE0000149086010BD000014040140F8B5044634
:100DF00000260025207800F0010000286BD0002795
:100E00004348C06900F0805070B900BF4048C069D5
:100E100040F080503E49C8610846C06900F08050EB
:100E2000009000BF00BF01273A48006800F48070BE
:100E3000B0B93848006840F4807036490860FFF760
:100E4000D3FE064606E0FFF7CFFE801B642801D9DB
:100E50000320F8BD2F48006800F480700028F2D00D
:100E60002B48006A00F440752DB3A08800F4407050
:100E7000A84220D02648006A20F440750120264967
:100E80000860002008602248056205F0010090B16A
:100E9000FFF7AAFE064608E0FFF7A6FE801B41F218
:100EA0008831884201D90320D3E71948006A00F04D
:100EB00002000028F0D01648006A20F440706168F3
:100EC000084313490862012F04D10846C06920F085
:100ED0008050C86100BF207800F00200022807D1CE
:100EE0000B48406820F44040A16808430849486026
:100EF000207800F01000102807D10548406820F441
:100F00008000E1680843024948600020A1E7000032
:100F100000100240007000404004424270B5044698
:100F20000D460CB9012070BD5A48006800F007005A
:100F3000A8420ED25748006820F0070028435549C0
:100F400008600846006800F00700A84201D00120B0
:100F5000E9E7207800F0020002281DD1207800F097
:100F60000400042805D14C48406840F4E0604A4938
:100F70004860207800F00800082805D146484068FD
:100F800040F46050444948604348406820F0F00015
:100F9000A168084340494860207800F0010078B318
:100FA0006068012806D13C48006800F4003090B920
:100FB0000120B8E76068022806D13748006800F0D1
:100FC000007040B90120AEE73348006800F002002D
:100FD00008B90120A7E73048406820F003006168A5
:100FE00008432D494860FFF7FFFD064609E0FFF77B
:100FF000FBFD801B41F28831884202D9032092E731
:1010000007E02548406800F00C006168B0EB810FF4
:10101000EDD12048006800F00700A8420ED91D4815
:10102000006820F0070028431A4908600846006855
:1010300000F00700A84201D0012074E7207800F0FA
:101040000400042807D11448406820F4E060E168F7
:10105000084311494860207800F00800082808D1AA
:101060000D48406820F46050216940EAC1000A49F7
:10107000486000F019F808494968C1F30311074AAC
:10108000515CC8400649086006480068FFF7D2FD79
:10109000002048E700200240001002409C1F00088A
:1010A0007C00002074000020F0B585B00FF26C0CBD
:1010B0009CE8E01001A8A0E8E0101CA52D680095B0
:1010C00000210022002300240020194D696801F04E
:1010D0000C05F5B1042D02D0082D19D101E01548F9
:1010E00019E001ADC1F38346AC5D01F4803555B123
:1010F0000F4D6D68C5F340451DF805200D4D654346
:10110000B5FBF2F302E00C4D04FB05F3184602E0D8
:1011100000BF084800BF00BF05B0F0BD02030405D2
:10112000060708090A0B0C0D0E0F10100102000033
:101130000010024000127A0000093D00F8B5044694
:101140000CB90120F8BD207800F00100002878D00B
:10115000F848406800F00C0004280CD0F5484068BE
:1011600000F00C00082811D1F248406800F48030EB
:10117000B0F5803F0AD1EF48006800F40030002845
:101180005FD0606800285CD10120DBE700BF6068A9
:10119000B0F5803F06D1E748006840F48030E5496B
:1011A000086028E0606858B9E248006820F48030A0
:1011B000E04908600846006820F4802008601AE0D2
:1011C0006068B0F5A02F0BD1DA48006840F48020A9
:1011D000D84908600846006840F4803008600AE09A
:1011E000D448006820F48030D2490860084600687E
:1011F00020F48020086000BF606888B1FFF7F4FC2D
:10120000054606E0FFF7F0FC401B642801D90320E7
:1012100098E7C848006800F400300028F2D010E0D9
:10122000FFF7E2FC054606E0FFF7DEFC401B642802
:1012300001D9032086E7BF48006800F40030002889
:10124000F2D1207800F00200022857D1B948406856
:1012500000F00C0050B1B748406800F00C000828BE
:1012600018D1B448406800F4803098B9B14800689B
:1012700000F0020020B12069012801D0012061E7BF
:10128000AC48006820F0F800616940EAC100A94953
:10129000086033E02069E8B10120A7490860FFF742
:1012A000A3FC054606E0FFF79FFC401B022801D97E
:1012B000032047E79F48006800F002000028F2D0B2
:1012C0009C48006820F0F800616940EAC100994933
:1012D000086013E0002098490860FFF785FC054688
:1012E00006E0FFF781FC401B022801D9032029E713
:1012F0009048006800F002000028F2D1207800F049
:10130000080008282DD1A069B8B101208B490860D8
:10131000FFF76AFC054606E0FFF766FC401B022863
:1013200001D903200EE78348406A00F0020000283C
:10133000F2D0012000F09AFC13E000207F49086001
:10134000FFF752FC054606E0FFF74EFC401B022863
:1013500001D90320F6E67748406A00F00200002831
:10136000F2D1207800F00400042873D100277148DE
:10137000C06900F0805070B900BF6E48C06940F08D
:1013800080506C49C8610846C06900F080500090E8
:1013900000BF00BF01276A48006800F48070B0B940
:1013A0006748006840F4807065490860FFF71CFCDE
:1013B000054606E0FFF718FC401B642801D903200E
:1013C000C0E65F48006800F480700028F2D000BFDB
:1013D000E068012806D15748006A40F001005549ED
:1013E000086227E0E06858B95248006A20F001001E
:1013F000504908620846006A20F00400086219E0BB
:10140000E06805280BD14B48006A40F004004949C8
:1014100008620846006A40F0010008620AE0454898
:10142000006A20F00100434908620846006A20F083
:101430000400086200BFE068A0B1FFF7D5FB0546D5
:1014400009E0FFF7D1FB401B41F28831884202D905
:10145000032077E622E03748006A00F00200002807
:10146000EFD012E0FFF7C0FB054608E0FFF7BCFB3A
:10147000401B41F28831884201D9032062E62D48A1
:10148000006A00F002000028F0D1012F05D12948A0
:10149000C06920F080502749C86100BFE069C8B327
:1014A0002448406800F00C00082860D0E069022859
:1014B00048D1002020490866FFF796FB054606E064
:1014C000FFF792FB401B022801D903203AE6194896
:1014D000006800F000700028F2D1206AB0F5803F6B
:1014E00007D11448406820F40030A168084311492E
:1014F0004860D4E9080108430E49496821F4741191
:1015000008430C49486001200B490866FFF76CFB53
:10151000054607E03DE0FFF767FB401B022801D9C5
:1015200003200FE60348006800F000700028F2D0A6
:101530002FE00000001002400000424280044242BE
:1015400000700040002014490866FFF74DFB054677
:1015500006E0FFF749FB401B022801D90320F1E513
:101560000E48006800F000700028F2D111E0E06938
:10157000012800D1E6E50948466806F48031206A72
:10158000814204D106F47011606A814201D00120C9
:10159000D8E50020D6E500000000424200100240DD
:1015A00070B504462546681EB0F1807F01D3012046
:1015B0000FE0681E4FF0E02148610F214FF0FF302F
:1015C00000F07CFC00204FF0E021886107200861DA
:1015D000002070BD7047704710B5024600BF92F8FA
:1015E0003C00012801D1022010BD012082F83C00FE
:1015F00000BF022082F83D001068436810688468CC
:1016000023F070030868034324F08004486804430F
:101610001068436010688460012082F83D0000BFBC
:10162000002082F83C0000BF00BFDDE710B5044693
:101630000CB9012010BD94F83D0028B9002084F8B1
:101640003C00204600F00CF8022084F83D00211DEB
:10165000206800F0ADFB012084F83D000020E9E7A0
:1016600038B504460D492068884215D100BF0C48A2
:10167000C06940F002000A49C8610846C06900F02C
:101680000200009000BF00BF002211461D20FFF79E
:1016900049FB1D20FFF736FB38BD00000004004069
:1016A0000010024001460868C06840F001000B6865
:1016B000D8600868806800F00702062A05D008682C
:1016C000006840F001000B681860002070472DE9A9
:1016D000F04104460D4600BF94F83C00012802D1B9
:1016E0000220BDE8F081012084F83C0000BF022008
:1016F00084F83D002068866826F0770626F47F4649
:10170000206886602868502833D00CDC202850D010
:1017100004DC00284BD0102851D149E0302849D0B2
:1017200040284CD139E060282DD0702807D0B0F582
:10173000805F03D0B0F5005F41D10DE040E0D5E916
:1017400002136A68206800F06DFB2068866846F026
:1017500077062068866033E0D5E902136A6820685E
:1017600000F060FB2068806840F480402168886059
:1017700026E0EA686968206800F068FB502120686C
:1017800000F05BFB1CE0EA686968206800F071FB10
:101790006021206800F051FB12E0EA686968206867
:1017A00000F054FB4021206800F047FB08E000BF38
:1017B00000BF00BF2968206800F03FFB00E000BFC9
:1017C00000BF012084F83D0000BF002084F83C00E9
:1017D00000BF00BF85E7704710B504462068006968
:1017E000C0F34000D8B12068C068C0F34000B0B179
:1017F0006FF002002168086101202077206880696D
:1018000000F0030018B12046FFF7E5FF05E0204691
:1018100000F0ADF8204600F0ABF8002020772068FB
:101820000069C0F38000D8B12068C068C0F38000B0
:10183000B0B16FF0040021680861022020772068B1
:10184000806900F4407018B12046FFF7C4FF05E03E
:10185000204600F08CF8204600F08AF8002020771F
:1018600020680069C0F3C000D8B12068C068C0F328
:10187000C000B0B16FF00800216808610420207733
:101880002068C06900F0030018B12046FFF7A3FFED
:1018900005E0204600F06BF8204600F069F80020D3
:1018A000207720680069C0F30010D8B12068C068B4
:1018B000C0F30010B0B16FF010002168086108207B
:1018C00020772068C06900F4407018B12046FFF707
:1018D00082FF05E0204600F04AF8204600F048F874
:1018E000002020772068006900F0010058B12068CE
:1018F000C06800F0010030B16FF00100216808619C
:10190000204600F037F820680069C0F3C01058B1D5
:101910002068C068C0F3C01030B16FF0800021684B
:1019200008612046FFF756FE20680069C0F380106A
:1019300058B12068C068C0F3801030B16FF040002B
:1019400021680861204600F059F820680069C0F35A
:10195000401058B12068C068C0F3401030B16FF03B
:101960002000216808612046FFF735FE10BD704752
:101970007047000010B504461B492068884231D1E9
:101980001A481B4991F9001010F8310050B319485A
:101990000068012802D0022822D110E0012000F0C6
:1019A0007BF91248124991F9001000EBC100408800
:1019B00011490968486202200E49086011E00020C0
:1019C00000F06AF909480A4991F9001000EBC100DA
:1019D000808809490968486201200649086000E0DA
:1019E00000BF00BF10BD0000000400400400002044
:1019F0000200002068000020B0000020704700BFF7
:101A0000FEE700000EB50020009001900290124801
:101A100012490860002111488160017301754FF47B
:101A20006021C16100200D49486001210B4801611E
:101A3000FEF79EFD08B1FEF7ECFB002000900120B0
:101A400001900020029069460448FEF74FFC08B15F
:101A5000FEF7DFFB0EBD00000024014080000020E7
:101A600000B585B00020019002900390049000BF63
:101A70004C48806940F010004A49886108468069F6
:101A800000F01000009000BF00BF00BF0846806952
:101A900040F0200088610846806900F02000009036
:101AA00000BF00BF00BF0846806940F004008861A5
:101AB0000846806900F00400009000BF00BF00BF2E
:101AC0000846806940F0080088610846806900F097
:101AD0000800009000BF00BF00224FF400513248C0
:101AE000FFF77CF8002241F6FC713048FFF776F8EA
:101AF00000224FF6BF712E48FFF770F84FF40050E8
:101B0000019001200290002003900320049001A97D
:101B10002548FEF7D3FE4FF440400190002002908C
:101B2000039001A92048FEF7C9FE4420019001203E
:101B30000290002003900320049001A91B48FEF7A7
:101B4000BDFE41F6B8700190012002900020039084
:101B50000220049001A91548FEF7B0FE0320019071
:101B600001200290002003900320049001A9104856
:101B7000FEF7A4FE4FF6BC700190012002900020F9
:101B800003900220049001A90948FEF797FE402027
:101B9000019002200290049001A90548FEF78EFEF4
:101BA00005B000BD001002400010014000080140D7
:101BB000000C014000B587B0002003900490059010
:101BC000069001900290144814490860642048600F
:101BD0000021124881604FF6FF71C1600021016150
:101BE0008161FFF723FD08B1FEF713FB4FF480502E
:101BF000039003A90948FFF76AFD08B1FEF709FB46
:101C000000200190029001A90448FFF7E5FC08B10B
:101C1000FEF7FFFA07B000BD00040040B00000204E
:101C200000BFFEE7704710B5FFF7D0F810BD704752
:101C3000F8B506460F4614461D46FEF7D5FF009040
:101C400014F8350038B90098304404EBC5014860F9
:101C5000012004F8350004EBC50040680099884273
:101C600003D8002004F83500B847F8BD08B5084986
:101C70000968C9084FF47A72B1FBF2F1414300914F
:101C800000BF00BF00994A1E00920029F9D108BD8B
:101C90007C0000207047704710B50446012C05D128
:101CA000012211460448FEF799FF04E000220121B9
:101CB0000148FEF793FF10BD000C014010B5FEF780
:101CC00099FF10BD00B593B0282109A8FEF731FA9D
:101CD000142104A8FEF72DFA002000900190029034
:101CE00003900120099000040A9000200B9001202D
:101CF0000D9002201090C10311914FF4E011129148
:101D000009A8FFF71BFA08B1FEF783FA0F20049029
:101D100002200590002006904FF48060079000207C
:101D20000890022104A8FFF7F9F808B1FEF771FA4C
:101D300002200090800302906846FFF757F808B130
:101D4000FEF767FA13B000BD1148006840F00100CB
:101D50000F490860084640680E4908400C49486031
:101D6000084600680C4908400949086008460068B0
:101D700020F4802008600846406820F4FE00486097
:101D80004FF41F008860C8030449086070470000D2
:101D9000001002400000FFF8FFFFF6FE08ED00E033
:101DA00010B50248FFF718FD10BD0000B00000207C
:101DB00010B50268184B984208D0B0F1804F05D09A
:101DC000164B984202D0164B984203D122F0700273
:101DD0004B681A43104B984208D0B0F1804F05D0A1
:101DE0000E4B984202D00E4B984203D122F440721F
:101DF000CB681A4322F080034C6943EA0402026074
:101E00008B68C3620B688362034B984201D10B69F4
:101E100003630123436110BD002C01400004004016
:101E20000008004030B50C46816821F47F4142EA49
:101E3000032525432943816030BD0A46816821F08E
:101E4000700142F0070319438160704730B50B46BB
:101E50001446026A056A25F001050562816921F0D0
:101E6000F00141EA041122F00A021A438161026280
:101E700030BD30B50B461446056A25F010050562E5
:101E80008169026A21F4704141EA043122F0A00222
:101E900042EA03128161026230BD7047704700B5AB
:101EA000FEF798F900BD00BFFEE700000248006899
:101EB000C0F30220704700000CED00E010B50028D0
:101EC00004DB0A07130E054A135406E00A07140E32
:101ED000034A00F00F031B1FD45410BD00E400E0C0
:101EE00018ED00E002E008C8121F08C1002AFAD16C
:101EF00070477047002001E001C1121F002AFBD18A
:101F000070470000FEF782FEFFF7DCFEFFF7A8FD3A
:101F1000FFF778FDFFF74EFE0E48FFF7C3FB00F01A
:101F200023F8FEF757F913E000230B4A0B4964200E
:101F3000FFF77EFE0123084A09494FF4FA70FFF7C4
:101F400077FE0223044A074941F28830FFF770FE0A
:101F5000EAE70000B0000020000100209B1E0008FE
:101F60009D1E00089F1E0008002100200FE0094A66
:101F700012F83020012A09D1074A5054521E127813
:101F8000521C054B5B1E1A704A1CD1B2401C0C2817
:101F9000EDDB704704000020F1000020000000008D
:101FA0000000000001020304060708090000000009
:101FB00001020304D41F000800000020800000007C
:101FC000E41E00085420000880000020B80400002F
:101FD000F41E000800000000010021F03F0C8A02FE
:101FE00001001BF3F33920030100AFF58F61E80313
:101FF0000100D7FAC7B0D00701008FFC2FCBB80B78
:1020000001006BFD63D8A00F0100EFFD4FE08813C6
:10201000010047FE97E57017010086FE5DE9581B39
:102020000100B5FE31EC401F0100DAFE64EE28230A
:102030000100F7FE27F0102700000000010000005B
:10204000000000000000000010000000010000007F
:042050000024F40074
:04000005080000ED02
:00000001FF
