:020000040800F2
:100000002006002001010008B11B0008D1180008DB
:10001000AD1B00086D01000865220008000000000B
:10002000000000000000000000000000ED1C0008BF
:10003000AD01000800000000411C00085D1D000823
:100040001B010008391C00081B0100081B010008E7
:10005000B1010008A91C00081B0100081B010008D1
:100060001B0100081B0100081B0100081B01000800
:100070001B0100081B0100081B0100081B010008F0
:100080001B0100081B0100081B0100081B010008E0
:100090001B0100081B0100081B0100081B010008D0
:1000A0001B0100081B0100081B0100081B010008C0
:1000B000251E0008351E0008451E00081B0100080B
:1000C0001B0100081B0100081B0100081B010008A0
:1000D0001B0100081B0100081B0100081B01000890
:1000E0001B0100081B0100081B010008DFF80CD0F1
:1000F00000F02AF800480047C1220008200600202E
:100100000648804706480047FEE7FEE7FEE7FEE7B1
:10011000FEE7FEE7FEE7FEE7FEE7FEE7CD1D00088F
:10012000ED000008D2B201E000F8012B491EFBD21D
:1001300070470022F6E710B513460A4604461946F2
:10014000FFF7F0FF204610BD064C074D06E0E068C3
:1001500040F0010394E8070098471034AC42F6D30E
:10016000FFF7C8FFA4230008C423000800BFFEE770
:100170000B4800780B49097888420DDD0848401C7F
:1001800008490978405C40B2074908700548007882
:10019000401C0449087002E00020024908707047C2
:1001A000D8010020DC0000200200002070477047CA
:1001B00010B500F069F810BD0021074AD161074968
:1001C000096941F00201054A116111464861096956
:1001D00041F0400111617047000200200020024000
:1001E0000022054BDA61054A126942F00102034B15
:1001F0001A610180704700000002002000200240C8
:1002000000201E49C96801F0100139B11C49C969B3
:1002100041F002011A4AD16140F010001749C96843
:1002200001F0040139B11649C96941F00101144ACC
:10023000D16140F004001149C96901F0010169B1BF
:100240000F49C96941F004010D4AD16100BF0B4952
:10025000C96921F00101094AD16100BF00BF40F224
:100260000111884206D10549C96921F00101034AFB
:10027000D16101E00149C86000BF70470020024021
:10028000000200207047000010B500245C48C068E0
:1002900000F0100020B95A48C06800F0040068B1AE
:1002A000584884684FF0FF3056498860FFF7A8FF30
:1002B000204600F0A9F80020524908705048C06854
:1002C00000F02000002828D000BF20204C49C86042
:1002D00000BF4C48007800287ED04A4800780128AA
:1002E00027D148484068401E464948600846406853
:1002F000A0B1084684682046FFF7C4FF41488068E3
:1003000000F580643F4884603D48006920F00200A9
:100310003B4908612046FFF74FFF5DE04FF0FF309B
:10032000044638498860002008702046FFF7AAFF7D
:1003300052E03448007802280CD13148006920F09E
:1003400004002F4908610020FFF79CFF00202D4981
:10035000087041E02B484068401E2A494860084622
:100360004068D8B108468068801C88600846846868
:1003700008694969000C40EA0140090C214A1061F2
:1003800051611F48006920F001001D490861106992
:10039000526981B22046FFF723FF1DE0194800781B
:1003A000032804D117498868FFF76CFF0EE0154851
:1003B0000078042805D113498968881EFFF762FF79
:1003C00004E010498968881FFFF75CFF4FF0FF3099
:1003D0000C498860002008700A48007878B90848FD
:1003E000006920F00700064908610846006920F40A
:1003F000A050086100BF00200249087600BF10BD70
:100400000020024000020020704700002DE9F8475C
:100410000346002294466EE14FF0010808FA02F408
:10042000D1F8008008EA0400A0427DD1DFF8DCA208
:10043000D1F80480A8EB0A09D0453AD014DCB8F111
:10044000030F50D009DCB8F1000F31D0B8F1010F23
:100450001CD0B8F1020F49D120E0B8F1110F18D02B
:10046000B8F1120F42D11EE0B9F5881F25D006DC85
:10047000B9F5803F20D0B9F5801F37D11AE0B9F522
:10048000001F18D0B9F5041F30D117E0D1F80CC007
:100490002DE0D1F80C8008F1040C28E0D1F80C8094
:1004A00008F1080C23E0D1F80C8008F10C0C1EE0D8
:1004B00000BF00BF00BF00BF00BF00BFD1F8088071
:1004C000B8F1000F02D14FF0040C0BE0D1F8088016
:1004D000B8F1010F03D14FF0080C1C6102E04FF09E
:1004E000080C5C6103E04FF0000C00E000BF00BFAF
:1004F000FF2801D8984601E003F104084646FF288A
:1005000002D84FEA820803E0A2F108084FEA8808FF
:100510004746D6F800804FF00F0909FA07F928EA94
:1005200009080CFA07F900E088E048EA0908C6F86B
:100530000080D1F8048008F08058B8F1805F7DD148
:1005400000BFDFF8CC81D8F8188048F00108DFF848
:10055000C091C9F81880C846D8F8188008F001087A
:10056000CDF8008000BF00BF4FEAB9384FEA9209CA
:1005700058F829504FEA82784FEA18794FF00F085F
:1005800008FA09F825EA0805DFF88881434502D111
:100590004FF0000816E0DFF88081434502D14FF0AC
:1005A00001080FE0DFF87481434502D14FF00208E3
:1005B00008E0DFF86C81434502D14FF0030801E009
:1005C0004FF004084FEA82794FEA197908FA09F8DE
:1005D00048EA0505DFF84C814FEA920948F82950AE
:1005E000D1F8048008F48038B8F5803F0AD1DFF8EC
:1005F0003881D8F8008048EA0008DFF82C91C9F863
:10060000008009E0DFF82081D8F8008028EA00089F
:10061000DFF81491C9F80080D1F8048008F400389C
:10062000B8F5003F10D1DFF8008108F10408D8F8D0
:10063000008048EA0008DFF8F09000E05AE009F195
:100640000409C9F800800DE0DFF8DC8008F1040837
:10065000D8F8008028EA0008DFF8CC9009F10409F6
:10066000C9F80080D1F8048008F48018B8F5801F1C
:100670000ED1DFF8B48008F10808D8F8008048EA05
:100680000008DFF8A49009F10809C9F800800DE01E
:10069000DFF8948008F10808D8F8008028EA0008FC
:1006A000DFF8849009F10809C9F80080D1F80480C6
:1006B00008F40018B8F5001F0ED1DFF86C8008F1BF
:1006C0000C08D8F8008048EA0008DFF85C9009F1CF
:1006D0000C09C9F800800DE0DFF84C8008F10C0827
:1006E000D8F8008028EA0008DFF83C9009F10C09EE
:1006F000C9F80080521CD1F8008028FA02F8B8F13D
:10070000000F7FF489AEBDE8F887000000001110EB
:100710000010024000080140000C014000100140A0
:10072000001401400800014000040140C2680A4072
:100730000AB1416100E0016170470AB1016101E065
:100740000B04036170470000014800687047000017
:10075000E000002003480068034909780844014983
:1007600008607047E0000020E800002010B508484D
:10077000006840F0100006490860032000F0C0F84F
:10078000002000F007F800F02BF8002010BD00005A
:100790000020024070B504460E4800784FF47A718C
:1007A000B1FBF0F00C490968B1FBF0F5284600F008
:1007B0000FFC08B1012070BD102C07D20022214689
:1007C000501E00F05FF80548046001E00120F2E7E8
:1007D0000020F0E7E8000020EC000020E40000200A
:1007E00008B500BF1D48806940F001001B498861C1
:1007F0000846806900F00100009000BF00BF00BF04
:100800000846C06940F08050C8610846C06900F0E1
:100810008050009000BF00BF00221146012000F070
:1008200031F8012000F01EF800221146042000F0EB
:1008300029F8042000F016F800221146052000F0E7
:1008400021F8052000F00EF800BF0549486820F0A7
:10085000E06040F00070486000BF08BD001002403A
:100860000000014001460846002809DB00F01F0394
:1008700001229A4043099B0003F1E023C3F80021C1
:1008800000BF70472DE9F05F80460D4616460027F1
:1008900001F0EAFC074639462A46334601F00700D4
:1008A000C0F1070ABAF1040F02D94FF0040A01E0BF
:1008B000C0F1070AD14600F1040ABAF1070F02D2CB
:1008C0004FF0000A01E0A0F1030AD4464FF0010AFC
:1008D0000AFA09FAAAF1010A0AEA020A0AFA0CFA61
:1008E0004FF0010B0BFA0CFBABF1010B0BEA030B06
:1008F0004AEA0B042146404601F0BEFCBDE8F09FE9
:1009000000BF00F00702064B19684FF6FF031940BD
:10091000044B0B4343EA0221014B196000BF7047AF
:100920000CED00E00000FA057047000010B5064825
:10093000006800F4803028B1FFF7F6FF4FF48030F4
:100940000149086010BD00001404014070B5044660
:100950000D460CB9012070BD5A48006800F0070030
:10096000A8420ED25748006820F007002843554996
:1009700008600846006800F00700A84201D0012086
:10098000E9E7207800F0020002281DD1207800F06D
:100990000400042805D14C48406840F4E0604A490E
:1009A0004860207800F00800082805D146484068D3
:1009B00040F46050444948604348406820F0F000EB
:1009C000A168084340494860207800F0010078B3EE
:1009D0006068012806D13C48006800F4003090B9F6
:1009E0000120B8E76068022806D13748006800F0A7
:1009F000007040B90120AEE73348006800F0020003
:100A000008B90120A7E73048406820F0030061687A
:100A100008432D494860FFF797FE064609E0FFF7B7
:100A200093FE801B41F28831884202D9032092E76D
:100A300007E02548406800F00C006168B0EB810FCA
:100A4000EDD12048006800F00700A8420ED91D48EB
:100A5000006820F0070028431A490860084600682B
:100A600000F00700A84201D0012074E7207800F0D0
:100A70000400042807D11448406820F4E060E168CD
:100A8000084311494860207800F00800082808D180
:100A90000D48406820F46050216940EAC1000A49CD
:100AA000486000F019F808494968C1F30311074A82
:100AB000515CC8400649086006480068FFF76AFEB6
:100AC000002048E700200240001002408C2300086C
:100AD000EC000020E4000020F0B585B00FF26C0CB3
:100AE0009CE8E01001A8A0E8E0101CA52D68009586
:100AF00000210022002300240020194D696801F024
:100B00000C05F5B1042D02D0082D19D101E01548CE
:100B100019E001ADC1F38346AC5D01F4803555B1F8
:100B20000F4D6D68C5F340451DF805200D4D65431B
:100B3000B5FBF2F302E00C4D04FB05F3184602E0AE
:100B400000BF084800BF00BF05B0F0BD02030405A8
:100B5000060708090A0B0C0D0E0F10100102000009
:100B60000010024000127A0000093D00F8B504466A
:100B70000CB90120F8BD207800F00100002878D0E1
:100B8000F848406800F00C0004280CD0F548406894
:100B900000F00C00082811D1F248406800F48030C1
:100BA000B0F5803F0AD1EF48006800F4003000281B
:100BB0005FD0606800285CD10120DBE700BF60687F
:100BC000B0F5803F06D1E748006840F48030E54941
:100BD000086028E0606858B9E248006820F4803076
:100BE000E04908600846006820F4802008601AE0A8
:100BF0006068B0F5A02F0BD1DA48006840F480207F
:100C0000D84908600846006840F4803008600AE06F
:100C1000D448006820F48030D24908600846006853
:100C200020F48020086000BF606888B1FFF78CFD69
:100C3000054606E0FFF788FD401B642801D9032024
:100C400098E7C848006800F400300028F2D010E0AF
:100C5000FFF77AFD054606E0FFF776FD401B6428A6
:100C600001D9032086E7BF48006800F4003000285F
:100C7000F2D1207800F00200022857D1B94840682C
:100C800000F00C0050B1B748406800F00C00082894
:100C900018D1B448406800F4803098B9B148006871
:100CA00000F0020020B12069012801D0012061E795
:100CB000AC48006820F0F800616940EAC100A94929
:100CC000086033E02069E8B10120A7490860FFF718
:100CD0003BFD054606E0FFF737FD401B022801D922
:100CE000032047E79F48006800F002000028F2D088
:100CF0009C48006820F0F800616940EAC100994909
:100D0000086013E0002098490860FFF71DFD0546C4
:100D100006E0FFF719FD401B022801D9032029E74F
:100D20009048006800F002000028F2D1207800F01E
:100D3000080008282DD1A069B8B101208B490860AE
:100D4000FFF702FD054606E0FFF7FEFC401B022808
:100D500001D903200EE78348406A00F00200002812
:100D6000F2D0012000F08CFF13E000207F490860E2
:100D7000FFF7EAFC054606E0FFF7E6FC401B022809
:100D800001D90320F6E67748406A00F00200002807
:100D9000F2D1207800F00400042873D100277148B4
:100DA000C06900F0805070B900BF6E48C06940F063
:100DB00080506C49C8610846C06900F080500090BE
:100DC00000BF00BF01276A48006800F48070B0B916
:100DD0006748006840F4807065490860FFF7B4FC1C
:100DE000054606E0FFF7B0FC401B642801D903204C
:100DF000C0E65F48006800F480700028F2D000BFB1
:100E0000E068012806D15748006A40F001005549C2
:100E1000086227E0E06858B95248006A20F00100F3
:100E2000504908620846006A20F00400086219E090
:100E3000E06805280BD14B48006A40F0040049499E
:100E400008620846006A40F0010008620AE045486E
:100E5000006A20F00100434908620846006A20F059
:100E60000400086200BFE068A0B1FFF76DFC054612
:100E700009E0FFF769FC401B41F28831884202D942
:100E8000032077E622E03748006A00F002000028DD
:100E9000EFD012E0FFF758FC054608E0FFF754FCDE
:100EA000401B41F28831884201D9032062E62D4877
:100EB000006A00F002000028F0D1012F05D1294876
:100EC000C06920F080502749C86100BFE069C8B3FD
:100ED0002448406800F00C00082860D0E06902282F
:100EE00048D1002020490866FFF72EFC054606E0A1
:100EF000FFF72AFC401B022801D903203AE61948D3
:100F0000006800F000700028F2D1206AB0F5803F40
:100F100007D11448406820F40030A1680843114903
:100F20004860D4E9080108430E49496821F4741166
:100F300008430C49486001200B490866FFF704FC90
:100F4000054607E03DE0FFF7FFFB401B022801D903
:100F500003200FE60348006800F000700028F2D07C
:100F60002FE0000000100240000042428004424294
:100F700000700040002014490866FFF7E5FB0546B5
:100F800006E0FFF7E1FB401B022801D90320F1E551
:100F90000E48006800F000700028F2D111E0E0690E
:100FA000012800D1E6E50948466806F48031206A48
:100FB000814204D106F47011606A814201D001209F
:100FC000D8E50020D6E500000000424200100240B3
:100FD00070B504462546681EB0F1807F01D301201C
:100FE0000FE0681E4FF0E02148610F214FF0FF3005
:100FF00001F042F900204FF0E021886107200861EC
:10100000002070BD7047704710B5024600BF92F8CF
:101010003C00012801D1022010BD012082F83C00D3
:1010200000BF022082F83D001068436810688468A1
:1010300023F070030868034324F0800448680443E5
:101040001068436010688460012082F83D0000BF92
:10105000002082F83C0000BF00BFDDE710B5044669
:101060000CB9012010BD94F83D0028B9002084F887
:101070003C00204600F00CF8022084F83D00211DC1
:10108000206800F0E7FE012084F83D000020E9E739
:1010900010B586B00446002002900390049005909D
:1010A0002068B0F1804F38D100BF2A48C06940F0B5
:1010B00001002849C8610846C06900F0010001909C
:1010C00000BF00BF00BF0846806940F0040088618F
:1010D0000846806900F00400019000BF00BF4FF493
:1010E0000040029000200390049002A91A48FFF7E4
:1010F0008DF900BF1949486820F4407040F0E06065
:1011000040F48070486000BF002211461C20FFF7A9
:10111000B9FB1C20FFF7A6FB19E0114920688842A3
:1011200015D100BF0B48C06940F002000949C861F1
:101130000846C06900F00200019000BF00BF002215
:1011400011461D20FFF79EFB1D20FFF78BFB06B00D
:1011500010BD0000001002400008014000000140E6
:101160000004004001460868C06840F001000B68B8
:10117000D8600868806800F00702062A05D0086871
:10118000006840F001000B681860002070472DE9EE
:10119000F04104460D4600BF94F83C00012802D1FE
:1011A0000220BDE8F081012084F83C0000BF02204D
:1011B00084F83D002068866826F0770626F47F468E
:1011C000206886602868502833D00CDC202850D056
:1011D00004DC00284BD0102851D149E0302849D0F8
:1011E00040284CD139E060282DD0702807D0B0F5C8
:1011F000805F03D0B0F5005F41D10DE040E0D5E95C
:1012000002136A68206800F070FE2068866846F065
:1012100077062068866033E0D5E902136A682068A3
:1012200000F063FE2068806840F480402168886098
:1012300026E0EA686968206800F028FF50212068ED
:1012400000F05EFE1CE0EA686968206800F066FF56
:101250006021206800F054FE12E0EA6869682068A6
:1012600000F014FF4021206800F04AFE08E000BFB3
:1012700000BF00BF2968206800F042FE00E000BF08
:1012800000BF012084F83D0000BF002084F83C002E
:1012900000BF00BF85E710B504462068B0F1804F5D
:1012A00004D1207F012801D100F000FD10BD2DE9FF
:1012B000F04104460D46164600BF94F83C00012854
:1012C00002D10220BDE8F081012084F83C0000BF7B
:1012D000022084F83D0096B9EB68D5E90012206839
:1012E00000F0E8FE2068806920F00C002168886129
:1012F00020688069A9680843216888613DE0042E60
:1013000013D1EB68D5E90012206800F01BFF2068BC
:10131000806920F440602168886120688069A9683C
:1013200040EA01202168886127E0082E12D1EB688D
:10133000D5E90012206800F022FF2068C06920F083
:101340000C002168C8612068C069A9680843216849
:10135000C86112E0EB68D5E90012206800F02BFFAD
:101360002068C06920F440602168C8612068C069B5
:10137000A96840EA01202168C861012084F83D0085
:1013800000BF002084F83C0000BF00BF9AE710B502
:1013900004460CB9012010BD94F83D0028B9002086
:1013A00084F83C00204600F00CF8022084F83D0050
:1013B000211D206800F04EFD012084F83D00002032
:1013C000E9E7704770B504460D4635B1042D0BD0E2
:1013D000082D10D00C2D1CD114E02068C06840F0FE
:1013E00002002168C86015E02068C06840F0040071
:1013F0002168C8600EE02068C06840F008002168DD
:10140000C86007E02068C06840F010002168C8602C
:1014100000E000BF00BF01222946206800F054FD13
:101420002068806800F00706062E05D02068006856
:1014300040F0010021680860002070BD10B504462E
:1014400020680069C0F34000D8B12068C068C0F3CC
:101450004000B0B16FF002002168086101202077E0
:101460002068806900F0030018B12046FFF713FFE1
:1014700005E0204600F0DAF8204600F099F9002057
:10148000207720680069C0F38000D8B12068C06868
:10149000C0F38000B0B16FF0040021680861022041
:1014A00020772068806900F4407018B12046FFF76B
:1014B000F2FE05E0204600F0B9F8204600F078F989
:1014C0000020207720680069C0F3C000D8B12068F0
:1014D000C068C0F3C000B0B16FF0080021680861B7
:1014E000042020772068C06900F0030018B120466E
:1014F000FFF7D1FE05E0204600F098F8204600F006
:1015000057F90020207720680069C0F30010D8B197
:101510002068C068C0F30010B0B16FF010002168FF
:101520000861082020772068C06900F4407018B175
:101530002046FFF7B0FE05E0204600F077F8204691
:1015400000F036F9002020772068006900F00100E3
:1015500058B12068C06800F0010030B16FF00100A0
:1015600021680861204600F04BF920680069C0F34B
:10157000C01058B12068C068C0F3C01030B16FF01F
:101580008000216808612046FFF73CFD2068006963
:10159000C0F3801058B12068C068C0F3801030B12B
:1015A0006FF0400021680861204600F090F9206843
:1015B0000069C0F3401058B12068C068C0F3401003
:1015C00030B16FF02000216808612046FFF71BFD55
:1015D00010BD000010B586B00446002002900390B4
:1015E000049005900E492068884216D100BF0D482E
:1015F000806940F008000B4988610846806900F066
:101600000800019000BF00BF40200290022003901C
:10161000059002A90448FEF7F9FE06B010BD0000CF
:101620000008004000100240000C0140704770B5F7
:1016300004460D46164600BF94F83C00012801D12F
:10164000022070BD012084F83C0000BF022084F815
:101650003D0036B1042E1BD0082E31D00C2E5ED1A9
:1016600045E02946206800F055FC2068806940F07C
:101670000800216888612068806920F004002168E2
:10168000886120688069296908432168886147E08A
:101690002946206800F06EFC2068806940F40060F4
:1016A000216888612068806920F4806021688861F1
:1016B00020688069296940EA0120216888612FE05B
:1016C0002946206800F08AFC2068C06940F00800C4
:1016D0002168C8612068C06920F004002168C861E1
:1016E0002068C069296908432168C86118E0294653
:1016F000206800F0A7FC2068C06940F40060216801
:10170000C8612068C06920F480602168C8612068D1
:10171000C069296940EA01202168C86100E000BF72
:1017200000BF012084F83D0000BF002084F83C0089
:1017300000BF00BF85E710B504460CB9012010BDFD
:1017400094F83D0028B9002084F83C00204600F0C1
:101750000DF8022084F83D00211D206800F07AFB7E
:10176000012084F83D000020E9E7000038B5044678
:101770000D492068884215D100BF0C48C06940F06F
:1017800004000A49C8610846C06900F004000090DE
:1017900000BF00BF002211461E20FFF773F81E2075
:1017A000FFF760F838BD000000080040001002405C
:1017B0007047000070B504460E460122314620688D
:1017C00000F082FB0D492068884201D1012000E031
:1017D000002028B12068406C40F400402168486433
:1017E0002068806800F00705062D05D02068006895
:1017F00040F0010021680860002070BD002C01400D
:1018000010B504462068B0F1804F04D11D484068EF
:10181000401C1C4948601C492068884231D11B4843
:101820001B4991F9001010F8310050B319480068B5
:10183000012802D0022822D110E0012000F058FA3D
:101840001248134991F9001000EBC1004088124979
:101850000968486202200F49086011E0002000F08A
:1018600047FA0A480A4991F9001000EBC100808844
:1018700009490968486201200649086000E000BF84
:1018800000BF10BDB0010020000400400400002093
:1018900002000020D8000020300100200246002075
:1018A00031B1042907D0082908D00C290CD108E04F
:1018B0001368586B09E01368986B06E01368D86BDF
:1018C00003E01368186C00E000BF00BF704770476A
:1018D00000BFFEE700B585B00020019002900390A4
:1018E000049000BF4848806940F010004649886174
:1018F0000846806900F01000009000BF00BF00BFE4
:101900000846806940F0200088610846806900F040
:101910002000009000BF00BF00BF0846806940F073
:10192000040088610846806900F00400009000BF50
:1019300000BF00BF0846806940F008008861084683
:10194000806900F00800009000BF00BF00224FF443
:1019500000512E48FEF7F1FE002241F6FF712C489F
:10196000FEF7EBFE00224FF6BF712A48FEF7E5FEB8
:101970004FF40050019001200290002003900320BA
:10198000049001A92148FEF741FD4FF44040019029
:1019900000200290039001A91C48FEF737FD41F694
:1019A000BB7001900120029000200390022004905F
:1019B00001A91748FEF72AFD44200190012002905A
:1019C000002003900320049001A91148FEF71EFD9A
:1019D0000320019001200290002003900320049036
:1019E00001A90C48FEF712FD4FF6BC7001900120D2
:1019F0000290002003900220049001A90548FEF700
:101A000005FD05B000BD00000010024000100140BF
:101A100000080140000C014000B58BB00020079089
:101A2000089009900A90059006900190029003900A
:101A300004904FF080401F49086037204860002123
:101A40001C4881604FF6FF71C16000210161816116
:101A5000FFF704FB08B1FEF7AAFB4FF48050079094
:101A600007A91448FFF793FB08B1FEF7A0FB114844
:101A7000FFF78DFC08B1FEF79AFB00200590069059
:101A800005A90C48FFF7C0FA08B1FEF790FB00204B
:101A90000190012002900020039003200490002276
:101AA00001A90448FFF703FC08B1FEF780FB0BB067
:101AB00000BD0000F000002000B587B000200390BA
:101AC0000490059006900190029014481449086013
:101AD000642048600021124881604FF6FF71C160A8
:101AE000002101618161FFF7B9FA08B1FEF75FFBE0
:101AF0004FF48050039003A90948FFF748FB08B151
:101B0000FEF755FB00200190029001A90448FFF761
:101B10007BFA08B1FEF74BFB07B000BD00040040A4
:101B20003001002000B589B00020079008901C21EA
:101B30006846FEF7FEFA1B481B4908600120486012
:101B40000021194881604FF4B461C1600021016136
:101B50008161FFF7F0FD08B1FEF729FB0020079037
:101B6000089007A91048FFF74FFA08B1FEF71FFBCE
:101B7000602000904FF49670019000200290049035
:101B8000002269460848FFF752FD08B1FEF70FFB37
:101B900000210548FFF70EFE0348FFF71BFD09B0C3
:101BA00000BD0000000800407001002000BFFEE7FB
:101BB000704700004FF4FA60164908800846008814
:101BC00015490988401A00B2144908801448006871
:101BD000B1F900100844124908601248007812490F
:101BE000097848430D49B1F9001048430F49097875
:101BF0000F4A127851430A4A126801FB02010C484D
:101C00000078094A1278504391FBF0F009490880A6
:101C100070470000C4000020C6000020C80000205B
:101C2000CC000020D0000020D3000020D2000020F3
:101C3000D1000020D400002010B5FEF777FE10BDC3
:101C40007047F8B506460F4614461D46FEF77CFD64
:101C5000009014F8350038B90098304404EBC50101
:101C60004860012004F8350004EBC5004068009985
:101C7000884203D8002004F83500B847F8BD0000BA
:101C800008B508490968C9084FF47A72B1FBF2F146
:101C90004143009100BF00BF00994A1E00920029F5
:101CA000F9D108BDEC0000207047000010B50021FC
:101CB0000C48FFF7F3FD0C49C860084640680874FB
:101CC000002008490968486207494860084680685A
:101CD000401C886008468068022801D30120887073
:101CE00010BD0000F0000020B0010020704700008F
:101CF00010B50446012C05D1012211460448FEF717
:101D00001CFD04E0002201210148FEF716FD10BD74
:101D1000000C014010B54FF400510248FEF706FDDB
:101D200010BD0000001001400948C168007C01EBB3
:101D300000400749C8600846C0680649B1FBF0F09A
:101D4000034988820846808A03490880704700005A
:101D5000B00100202F82AE04C600002010B5FEF7AF
:101D6000F9FC10BD00B58FB0282105A8FEF7E1F9F8
:101D700014216846FEF7DDF9012005900004069065
:101D8000002007900120099002200C90C1030D91C2
:101D90004FF4E0110E9105A8FEF7E8FE08B1FEF73A
:101DA00006FA0F20009002200190002002904FF4CC
:101DB000806003900020049002216846FEF7C6FD73
:101DC00008B1FEF7F4F90FB000BD0000114800683B
:101DD00040F001000F490860084640680E4908407D
:101DE0000C494860084600680C49084009490860E9
:101DF0000846006820F4802008600846406820F407
:101E0000FE0048604FF41F008860C8030449086062
:101E100070470000001002400000FFF8FFFFF6FED0
:101E200008ED00E010B50248FFF708FB10BD000008
:101E3000F000002010B50248FFF700FB10BD0000C5
:101E40003001002010B50248FFF7F8FA10BD00007D
:101E50007001002010B50268184B984208D0B0F10C
:101E6000804F05D0164B984202D0164B984203D1B2
:101E700022F070024B681A43104B984208D0B0F120
:101E8000804F05D00E4B984202D00E4B984203D1A2
:101E900022F44072CB681A4322F080034C6943EA73
:101EA000040202608B68C3620B688362034B984232
:101EB00001D10B6903630123436110BD002C014074
:101EC000000400400008004030B501F01F05012467
:101ED00004FA05F3046A9C430462046A01F01F05D6
:101EE00002FA05F52C43046230BD30B50C4681681A
:101EF00021F47F4142EA032525432943816030BD17
:101F00000A46816821F0700142F00703194381609D
:101F10007047000030B5056A25F001050562026AC8
:101F20004368846924F0700424F003040D682C4392
:101F300022F002028D682A430D4DA84206D100BF4F
:101F400022F00802CD682A4322F00402084DA8427C
:101F500007D123F4807323F400734D692B438D69FB
:101F60002B43436084614D684563026230BD0000CD
:101F7000002C014030B5056A25F010050562026AA3
:101F80004368846924F4E04424F440740D6844EA0E
:101F9000052422F020028D6842EA05120E4DA84267
:101FA00007D100BF22F08002CD6842EA051222F07C
:101FB0004002094DA84209D123F4806323F4006351
:101FC0004D6943EA85038D6943EA85034360846173
:101FD0004D688563026230BD002C014030B5056A52
:101FE00025F480750562026A4368C46924F07004B0
:101FF00024F003040D682C4322F400728D6842EA39
:1020000005220F4DA84207D100BF22F40062CD681F
:1020100042EA052222F48062094DA84209D123F444
:10202000805323F400534D6943EA05138D6943EA55
:1020300005134360C4614D68C563026230BD000092
:10204000002C014030B5056A25F480550562036A0D
:102050004468C26922F4E04222F440720D6842EA08
:10206000052223F400538D6843EA0533064DA84248
:1020700004D124F480444D6944EA85144460C2616B
:102080004D680564036230BD002C014030B50B463D
:102090001446026A056A25F001050562816921F08E
:1020A000F00141EA041122F00A021A43816102623E
:1020B00030BD000070B50C461546066A26F00106D4
:1020C00006628169026A124EB04208D0B0F1804FB8
:1020D00005D0104EB04202D00F4EB04201D10126C1
:1020E00000E000261EB121F00301294301E041F088
:1020F000010121F0F001F02606EA0316314322F037
:102100000A0204F00A0632438161026270BD0000D7
:10211000002C0140000400400008004030B50B4690
:102120001446056A25F0100505628169026A21F4EA
:10213000704141EA043122F0A00242EA03128161B7
:10214000026230BD70B50C461546066A26F01006D0
:1021500006628169026A21F4407141EA052121F495
:1021600070414FF4704606EA0336314322F0A00274
:10217000A02606EA041632438161026270BD70B582
:102180000C461546066A26F480760662C169026A24
:1021900021F00301294321F0F001F02606EA03169D
:1021A000314322F400724FF4007606EA04263243EB
:1021B000C161026270BD70B50C461546066A26F410
:1021C00080560662C169026A21F4407141EA052124
:1021D00021F470414FF4704606EA0336314322F48D
:1021E00000524FF4005606EA04363243C1610262DF
:1021F00070BD704710B5FFF78DFDFFF7DBFC13488E
:102200000078E0B912481349097830F811001249F2
:10221000096848630E483C300E490978405C0B4918
:1022200008700C4800780C2805D20A480078401C39
:102230000849087008E000200649087004E00348D7
:102240000078401E0149087010BD0000C200002047
:1022500068000020DD0000207001002000B5FDF7BF
:1022600087FF00BD00BFFEE702480068C0F3022000
:10227000704700000CED00E010B5002804DB0A07F1
:10228000130E054A135406E00A07140E034A00F021
:102290000F031B1FD45410BD00E400E018ED00E054
:1022A00002E008C8121F08C1002AFAD1704770471F
:1022B000002001E001C1121F002AFBD1704700007D
:1022C000FEF754FAFFF74EFDFFF704FBFFF7A4FB00
:1022D000FFF7F2FBFFF726FC18480068C06840F0E3
:1022E000010016490968C86000211448FFF76AF820
:1022F0001348FEF737FF00F02FF8FDF739FF1BE01A
:1023000010488078012804D1FFF70EFD00200D4908
:10231000887000230C4A0D491420FFF792FC01231A
:10232000094A0B496420FFF78CFC0223064A09493D
:102330004FF47A70FFF785FCE2E70000F000002020
:1023400030010020B0010020E8010020F321000846
:10235000F52100085D220008002100200FE0094A55
:1023600012F83020012A09D1074A5054521E12781F
:10237000521C054B5B1E1A704A1CD1B2401C0C2823
:10238000EDDB704704000020D901002000000000B0
:102390000000000001020304060708090000000015
:1023A00001020304C423000800000020F000000024
:1023B000A0220008B4240008F0000020300500002E
:1023C000B022000800000000010021F03F0C8A024A
:1023D00001001BF3F33920030100AFF58F61E8031F
:1023E0000100D7FAC7B0D00701008FFC2FCBB80B84
:1023F00001006BFD63D8A00F0100EFFD4FE08813D3
:10240000010047FE97E57017010086FE5DE9581B45
:102410000100B5FE31EC401F0100DAFE64EE282316
:102420000100F7FE27F01027000000000000000068
:10243000E803C201C201C201C201C201C201C2015C
:102440002C019600640000000000EE0220035203FD
:102450008403B603E803B004AA0540066C07D0075E
:102460003408FC08C409F00A323205323232323202
:1024700032320505053232323232323232323232C3
:102480003232323232320000000000000000000020
:10249000000000000164036400000000010000006F
:1024A000000000000000000010000000010000001B
:0424B0000024F40010
:04000005080000ED02
:00000001FF
